:020000040000FA
:060000000A128A110C280F
:10000800FE00030EF1000A08F2000A128A11F02815
:100018000A128A110F28F901FA01FB01FC01FD01FE
:1000280083010A128A11182807300A128A119D20A2
:100038000A128A11123083160313850083160317D8
:10004800880183120313860183160313860183161E
:100058000317890183120313880183160313880188
:100068000A128A119B210A128A110A128A11802106
:100078000A128A11103083120313900030300A12CA
:100088008A11B6210A128A110630F8001330F700D7
:10009800AD30F600F60B4E28F70B4E28F80B4E281D
:1000A80055280630F8001330F700AD30F600F60B8F
:1000B8005B28F70B5B28F80B5B2862280630F800F2
:1000C8001330F700AD30F600F60B6828F70B6828F8
:1000D800F80B68286F280630F8001330F700AD30A9
:1000E800F600F60B7528F70B7528F80B75287C2891
:1000F8000330F8000830F7007730F600F60B822856
:10010800F70B8228F80B82280A128A1153210A1247
:100118008A110A128A1153210A128A110A128A11A3
:1001280026210A128A110A128A1126210A128A1114
:100138009C28F500CD28831603130F138F120F1276
:10014800831603130F138F120F16831603130F133F
:100158008F160F12831603130F138F160F1683169D
:1001680003130F178F120F12831603130F178F1213
:100178000F16831603130F178F160F128316031308
:100188000F178F160F16831603130F178F160F12DC
:1001980008007508F300F4017408003A0319D5281B
:1001A800C7287308003A03199F28013A0319A4289D
:1001B800033A0319A928013A0319AE28073A031983
:1001C800B328013A0319B828033A0319BD28013A9C
:1001D8000319C228C7280800831203138C1D1F297E
:1001E8001412141BF928941F01291308F000700831
:1001F800FD001413941314161D2983160313941E5B
:10020800141D1D29831203131308F0007008FD0044
:100218008316031314107B08831203139300141618
:10022800A630F000F00B16290000831603131418EB
:10023800192983128C1172088A00710E8300FE0E30
:100248007E0E09000A128A11D0210A128A1106307C
:10025800F5001330F400AD30F300F30B3129F40B43
:100268003129F50B31293829831203130810881412
:100278000811881505178513081688120530F5002A
:100288007730F400D630F300F30B4829F40B4829F3
:10029800F50B482900000A128A11D02108000A1219
:1002A8008A11D0210A128A110630F5001330F400A1
:1002B800AD30F300F30B5E29F40B5E29F50B5E29D4
:1002C800652983120313081488100815881105136B
:1002D8008517081288160530F5007730F400D630F7
:1002E800F300F30B7529F40B7529F50B752900003C
:1002F8000A128A11D0210800831603138714FF30CD
:100308009200831203139D151D159D141D14993019
:100318009B001D129D128C109214121412158C1C25
:1003280097298C10932983160313871008008316C6
:100338000313071583120313971517159710171032
:100348009713171399309500171297128C1092145F
:10035800121412158C1CB2298C10AE2983160313A3
:1003680007110800F300730883160313930036304F
:100378008312031394008030831603139400013012
:100388009100871507168B170B17831203138C110F
:10039800831603138C1508008312031308108810A2
:0E03A800081188110513851308128812080029
:04400E00D4E0FFFFFC
:00000001FF
