:020000040000FA
:060000000A128A110C280F
:10000800FE00030EF2000A08F3000A128A11D62A2B
:100018000A128A110F28F701F801F9018313203019
:10002800840044300A128A11C8250A128A118301F1
:100038000A128A111F2807300A128A1144230A1249
:100048008A1112308316031385008316031788015B
:10005800831203138601831603138601831603177D
:100068008901831203138801831603138801303032
:10007800F4000030F5000A128A119F250A128A112D
:100088000A128A1145220A128A110A128A11822535
:100098000A128A1110308312031390000A128A116F
:1000A800E6240A128A11831203134C08A3004B0892
:1000B800A20000302302023003192202031C652823
:1000C8006628AE2801302302913003192202031852
:1000D8006E286F28AE280130C6000030C7000130F6
:1000E800C8000030C9000A128A1157250A128A115D
:1000F800283083120313C4008030C5000A128A1105
:10010800E3230A128A113A3083120313DC005C08D5
:10011800CF002308D1002208D00034300A128A11F7
:100128005B210A128A11343083120313C400003091
:10013800C5000A128A11E3230A128A111F3083129A
:100148000313C4008030C5000A128A11E3230A127F
:100158008A11C6280130C6000030C7000130C80027
:100168000030C9000A128A1157250A128A110B3069
:1001780083120313C4008030C5000A128A11E323D6
:100188000A128A11023083120313DE000430DD00E4
:10019800B930DC00DC0BCE28DD0BCE28DE0BCE28F8
:1001A800D5280A128A11AB240A128A118312031362
:1001B8004C08A1004B08A0000030210202300319AE
:1001C8002002031CE828E928312901302102913056
:1001D800031920020318F128F22831290230C60039
:1001E8000030C7000130C8000030C9000A128A1167
:1001F80057250A128A11313083120313C400803044
:10020800C5000A128A11E3230A128A113A308312AE
:100218000313DC005C08CF002108D1002008D000BF
:1002280024300A128A115B210A128A11243083129F
:100238000313C4000030C5000A128A11E3230A120E
:100248008A111F3083120313C4008030C5000A12BC
:100258008A11E3230A128A1149290230C6000030A4
:10026800C7000130C8000030C9000A128A1157259A
:100278000A128A110B3083120313C4008030C500A0
:100288000A128A11E3230A128A1106308312031311
:10029800DE001330DD00AD30DC00DC0B5129DD0B56
:1002A8005129DE0B512952280A128A110C2883126F
:1002B8000313DA005030D2005208D5002E2A253018
:1002C8005B0603196829692975295B08D2005A0851
:1002D80084005208831380000130D2005208DA07E4
:1002E8002E2AD6010130CF07FF304F0784000A12AB
:1002F8008A11A1230A128A11DB00D200D301530804
:10030800003A031988292E2A5208003A0319402A6C
:10031800643A031993290D3A031993292E2A55088B
:10032800840083130008D800840A0008D90002302A
:10033800D2005208D507D91FA229A329AC29033016
:10034800D2005208D604D809D909D80A0319D90AFB
:10035800DB01DB0A5B08D2005207013E84000A1267
:100368008A11A1230A128A11D3000A128A11A12321
:100378000A128A11D40054085902031DC5295308CA
:1003880058020318C829C929CA29D4290130D2001A
:100398005208DB0705305B06031DD329D429AE2993
:1003A800560803390319D929DA29E5292D30D2004D
:1003B8005A0884005208831380000130D200520882
:1003C800DA075B08D2005208D700252A0A30CB008A
:1003D8000030CC005708D2005207013E84000A12B0
:1003E8008A11A1230A128A11C4000A128A11A123B0
:1003F8000A128A11C5005908C7005808C6000A120F
:100408008A1129240A128A11831203134508CE007F
:100418004408CD000A128A116F240A128A11831225
:1004280003134B08303ED3005308DB005B08D200AF
:100438005A0884005208831380000130D200520801
:10044800DA07FF30D2005208D707570A031D2D2AB2
:100458002E2AEA290130CF07FF304F0784000A12FD
:100468008A11A1230A128A11D2005208DB005B0804
:10047800031D3F2A402A63295A08840083138001F8
:100488000800343083120313C700F130C600C60BCE
:100498004B2AC70B4B2A3030F4000030F5000A1203
:1004A8008A1121250A128A110D3083120313C700FD
:1004B800FB30C600C60B5E2AC70B5E2A3030F4003C
:1004C8000030F5000A128A1121250A128A114130DA
:1004D80083120313C600C60B6F2A722A3030F40049
:1004E8000030F5000A128A1121250A128A114130BA
:1004F80083120313C600C60B7F2A822A3830F40001
:100508000030F5000A128A1121250A128A112230B8
:1005180083120313C600C60B8F2A00000830F400AC
:100528000030F5000A128A1121250A128A11223098
:1005380083120313C600C60B9F2A00000130F40083
:100548000030F5000A128A1121250A128A11083092
:1005580083120313C700C930C600C60BB12AC70BE4
:10056800B12A0630F4000030F5000A128A1121255C
:100578000A128A11223083120313C600C60BC22A3C
:1005880000000C30F4000030F5000A128A11212511
:100598000A128A11223083120313C600C60BD22A0C
:1005A80000000800831203138C1DDB2ADC2A3D2B74
:1005B8001412141BE02AE12AE52A941FE42AE52AEA
:1005C800EF2A1308F000F1017008F7007108F8002D
:1005D80014139413141683160313941AF42AF52A81
:1005E800162B1419F82AF92A162B83120313130849
:1005F800F000F1017008F7007108F8008C1114166A
:1006080083160313141C092B0A2B042B83120313C0
:100618001308F0007008F900A630F000F00B122B58
:1006280000003A2B941A192B1A2B3A2B141D1D2B48
:100638001E2B3A2B831203131308F000F1017008E4
:10064800F7007108F80083160313141083120313BC
:10065800220893001416A630F000F00B312B00008E
:10066800831603131418392B3A2B342B83120313D4
:100678008C1173088A00720E8300FE0E7E0E09002C
:10068800F600742B831603130F138F120F128316A1
:1006980003130F138F120F16831603130F138F16DE
:1006A8000F12831603130F138F160F1683160313D7
:1006B8000F178F120F12831603130F178F120F16AF
:1006C800831603130F178F160F12831603130F17B2
:1006D8008F160F16831603130F178F160F12962BEC
:1006E8007608F400F5017508003A03197C2B6E2B87
:1006F8007408003A0319462B013A03194B2B033AA5
:100708000319502B013A0319552B073A03195A2B91
:10071800013A03195F2B033A0319642B013A0319B1
:10072800692B6E2B0800FF1BA12B83137F188317DF
:100738000008840A0319FF0A080003308A00040825
:10074800840A82070034013400340A3400346434E3
:100758000034E834033410342734463455344534EF
:1007680052344134203444344534203452344134F2
:100778004E3447344F34203420342034203420344D
:100788000034203463346D34203420342034203451
:10079800203400344434493453345F343134203401
:1007A8003D34203400344434493453345F343234D3
:1007B80020343D3420340034253469340034831225
:1007C8000313C901CA010C2C49084407C70045088E
:1007D800C6000318C60AC91FF22BC60383120313E7
:1007E8004608C8004808FF00470884000A128A1112
:1007F80097230A128A110A128A11B8250A128A1135
:10080800013083120313C9070318CA0A0030CA0744
:1008180049084407C7004508C6000318C60AC91F87
:10082800162CC603831203134608C8004808FF00A5
:10083800470884000A128A1197230A128A11003A7B
:10084800031D272C282CE82B080083120313C90149
:10085800CA01440845040319322C332C6A2CC801F8
:10086800C80A412C01300310C40DC50DFF3E031DFD
:10087800372C0130F4007408C807C51F442C452CD8
:10088800362C01300310C90DCA0DFF3E031D462C3E
:1008980045084702031D522C44084602031C552CE8
:1008A800562C5D2C4408C6024508031CC703C70222
:1008B800491401300310C50CC40CFF3E031D5E2C07
:1008C8000130C802031D692C6A2C452C4A08C50052
:1008D8004908C4000800831203134B084C04031989
:1008E800762C772CA62CF601F60A852C01300310FD
:1008F800CB0DCC0DFF3E031D7B2C0130F500750898
:10090800F607CC1F882C892C7A2C4C084E02031D24
:100918008F2C4B084D02031C922C932C992C4B08BE
:10092800CD024C08031CCE03CE0201300310CC0CC0
:10093800CB0CFF3E031D9A2C0130F602031DA52C9B
:10094800A62C892C4E08CC004D08CB000800831239
:1009580003138E018F0185150630F500F50BB22CB7
:100968000000831203138511051EBB2CBC2CB82C68
:100978001014051AC02CC12CBD2C10100F08CE0065
:100988000E08CD004D08BB3ECD004E080318013EB1
:10099800FF3ECE001630C4000030C5004E08C70028
:1009A8004D08C6000A128A1129240A128A118312D4
:1009B80003134508CE004408CD004E08CC004D086E
:1009C800CB000800831203138E018F010515063032
:1009D800F500F50BED2C0000831203130511851C9F
:1009E800F62CF72CF32C10148518FB2CFC2CF82C67
:1009F80010100F08CE000E08CD004D08BB3ECD00EC
:100A08004E080318013EFF3ECE001630C4000030E9
:100A1800C5004E08C7004D08C6000A128A112924CD
:100A28000A128A11831203134508CE004408CD0028
:100A38004E08CC004D08CB0008008312031308139E
:100A48000D3083120313C500FB30C400C40B2A2DDC
:100A5800C50B2A2D8312031388170D308312031335
:100A6800C500FB30C400C40B372DC50B372D7408E7
:100A78008312031386000D3083120313C500FB3065
:100A8800C400C40B452DC50B452D831203138813D1
:100A98000D3083120313C500FB30C400C40B522D64
:100AA800C50B522D08008312031346034704031D88
:100AB8005E2D5F2D712D48087F3ECA004908031836
:100AC800013E003ECB004B08F5004A08F4000A122C
:100AD8008A1121250A128A11812D023046064704FF
:100AE800031D772D782D812D4808BF3ECA0049087F
:100AF8000318013E003ECB00672D08000030F400CB
:100B0800F5000A128A1121250A128A110130F4000F
:100B18000030F5000A128A1121250A128A110B30B9
:100B280083120313C7006130C600C60B992DC70B8B
:100B3800992D9E2D080080308316031394007408A5
:100B48009300363083120313940001308316031385
:100B58009100871507168B170B17831203138C1137
:100B6800831603138C150800F50083120313081766
:100B78007508860088171A30F400F40BC12D0000A0
:100B8800831203138813080064008001840A040692
:080B9800031900340406C92D05
:04400E00D4E0FFFFFC
:00000001FF
