:020000040000FA
:100000000A128A11F32FFF1B0D2883137F18831701
:100010000008840A0319FF0A080000308A00040857
:10002000840A82070034013400340A340034643412
:100030000034E8340334103427344634553445341E
:100040005234413420344434453420345234413421
:100050004E3447344F34203420342034203420347C
:100060000034203463346D34203420342034203480
:10007000203400344434493453345F343134203430
:100080003D34203400344434493453345F34323402
:0E00900020343D3420340034253469340034EB
:1006AE0064008001840A0406031900340406582BE2
:1006BE00F1008312031308177108860088171A3089
:1006CE00F000F00B682B0000831203138813080050
:1006DE000030F000F1000A128A11B3230A128A11B7
:1006EE000130F0000030F1000A128A11B3230A1211
:1006FE008A110B30F5006230F400F40B842BF50BED
:10070E00842B0000080074037504031D8F2B902B9F
:10071E00A22B76087F3EF80077080318013E003EB4
:10072E00F9007908F1007808F0000A128A11B32353
:10073E000A128A11B22B023074067504031DA82BFF
:10074E00A92BB22B7608BF3EF80077080318013E9E
:10075E00003EF900982B08008312031308130D3086
:10076E00F300FB30F200F20BBA2BF30BBA2BBF2BBC
:10077E008312031388170D30F300FB30F200F20BD7
:10078E00C62BF30BC62BCB2B7008831203138600DC
:10079E000D30F300FB30F200F20BD32BF30BD32B07
:1007AE00D82B8312031388130D30F300FB30F200A5
:1007BE00F20BDF2BF30BDF2BE42B0800831203135A
:1007CE008E018F0105150630FA00FA0BEC2B000096
:1007DE00831203130511851CF52BF62BF22B101427
:1007EE008518FA2BFB2BF72B10100F08FC000E08A8
:1007FE00FB007B08BB3EFB007C080318013EFF3E5E
:10080E00FC001630F0000030F1007C08F3007B088D
:10081E00F2000A128A11D3240A128A117108FC00FE
:10082E007008FB007C08F9007B08F80008008312B2
:10083E0003138E018F0185150630FA00FA0B252C55
:10084E000000831203138511051E2E2C2F2C2B2C2A
:10085E001014051A332C342C302C10100F08FC00F9
:10086E000E08FB007B08BB3EFB007C080318013E14
:10087E00FF3EFC001630F0000030F1007C08F30063
:10088E007B08F2000A128A11D3240A128A11710807
:10089E00FC007008FB007C08F9007B08F8000800DB
:1008AE007808790403195C2C5D2C8C2CFD01FD0A53
:1008BE006B2C01300310F80DF90DFF3E031D612C5A
:1008CE000130FC007C08FD07F91F6E2C6F2C602C8C
:1008DE0079087B02031D752C78087A02031C782C8C
:1008EE00792C7F2C7808FA027908031CFB03FB0293
:1008FE0001300310F90CF80CFF3E031D802C013063
:10090E00FD02031D8B2C8C2C6F2C7B08F9007A08B2
:10091E00F8000800F701F801B62C77087207F50009
:10092E007308F4000318F40AF71F9E2CF4037408DE
:10093E00F600760883120313FF00750884000A126E
:10094E008A1103200A128A110A128A115F230A12CF
:10095E008A110130F7070318F80A0030F8077708F4
:10096E007207F5007308F4000318F40AF71FC02C81
:10097E00F4037408F600760883120313FF0075085B
:10098E0084000A128A1103200A128A11003A031DEA
:10099E00D12CD22C942C0800F501F60170087104AC
:1009AE000319DA2CDB2C122DF701F70AE92C013092
:1009BE000310F00DF10DFF3E031DDF2C0130F4008E
:1009CE007408F707F11FEC2CED2CDE2C0130031010
:1009DE00F50DF60DFF3E031DEE2C71087302031D7F
:1009EE00FA2C70087202031CFD2CFE2C052D7008CB
:1009FE00F2027108031CF303F302751401300310A5
:100A0E00F10CF00CFF3E031D062D0130F702031D05
:100A1E00112D122DED2C7608F1007508F00008004E
:100A2E00F200472D831603130F138F120F12831626
:100A3E0003130F138F120F16831603130F138F1634
:100A4E000F12831603130F138F160F16831603132D
:100A5E000F178F120F12831603130F178F120F1605
:100A6E00831603130F178F160F12831603130F1708
:100A7E008F160F16831603130F178F160F12692D6D
:100A8E007208F000F1017108003A03194F2D412D43
:100A9E007008003A0319192D013A03191E2D033A55
:100AAE000319232D013A0319282D073A03192D2D69
:100ABE00013A0319322D033A0319372D013A03195E
:100ACE003C2D412D08003430F500F130F400F40BCC
:100ADE006E2DF50B6E2D732D3030F0000030F100C1
:100AEE000A128A11B3230A128A110D30F500FB3057
:100AFE00F400F40B802DF50B802D852D3030F00099
:100B0E000030F1000A128A11B3230A128A11423000
:100B1E00F400F40B902D00003030F0000030F100A6
:100B2E000A128A11B3230A128A114230F400F40B0E
:100B3E009E2D00003830F0000030F1000A128A11AC
:100B4E00B3230A128A112330F400F40BAC2D0830B3
:100B5E00F0000030F1000A128A11B3230A128A1132
:100B6E002330F400F40BB92D0130F0000030F10009
:100B7E000A128A11B3230A128A110830F500C930FD
:100B8E00F400F40BC82DF50BC82DCD2D0630F0005A
:100B9E000030F1000A128A11B3230A128A1123308F
:100BAE00F400F40BD82D0C30F0000030F1000A12D6
:100BBE008A11B3230A128A112330F400F40BE52DA7
:100BCE00080083120313CF004530C7004708CA0040
:100BDE00B92E253050060319F52DF62D022E50088C
:100BEE00C7004F0884004708831380000130C700F8
:100BFE004708CF07B92ECB010130C407FF30440799
:100C0E0084000A128A110D200A128A11D000C70020
:100C1E00C8014808003A0319152EB92E4708003AA4
:100C2E000319CB2E643A0319202E0D3A0319202EE8
:100C3E00B92E4A08840083130008CD00840A0008E8
:100C4E00CE000230C7004708CA07CE1F2F2E302E07
:100C5E00392E0330C7004708CB04CD09CE09CD0A83
:100C6E000319CE0AD001D00A5008C7004707013E2B
:100C7E0084000A128A110D200A128A11C8000A1263
:100C8E008A110D200A128A11C90049084E02031D4D
:100C9E00522E48084D020318552E562E572E612EF1
:100CAE000130C7004708D00705305006031D602EDF
:100CBE00612E3B2E4B0803390319662E672E722EBA
:100CCE002D30C7004F088400470883138000013081
:100CDE00C7004708CF075008C7004708CC00B02E02
:100CEE000A30F8000030F9004C08C7004707013EF3
:100CFE0084000A128A110D200A128A11F0000A12BB
:100D0E008A110D200A128A11F1004E08F3004D08C7
:100D1E00F2000A128A11D3240A128A117108FB00FA
:100D2E007008FA000A128A1157240A128A117808DA
:100D3E00303E83120313C8004808D0005008C70085
:100D4E004F0884004708831380000130C70047080E
:100D5E00CF07FF30C7004708CC074C0A031DB82E3B
:100D6E00B92E772E0130C407FF30440784000A12D3
:100D7E008A110D200A128A11C7004708D0005008A8
:100D8E00031DCA2ECB2EF02D4F0884008313800135
:100D9E00080007300A128A1117250A128A1112301A
:100DAE00831603138500831603178801831203131A
:100DBE008601831603138601831603178901831296
:100DCE00031388018316031388010A128A116A25F8
:100DDE000A128A110A128A116F230A128A1110300E
:100DEE008312031390000A128A11E5230A128A1144
:100DFE00790883120313A3007808A200003023029F
:100E0E00023003192202031C0D2F0E2F502F01301A
:100E1E0023029130031922020318162F172F502F79
:100E2E000130F4000030F5000130F6000030F7001C
:100E3E000A128A118A230A128A112830F20080308F
:100E4E00F3000A128A1191240A128A113A3083127F
:100E5E000313D1005108C4002308C6002208C500A0
:100E6E0034300A128A11E8250A128A113430F2003F
:100E7E000030F3000A128A1191240A128A111F30CF
:100E8E00F2008030F3000A128A1191240A128A119C
:100E9E00662F0130F4000030F5000130F60000300E
:100EAE00F7000A128A118A230A128A110B30F200F5
:100EBE008030F3000A128A1191240A128A1102302C
:100ECE0083120313D3000430D200B930D100D10BFA
:100EDE006E2FD20B6E2FD30B6E2F752F0A128A1117
:100EEE001E240A128A11790883120313A1007808AE
:100EFE00A00000302102023003192002031C882FAB
:100F0E00892FCB2F013021029130031920020318B3
:100F1E00912F922FCB2F0230F4000030F5000130CC
:100F2E00F6000030F7000A128A118A230A128A117B
:100F3E003130F2008030F3000A128A1191240A1225
:100F4E008A113A3083120313D1005108C4002108CC
:100F5E00C6002008C50024300A128A11E8250A129C
:100F6E008A112430F2000030F3000A128A11912403
:100F7E000A128A111F30F2008030F3000A128A1111
:100F8E0091240A128A11E12F0230F4000030F5008C
:100F9E000130F6000030F7000A128A118A230A1275
:100FAE008A110B30F2008030F3000A128A1191245C
:100FBE000A128A11063083120313D3001330D200A3
:100FCE00AD30D100D10BE92FD20BE92FD30BE92F86
:100FDE00FA2E0A128A11002883132030840044301E
:100FEE000A128A1157230A128A1183010A128A11D0
:020FFE00D02EF3
:04400E00D4E0FFFFFC
:00000001FF
