:020000040000FA
:060000000A128A110C280F
:10000800FE00030EF1000A08F2000A128A11212DDF
:100018000A128A110F28F701F801F9018312031354
:10002800A401A501A60183010A128A11852CDE29E3
:10003800F701F8017808803AFF0080307F02031D3D
:10004800272819307702031C2A282B282C28F9295D
:100058000A308312031388000D30F600FB30F500D8
:10006800F50B3428F60B342839280630831203138D
:1000780088000D30F600FB30F500F50B4128F60B33
:100088004128462805308312031388000D30F600F6
:10009800FB30F500F50B4E28F60B4E285328093097
:1000A8008312031388000D30F600FB30F500F50BC2
:1000B8005B28F60B5B2860280130F7070318F80A5D
:1000C8000030F8071E28F701F8017808803AFF0089
:1000D80080307F02031D72280C307702031C7528BC
:1000E80076287728F9290A308312031388000D30FF
:1000F800F600FB30F500F50B7F28F60B7F288428E7
:1001080006308312031388000D30F600FB30F5002B
:10011800F50B8C28F60B8C289128053083120313D5
:1001280088000D30F600FB30F500F50B9928F60B2A
:1001380099289E2809308312031388000D30F60091
:10014800FB30F500F50BA628F60BA628AB280130E6
:10015800F7070318F80A0030F8076928F701F801CB
:100168007808803AFF0080307F02031DBD280630E2
:100178007702031CC028C128C228F9290A30831233
:10018800031388000D30F600FB30F500F50BCA2884
:10019800F60BCA28CF2806308312031388000D30C7
:1001A800F600FB30F500F50BD728F60BD728DC282E
:1001B80005308312031388000D30F600FB30F5007C
:1001C800F50BE428F60BE428E92809308312031319
:1001D80088000D30F600FB30F500F50BF128F60B22
:1001E800F128F6280130F7070318F80A0030F80755
:1001F800B428F701F8017808803AFF0080307F02C0
:10020800031D082903307702031C0B290C290D292B
:10021800F9290A308312031388000D30F600FB30E9
:10022800F500F50B1529F60B15291A290630831246
:10023800031388000D30F600FB30F500F50B22297A
:10024800F60B2229272905308312031388000D3065
:10025800F600FB30F500F50B2F29F60B2F29342972
:1002680009308312031388000D30F600FB30F500C7
:10027800F50B3C29F60B3C2941290130F7070318F7
:10028800F80A0030F807FF28F701F8017808803AE3
:10029800FF0080307F02031D532901307702031CC1
:1002A800562957295829F9290A3083120313880037
:1002B8000D30F600FB30F500F50B6029F60B6029D0
:1002C800652906308312031388000D30F600FB30D1
:1002D800F500F50B6D29F60B6D297229053083128F
:1002E800031388000D30F600FB30F500F50B7A2972
:1002F800F60B7A297F2909308312031388000D3001
:10030800F600FB30F500F50B8729F60B87298C29B9
:100318000130F7070318F80A0030F8074A29F701EF
:10032800F8017808803AFF0080307F02031D9E297B
:1003380002307702031CA129A229A329F9290A302E
:100348008312031388000D30F600FB30F500F50B1F
:10035800AB29F60BAB29B0290630831203138800AA
:100368000D30F600FB30F500F50BB829F60BB8296F
:10037800BD2905308312031388000D30F600FB30C9
:10038800F500F50BC529F60BC529CA2909308312D2
:10039800031388000D30F600FB30F500F50BD22969
:1003A800F60BD229D7290130F7070318F80A0030CD
:1003B800F80795297408003A0319E629013A031940
:1003C800F429932973080F3A03194829223A031983
:1003D800FD28773A0319B228EE3A031967289329BA
:1003E8007308683A03191C2893290800BD2BF701E4
:1003F800F8017808803AFF0080307F02031D062A42
:1004080019307702031C092A0A2A0B2AD82B09302B
:100418008312031388000D30F600FB30F500F50B4E
:10042800132AF60B132A182A05308312031388009F
:100438000D30F600FB30F500F50B202AF60B202ACC
:10044800252A06308312031388000D30F600FB308E
:10045800F500F50B2D2AF60B2D2A322A0A308312C5
:10046800031388000D30F600FB30F500F50B3A2A2F
:10047800F60B3A2A3F2A0130F7070318F80A00302A
:10048800F807FD29F701F8017808803AFF00803065
:100498007F02031D512A0C307702031C542A552A67
:1004A800562AD82B09308312031388000D30F60022
:1004B800FB30F500F50B5E2AF60B5E2A632A053041
:1004C8008312031388000D30F600FB30F500F50B9E
:1004D8006B2AF60B6B2A702A0630831203138800E6
:1004E8000D30F600FB30F500F50B782AF60B782A6C
:1004F8007D2A0A308312031388000D30F600FB3082
:10050800F500F50B852AF60B852A8A2A0130F707AC
:100518000318F80A0030F807482AF701F8017808A4
:10052800803AFF0080307F02031D9C2A0630770244
:10053800031C9F2AA02AA12AD82B0930831203134F
:1005480088000D30F600FB30F500F50BA92AF60BF4
:10055800A92AAE2A05308312031388000D30F6004D
:10056800FB30F500F50BB62AF60BB62ABB2A063087
:100578008312031388000D30F600FB30F500F50BED
:10058800C32AF60BC32AC82A0A3083120313880029
:100598000D30F600FB30F500F50BD02AF60BD02A0B
:1005A800D52A0130F7070318F80A0030F807932A0C
:1005B800F701F8017808803AFF0080307F02031DB8
:1005C800E72A03307702031CEA2AEB2AEC2AD82B05
:1005D80009308312031388000D30F600FB30F50054
:1005E800F50BF42AF60BF42AF92A053083120313C3
:1005F80088000D30F600FB30F500F50B012BF60BEB
:10060800012B062B06308312031388000D30F600E9
:10061800FB30F500F50B0E2BF60B0E2B132B0A30C7
:100628008312031388000D30F600FB30F500F50B3C
:100638001B2BF60B1B2B202B0130F7070318F80A8E
:100648000030F807DE2AF701F8017808803AFF0041
:1006580080307F02031D322B01307702031C352BBB
:10066800362B372BD82B09308312031388000D3013
:10067800F600FB30F500F50B3F2BF60B3F2B442B18
:1006880005308312031388000D30F600FB30F500A7
:10069800F50B4C2BF60B4C2B512B06308312031306
:1006A80088000D30F600FB30F500F50B592BF60BE2
:1006B800592B5E2B0A308312031388000D30F60085
:1006C800FB30F500F50B662BF60B662B6B2B013018
:1006D800F7070318F80A0030F807292BF701F80183
:1006E8007808803AFF0080307F02031D7D2B02309E
:1006F8007702031C802B812B822BD82B0930831285
:10070800031388000D30F600FB30F500F50B8A2B3B
:10071800F60B8A2B8F2B05308312031388000D30BC
:10072800F600FB30F500F50B972BF60B972B9C2B5F
:1007380006308312031388000D30F600FB30F500F5
:10074800F50BA42BF60BA42BA92B0A308312031349
:1007580088000D30F600FB30F500F50BB12BF60BD9
:10076800B12BB62B0130F7070318F80A0030F80749
:10077800742B7408003A0319C52B013A0319D32BBB
:10078800722B73080F3A0319272B223A0319DC2A14
:10079800773A0319912AEE3A0319462A722B7308FD
:1007A800683A0319FB29722B0800152C7030831640
:1007B80003138F04842C831603130F088F396038B2
:1007C8008F00842C831603130F088F3950388F003D
:1007D800842C831603130F088F3940388F00842C1C
:1007E800831603130F088F3930388F00842C831633
:1007F80003130F088F3920388F00842C83160313B6
:100808000F088F3910388F00842C8F30831603130C
:100818008F05842C831603130F088F3960388F00D7
:10082800842C7608003A03196A2C0E2C74087D3A39
:1008380003191F2C0E2C7308003A0319092C0E2CCF
:100848007408E83A0319292C0E2C7308483A03193E
:10085800022C0E2C7408D03A0319332C0E2C730872
:10086800903A0319FB2B0E2C7408A13A03193D2C5E
:100878000E2C7308203A0319F42B0E2C7408423AF4
:100888000319472C0E2C7308403A0319ED2B0E2C34
:100898007408843A0319512C0E2C7308803A0319F2
:1008A800E62B0E2C7408093A03195B2C0E2C7308DE
:1008B800003A0319DF2B0E2C7408123A0319652C21
:1008C8000E2C7308003A0319DA2B0E2C7508003A1F
:1008D80003191A2C013A0319242C023A03192E2C55
:1008E800043A0319382C083A0319422C113A03190F
:1008F8004C2C233A0319562C473A0319602C0E2C1A
:1009080008000030F6000F30F5004230F4004030A7
:10091800F3000A128A11D9230A128A110A128A11BB
:1009280043260A128A110A128A1191260A128A117A
:100938000A128A1172260A128A110A128A11C82604
:100948000A128A1120300A128A11AE260A128A1156
:1009580000300A128A11EE250A128A1100300A1292
:100968008A1199250A128A11831203132403031D7D
:10097800BE2CBF2CAC2C5A30F3000030F4000A1205
:100988008A11FA210A128A11043083120313A10072
:100998003D30A000A00BCE2CA10BCE2C831203134C
:1009A800A201A3012D300A128A11EE250A128A111A
:1009B800043083120313A1003D30A000A00BE22CE9
:1009C800A10BE22CB4300A128A1199250A128A1155
:1009D800831203139F149F18F22CF32CEF2C013071
:1009E800A2070318A30A0030A3072308803AFF00D0
:1009F80080307F02031D022D3C302202031C052D8E
:100A0800062DD62CA33083120313A1005430A00066
:100A1800A00B0C2DA10B0C2D00005A30F300003058
:100A2800F4000A128A111B200A128A118312031376
:100A3800A401AC2C0A128A110C28831203130C1F70
:100A4800262D272D2E2D1E08F0007008F900790894
:100A580086000C138C1D312D322D922D1412141B6F
:100A6800362D372D3B2D941F3A2D3B2D422D130843
:100A7800F0007008A60014139413141683160313B9
:100A8800941A472D482D6E2D14194B2D4C2D6E2D73
:100A9800831203131308F0007008A6008C111416B3
:100AA80083160313141C592D5A2D542D8312031326
:100AB8001308F0007008A500F0302506031D652D09
:100AC800662D682DA401A40A1430F000F00B6A2DDD
:100AD80000008F2D941A712D722D8F2D141D752DD8
:100AE800762D8F2D831203131308F0007008A600CB
:100AF8008316031314107908831203139300141632
:100B08001430F000F00B862D000083160313141820
:100B18008E2D8F2D892D831203138C1172088A0054
:100B2800710E8300FE0E7E0E0900F500C82D0A30F6
:100B3800831203139500ED2D0C30831203139500D7
:100B4800ED2D0E30831203139500ED2D1230831214
:100B580003139500ED2D1930831203139500ED2D25
:100B68001E30831203139500ED2D213083120313D9
:100B78009500ED2D2530831203139500ED2D2830B7
:100B8800831203139500ED2D7508F300F401740822
:100B9800003A0319D02D9B2D7308003A03199B2D99
:100BA8000A3A0319A02D143A0319A52D333A03194B
:100BB800AA2D773A0319AF2D223A0319B42DFF3A1B
:100BC8000319B92D113A0319BE2D223A0319C32D61
:100BD8009B2D0800F5001D2E0A30831203139B007D
:100BE800422E0C30831203139B00422E0E308312C8
:100BF80003139B00422E1230831203139B00422ED4
:100C08001930831203139B00422E1E3083120313E4
:100C18009B00422E2130831203139B00422E253065
:100C2800831203139B00422E2830831203139B0068
:100C3800422E7508F300F4017408003A0319252EB2
:100C4800F02D7308003A0319F02D0A3A0319F52D0F
:100C5800143A0319FA2D333A0319FF2D773A031979
:100C6800042E223A0319092EFF3A03190E2E113ABF
:100C78000319132E223A0319182EF02D08000030FC
:100C8800F6000F30F5004230F4004030F3000A124D
:100C98008A11D9230A128A1183120313850101309C
:100CA8008316031385000130831603178800831207
:100CB800031386018316031386018316031789011C
:100CC8008312031388018316031388018312031305
:100CD80089010F3083160313890008008316031354
:100CE8000715C8309200831203139715171597102C
:100CF8001710971317131B309B00171697168C1095
:100D0800921412141215892E8C108C188C2E8D2E7C
:100D1800882E8316031307110800831603138714FC
:100D2800C8309200831203139D151D159D141D14C0
:100D38001B309B001D169D168C1092141214121550
:100D4800A62E8C108C18A92EAA2EA52E8316031356
:100D580087100800F30073088316031393003630D6
:100D68008312031394008030831603139400013018
:100D78009100871507168B170B17831203138C1115
:100D8800831603138C150800831203131F111F11F8
:100D98001F111F11831603139F131F129F12831213
:100DA80003139F131F138B170B17831603130C17AB
:0A0DB800831203130C131F1408002C
:04400E00D4E0FFFFFC
:00000001FF
