:020000040000FA
:060000000A128A11C92F4B
:100BC4001034173419340234153429345434593454
:100BD400F0007008831203139300080083160313B4
:100BE400141CF52DF62DF02D08000A128A11F0259B
:100BF4000A128A11831203131308080083160313BD
:100C040018121815831603178715673083160313F4
:100C140099009A0183120313981718131816831650
:100C2400031398160800F300831603138712731D29
:100C34001C2E1D2E212E720894008715252E700857
:100C440072049400871173087104831203139400CF
:100C54000800F2005B2E831603130F138F120F127A
:100C6400831603130F138F120F16831603130F1318
:100C74008F160F12831603130F138F160F16831676
:100C840003130F178F120F12831603130F178F12EC
:100C94000F16831603130F178F160F1283160313E1
:100CA4000F178F160F16831603130F178F160F12B5
:100CB4007D2E7208F000F1017108003A0319632EC9
:100CC400552E7008003A03192D2E013A0319322EBD
:100CD400033A0319372E013A03193C2E073A031934
:100CE400412E013A0319462E033A03194B2E013AB9
:100CF4000319502E552E0800831203138601831600
:100D04000313860183160317890106300A128A1118
:100D14002B260A128A110A128A1100260A128A1133
:100D2400F001F101F20120300A128A1115260A128B
:100D34008A110F308312031386000630F600133035
:100D4400F500AD30F400F40BA52EF50BA52EF60B33
:100D5400A52EAC2E7D300A128A11EA250A128A11B8
:100D64000A128A11F7250A128A11F4007408FD0088
:100D74000D30F500FB30F400F40BBE2EF50BBE2E47
:100D8400C32E10300A128A11EA250A128A110A1295
:100D94008A11F7250A128A11F4007408FD000D3037
:100DA400F500FB30F400F40BD52EF50BD52EDA2E1E
:100DB4000D30F500FB30F400F40BDE2EF50BDE2EC7
:100DC400E32E77080A128A11EA250A128A110A12F6
:100DD4008A11F7250A128A11F4007408FD000D30F7
:100DE400F500FB30F400F40BF52EF50BF52EFA2E7E
:100DF4007B080A128A11EA250A128A110A128A1138
:100E0400F7250A128A11F4007408FD000D30F5006C
:100E1400FB30F400F40B0C2FF50B0C2F112F0D30BD
:100E2400F500FB30F400F40B152FF50B152F1A2FDA
:100E340019300A128A11EA250A128A110A128A1131
:100E4400F7250A128A11F4007408FD000D30F5002C
:100E5400FB30F400F40B2C2FF50B2C2F312F173013
:100E64000A128A11EA250A128A110A128A11F7252E
:100E74000A128A11F4007408FD000D30F500FB30ED
:100E8400F400F40B432FF50B432F482F0D30F500DE
:100E9400FB30F400F40B4C2FF50B4C2F512F023088
:100EA4000A128A11EA250A128A110A128A11F725EE
:100EB4000A128A11F4007408FD000D30F500FB30AD
:100EC400F400F40B632FF50B632F682F29300A12FB
:100ED4008A11EA250A128A110A128A11F7250A12BE
:100EE4008A11F4007408FD000D30F500FB30F400A5
:100EF400F40B7A2FF50B7A2F7F2F0D30F500FB3092
:100F0400F400F40B832FF50B832F882F59300A122A
:100F14008A11EA250A128A110A128A11F7250A127D
:100F24008A11F4007408FD000D30F500FB30F40064
:100F3400F40B9A2FF50B9A2F9F2F54300A128A1113
:100F4400EA250A128A110A128A11F7250A128A114D
:100F5400F4007408FD000D30F500FB30F400F40BD0
:100F6400B12FF50BB12FB62F0130F4007408FB0735
:100F74003C307B06031DBF2FC02F9F2EFB01013089
:100F8400F4007408F7079F2E0A128A1100280A1227
:100F94008A11E2250A128A11A0000A128A11E32595
:100FA4000A128A11A1000A128A11E4250A128A116E
:100FB400A2000A128A11E5250A128A11A3000A1254
:100FC4008A11E6250A128A11F7000A128A11E72506
:100FD4000A128A11F8000A128A11E8250A128A11E3
:100FE400F9000A128A11E9250A128A11FA00FB0192
:0C0FF400FC01FD0183010A128A117E2E0F
:04400E00D4E0FFFFFC
:00000001FF
