:020000040000FA
:060000000A128A110C280F
:10000800FE00030EF2000A08F3000A128A117B2A86
:100018000A128A110F280A128A1172260A128A11E4
:10002800B7000A128A117326B800AD01AE01AF01FC
:10003800B001B101B201B301B401B501B601F601D5
:10004800F701F801F90183010A128A112B280A1213
:100058008A1198250A128A113030F4000030F50010
:100068000A128A1116260A128A1102300A128A11F5
:10007800D2250A128A1101308312031386000A124C
:100088008A1147260A128A11623083120313A900C3
:100098006530A800A80B4E28A90B4E28831203131D
:1000A80086010A128A112F260A128A1162308312D7
:1000B8000313A9006530A800A80B6028A90B6028C5
:1000C800831203133803031D3F2836080A128A11C6
:1000D800D2250A128A11831203133408A8002808AB
:1000E800F40035080A128A115F260A128A1183124F
:1000F8000313A9002908B10002303102031C20298A
:1001080088018617F030A8002808AF00083083124D
:100118000313AA009D30A9000530A800A80B922857
:10012800A90B9228AA0B9228831203138613AA30CC
:100138008800AF0102303102031C1D29370835063B
:10014800031DBF28310303191D293308031DB628D1
:100158000A128A119B230A128A1183120313B70108
:10016800B70A1D293303031D1D290A128A111A24EF
:100178000A128A11B128AB01AC010A128A1147266A
:100188000A128A118312031336080A128A11592592
:100198000A128A110A128A112F260A128A11831248
:1001A800031336080A128A1159250A128A110130D6
:1001B80083120313AB070318AC0A0030AC072C08F2
:1001C800803AFF0080307F02031DEC2806302B02A6
:1001D80003180829C1280A128A1116230A128A113B
:1001E8000A128A1147260A128A11623083120313EF
:1001F800A9006530A800A80BFF28A90BFF280A1240
:100208008A112F260A128A1114308312031330021E
:10021800031CEF283208031916290A128A11D32160
:100228000A128A11013083120313A8002808B7079D
:1002380088010130B1028028B701B70AB801B301BB
:100248003F2861297030831603138F040800831632
:1002580003130F088F3960388F00080083160313C3
:100268000F088F3950388F000800831603130F08C2
:100278008F3940388F000800831603130F088F3911
:1002880030388F000800831603130F088F39203881
:100298008F000800831603130F088F3910388F005A
:1002A80008008F30831603138F0508008316031385
:1002B8000F088F3960388F00080083120313230852
:1002C800003A0319B8295A2921087D3A03196D29DA
:1002D8005A292008003A031955295A292108E83AC9
:1002E800031977295A292008483A03194E295A2907
:1002F8002108D03A031981295A292008903A03196C
:1003080047295A292108A13A03198B295A29200873
:10031800203A031940295A292108423A03199529F4
:100328005A292008403A031939295A292108843AB8
:1003380003199F295A292008803A031932295A2972
:100348002108093A0319A9295A292008003A03194A
:100358002B295A292108123A0319B3295A292008A6
:10036800003A031926295A292208003A031968294C
:10037800013A03197229023A03197C29043A03192C
:100388008629083A03199029113A03199A29233A18
:100398000319A429473A0319AE295A290800AA3093
:1003A800831203138800A601A7010A128A1147269F
:1003B8000A128A118312031336080A128A11592560
:1003C8000A128A110A128A112F260A128A11831216
:1003D800031336080A128A1159250A128A110130A4
:1003E80083120313A6070318A70A0030A7072708D4
:1003F800803AFF0080307F02031D042A063026025F
:10040800031CD929831203138801033083120313B1
:10041800A5008A30A4005530A300A30B112AA40B11
:10042800112AA50B112A993083120313880003306F
:1004380083120313A5008A30A4005530A300A30B30
:10044800232AA40B232AA50B232A8312031388012A
:10045800A33083120313A4005430A300A30B322A41
:10046800A40B322A0000AA30831203138800320832
:100478000319532A033083120313A5008A30A400FA
:100488005530A300A30B462AA40B462AA50B462ADF
:1004980001308312031385020130B2023B2A88011E
:1004A800023083120313A5004530A400A930A3002D
:1004B800A30B5C2AA40B5C2AA50B5C2A663083126A
:1004C80003138800023083120313A5004530A400EB
:1004D800A930A300A30B6E2AA40B6E2AA50B6E2AC3
:1004E8008312031388010130B102B201080083129C
:1004F80003138C1D0F2B1412141B842A941F8E2A8D
:100508001308F000F1017008AD007108AE00141373
:100518009413141683160313941E1419D52A8312E0
:1005280003131308F000F1017008AD007108AE0064
:100538008C11141683160313141C9E2A831203139A
:100548001308F0007008F900790885007808031D81
:10055800B22A7908F0007008B600CB2A7803031D88
:10056800BA2A7908F0007008B500CB2A023078065C
:10057800031DCB2A7908F0007008B4003608031967
:10058800CB2A053036020318CB2AB801B80A013045
:10059800F0007008F80703307806031D0D2BF801EA
:1005A8000D2B941E141D0D2B831203131308F0003A
:1005B800F1017008AD007108AE0083160313141022
:1005C8007708031DEB2A831203133008F92A7703EF
:1005D800031DF22A760883120313F92A02307706DC
:1005E800031DFA2A831203132F0893000130F00029
:1005F8007008F707033077060319F70183121416FA
:100608001430F000F00B062B0000831603131418A7
:10061800092B83128C1173088A00720E8300FE0E58
:100628007E0E09008312031388010330831203131B
:10063800A2008A30A1005530A000A00B212BA10BED
:10064800212BA20B212B6630831203138800033061
:1006580083120313A2008A30A1005530A000A00B1A
:10066800332BA10B332BA20B332B831203138801DB
:10067800033083120313A2008A30A1005530A00072
:10068800A00B442BA10B442BA20B442BAA308312A2
:1006980003138800033083120313A2008A30A100D9
:1006A8005530A000A00B562BA10B562BA20B562B96
:1006B800831203138801033083120313A2008A30C4
:1006C800A1005530A000A00B672BA10B672BA20B34
:1006D800672B9930831203138800033083120313A6
:1006E800A2008A30A1005530A000A00B792BA10BE5
:1006F800792BA20B792B8312031388010330831201
:100708000313A2008A30A1005530A000A00B8A2B49
:10071800A10B8A2BA20B8A2B013083120313A00092
:100728002008B2070130A0002008850708008312BE
:1007380003138801033083120313A2008A30A10037
:100748005530A000A00BA62BA10BA62BA20BA62B05
:100758006630831203138800033083120313A20048
:100768008A30A1005530A000A00BB82BA10BB82BE4
:10077800A20BB82B831203138801033083120313CF
:10078800A2008A30A1005530A000A00BC92BA10BF4
:10079800C92BA20BC92BAA3083120313880003307C
:1007A80083120313A2008A30A1005530A000A00BC9
:1007B800DB2BA10BDB2BA20BDB2B83120313880192
:1007C800033083120313A2008A30A1005530A00021
:1007D800A00BEC2BA10BEC2BA20BEC2B663083129D
:1007E80003138800033083120313A2008A30A10088
:1007F8005530A000A00BFE2BA10BFE2BA20BFE2B4D
:10080800831203138801033083120313A2008A3072
:10081800A1005530A000A00B0F2CA10B0F2CA20B90
:100828000F2C83120313B301B30A080083120313B6
:100838008801033083120313A2008A30A1005530C7
:10084800A000A00B252CA10B252CA20B252C993040
:10085800831203138800033083120313A2008A3023
:10086800A1005530A000A00B372CA10B372CA20BF0
:10087800372C831203138801033083120313A20059
:100888008A30A1005530A000A00B482CA10B482CA1
:10089800A20B482CAA30831203138800033083125A
:1008A8000313A2008A30A1005530A000A00B5A2CD7
:1008B800A10B5A2CA20B5A2C831203138801033064
:1008C80083120313A2008A30A1005530A000A00BA8
:1008D8006B2CA10B6B2CA20B6B2C9930831203137E
:1008E8008800033083120313A2008A30A100553018
:1008F800A000A00B7D2CA10B7D2CA20B7D2C8312BC
:1009080003138801033083120313A2008A30A10065
:100918005530A000A00B8E2CA10B8E2CA20B8E2C78
:1009280083120313B301080083120313A0009F135B
:100938001F17CD2CC82C9F12B02C9F12B32C9F12BE
:10094800B62C9F12B92C9F12BC2C9F12C02C9F1240
:10095800C42C9F16C92C9F161F12BD2C9F161F1240
:10096800C12C9F161F12C52C9F161F16CA2C9F1626
:100978001F169F11C62C9F161F169F15CB2C9F164E
:100988001F169F151F15072D9F121F129F111F114C
:10099800072D2008F400F5017508003A0319D52C35
:1009A800C82C7408003A03199E2C013A03199F2C8D
:1009B800033A0319A12C013A0319A32C073A031986
:1009C800A52C013A0319A72C033A0319A92C013ABB
:1009D8000319AB2C0F3A0319AD2C013A0319AF2CAC
:1009E800033A0319B22C013A0319B52C073A031933
:1009F800B82C013A0319BB2C033A0319BF2C013A4E
:100A08000319C32CC82C831603139F139F121F129C
:100A1800831203131F140C139F149F1C0800112D1D
:100A280083120313A000332D0A30950008000C3000
:100A3800950008000E309500080012309500080057
:100A48001930950008001E309500080021309500E7
:100A58000800253095000800283095000800200877
:100A6800F400F5017508003A03193B2D182D740898
:100A7800003A0319182D0A3A03191B2D143A0319C1
:100A88001E2D333A0319212D773A0319242D223AC2
:100A98000319272DFF3A03192A2D113A03192D2D71
:100AA800223A0319302D182D0800F400822D023047
:100AB80083120313A2004530A100A930A000A00BA7
:100AC800632DA10B632DA20B632D0800A3308312A5
:100AD8000313A1005430A000A00B702DA10B702DA2
:100AE800000008006D3083120313A1001B30A00022
:100AF800A00B7C2DA10B7C2D812D0800740883127E
:100B08000313A000A1012108003A03198C2D972D89
:100B18002008013A03195B2D033A03196A2D013A9B
:100B28000319762D972D0800003083120313A300B4
:100B38000F30A2004230A1004030A0000A128A11F2
:100B480025210A128A1183120313880183160313BD
:100B58008801831203138601831603138601831603
:100B6800031789010F308312031389000F3083168E
:100B78000313890083120313850183160313850168
:100B880060308316031788000A128A11F9250A12A1
:100B98008A1105300A128A11982408008312031357
:100BA800A300E52D1E300A128A11142508005A30B8
:100BB8000A128A1114250800B4300A128A11142561
:100BC80008002308A100A2012208003A0319ED2D0C
:100BD800F82D2108013A0319D62D033A0319DB2D04
:100BE800013A0319E02DF82D0800831603130715A1
:100BF800C830920083120313971517159710171012
:100C0800971317131B309B00171697168C10921406
:100C1800121412158C1C122E8C100E2E8316031310
:100C2800071108008030831603139400740893009A
:100C38003630831203139400013083160313910096
:100C4800871507168B170B17831203138C1183163E
:100C580003138C15080006300A128A1198240A1208
:100C68008A11831203130C131E08A1002108F60031
:100C7800043083120313A2003D30A100A10B422EC1
:100C8800A20B422E080005300A128A1198240A1273
:100C98008A11831203130C131E08A1002108B00047
:100CA800043083120313A2003D30A100A10B5A2E79
:100CB800A20B5A2E080083120313A100A001211CC5
:100CC800692E7408F5007508A0070310F40D0310C9
:100CD800A10C2108031D632E2008080001340134EB
:04400E00D4E0FFFFFC
:00000001FF
