:020000040000FA
:060000000A128A110C280F
:10000800FE00030EF2000A08F3000A128A11992B67
:100018000A128A110F28F701F801F90183134D30EC
:1000280084005D300A128A15EF270A128A118301AB
:100038000A128A111F280A128A11D3260A128A1153
:100048000A3083120313A0000030A1005408BB003B
:10005800BC013B08A2003C08A3000A128A11DF2554
:100068000A128A11831203132008BD003D08BE003E
:100078000A30A4000030A5005408BB00BC013B08AE
:10008800A6003C08A7000A128A1176250A128A11CE
:10009800831203132408BD003D08BF000A30A000E6
:1000A8000030A1005508BB00BC013B08A2003C0879
:1000B800A3000A128A11DF250A128A118312031378
:1000C8002008BD003D08C0000A30A4000030A5008B
:1000D8005508BB00BC013B08A6003C08A7000A1253
:1000E8008A1176250A128A11831203132408BD0087
:1000F8003D08C1000A30A0000030A1005608BB002E
:10010800BC013B08A2003C08A3000A128A11DF25A3
:100118000A128A11831203132008BD003D08C20089
:100128000A30A4000030A5005608BB00BC013B08FB
:10013800A6003C08A7000A128A1176250A128A111D
:10014800831203132408BD003D08C3000430BB001C
:100158003B08A00001300A128A1191270A128A115D
:10016800831203134308303E0A128A11ED270A123C
:100178008A11831203134208303E0A128A11ED27AE
:100188000A128A113A300A128A11ED270A128A11C4
:10019800831203134108303E0A128A11ED270A120E
:1001A8008A11831203134008303E0A128A11ED2780
:1001B8000A128A113A300A128A11ED270A128A1194
:1001C800831203133F08303E0A128A11ED270A12E0
:1001D8008A11831203133E08303E0A128A11ED2752
:1001E8000A128A110A3083120313A0000030A100FA
:1001F8005A08BB00BC013B08A2003C08A3000A1235
:100208008A11DF250A128A11831203132008BD0000
:100218003D08C4000A30A4000030A5005A08BB00FD
:10022800BC013B08A6003C08A7000A128A117625E3
:100238000A128A11831203132408BD003D08C50061
:100248000430BB003B08A00002300A128A11912733
:100258000A128A112B300A128A116B270A128A1184
:10026800831203134508303E0A128A11ED270A1239
:100278008A11831203134408303E0A128A11ED27AB
:100288000A128A110B3083120313BD002630BC00FA
:100298005D30BB00BB0B4E29BC0B4E29BD0B4E2954
:1002A8000A128A11D5270A128A1183120313A00190
:1002B800A00A01300A128A1191270A128A11013004
:1002C8000A128A116B270A128A1102308312031349
:1002D800BB003B08A00002300A128A1191270A12BB
:1002E8008A1102300A128A11ED270A128A11831222
:1002F800031358080A128A1173240A128A118312E6
:100308000313BB003B08D300530884008313000881
:10031800BB00840A0008BC003B083C04031D952967
:1003280096299D2920300A128A11ED270A128A116E
:10033800A629530884000008303E0A128A11ED27C6
:100348000A128A11831203135308023E840083138E
:100358000008303E0A128A11ED270A128A11831208
:1003680003135308043E840083130008303E0A1226
:100378008A11ED270A128A11DF300A128A11ED2735
:100388000A128A1143300A128A11ED270A128A11B9
:100398000A3083120313BB003B08A00002300A1284
:1003A8008A1191270A128A1102300A128A11ED273E
:1003B8000A128A118312031357080A128A11732426
:1003C8000A128A1183120313BB003B08D300530897
:1003D800840083130008BB00840A0008BC003B08A3
:1003E8003C04031DF829F929002A20300A128A1131
:1003F800ED270A128A11092A530884000008303EA2
:100408000A128A11ED270A128A118312031353085C
:10041800023E840083130008303E0A128A11ED2739
:100428000A128A11831203135308043E84008313AB
:100438000008303E0A128A11ED270A128A11DF30AD
:100448000A128A11ED270A128A1143300A128A11F8
:10045800ED270A128A110B3083120313BD002630D0
:10046800BC005D30BB00BB0B372ABC0B372ABD0B69
:10047800372A0A128A11D5270A128A110A308312DA
:100488000313A0000030A1005C08BB00BC013B08BE
:10049800A2003C08A3000A128A11DF250A128A1159
:1004A800831203132008BD003D08C6000A30A400CB
:1004B8000030A5005C08BB00BC013B08A6003C0856
:1004C800A7000A128A1176250A128A1183120313C9
:1004D8002408BD003D08C700A001A00A01300A1287
:1004E8008A1191270A128A1120300A128A116B2761
:1004F8000A128A11831203134708303E0A128A111E
:10050800ED270A128A11831203134608303E0A1295
:100518008A11ED270A128A113D300A128A116B27B7
:100528000A128A110A3083120313A0000030A100B6
:100538005B08BB00BC013B08A2003C08A3000A12F0
:100548008A11DF250A128A11831203132008BD00BD
:100558003D08C8000A30A4000030A5005B08BB00B5
:10056800BC013B08A6003C08A7000A128A117625A0
:100578000A128A11831203132408BD003D08C9001A
:10058800A001A00A02300A128A1191270A128A11C0
:1005980035300A128A116B270A128A118312031343
:1005A8004908303E0A128A11ED270A128A1183126D
:1005B80003134808303E0A128A11ED270A128A11DD
:1005C8003D300A128A116B270A128A110B308312E6
:1005D8000313BD002630BC005D30BB00BB0BF22A04
:1005E800BC0BF22ABD0BF22A0A128A11D5270A126D
:1005F8008A110A3083120313A0000030A1005908A1
:10060800BB00BC013B08A2003C08A3000A128A11E7
:10061800DF250A128A11831203132008BD003D0842
:10062800CA000A30A4000030A5005908BB00BC016C
:100638003B08A6003C08A7000A128A1176250A1270
:100648008A11831203132408BD003D08CB006430CF
:10065800A4000030A5005908BB00BC013B08A60057
:100668003C08A7000A128A1176250A128A118312F9
:1006780003132408BD003D08CC00A001A00A0130E6
:100688000A128A1191270A128A1112300A128A1143
:100698006B270A128A11063083120313BB003B082A
:1006A800A00002300A128A1191270A128A116530B5
:1006B800831203135902031C622B632B6A2B4C0809
:1006C800303E0A128A11ED270A128A118312031387
:1006D8004B08303E0A128A11ED270A128A1183123A
:1006E80003134A08303E0A128A11ED270A128A11AA
:1006F800DF300A128A11ED270A128A110B30831291
:100708000313BD002630BC005D30BB00BB0B8A2B39
:10071800BC0B8A2BBD0B8A2B0A128A11D5270A1209
:100728008A1124280A128A110C280B1C9C2B9D2B39
:10073800AF2B831203130618A22BA32BAE2B013069
:10074800F1007108F80704307806031DAC2BAD2BB7
:10075800AE2BF8010B10831203138C1DB42BB52B91
:100768006C2C0A128A15F7270A128A11F1007108EF
:10077800F7007D307706031DC22BC32BC42BF9016C
:100788007903031DC82BC92BD52B00300A128A15F3
:10079800E2270A128A117708F100710883120313FD
:1007A800D60002307906031DDA2BDB2BE72B00304D
:1007B8000A128A15E2270A128A117708F1007108CD
:1007C80083120313D50003307906031DEC2BED2BA0
:1007D800F92B00300A128A15E2270A128A117708C3
:1007E800F100710883120313D40004307906031D45
:1007F800FE2BFF2B0B2C00300A128A15E2270A1257
:100808008A117708F100710883120313D8000530A4
:100818007906031D102C112C1D2C00300A128A1584
:10082800E2270A128A117708F1007108831203136C
:10083800D70006307906031D222C232C2F2C0030DC
:100848000A128A15E2270A128A117708F10071083C
:1008580083120313D90007307906031D342C352C75
:10086800412C00300A128A15E2270A128A117708E9
:10087800F100710883120313DA0008307906031DAA
:10088800462C472C532C00300A128A15E2270A12EC
:100898008A117708F100710883120313DC0009300C
:1008A8007906031D582C592C652C00300A128A151C
:1008B800E2270A128A117708F100710883120313DC
:1008C800DB00831203138C110130F1007108F90762
:1008D80073088A00720E8300FE0E7E0E09008312D2
:1008E8000313BA00343084000630FF0083138001FC
:1008F800840AFF0B7A2C6430A4000030A5003A0863
:10090800AC00AD012C08A6002D08A7000A128A1118
:1009180076250A128A11831203132508B5002408C4
:10092800B4003408AC002C08B3000A30A40000302E
:10093800A5003308AC00AD012C08A0002D08A100CB
:100948009C30A200FF30A3000A128A1144270A1221
:100958008A11831203133A082007A60021080318F6
:10096800210AA7000A128A1176250A128A1183120F
:1009780003132508B7002408B6003608AC002C0875
:10098800B2003308AC00AD012C08A0002D08A1006E
:100998009C30A200FF30A3000A128A1144270A12D1
:1009A8008A11831203133A082007AE00210803189E
:1009B800210AAF003208B000B1013008A0003108A8
:1009C800A100F630A200FF30A3000A128A114427C2
:1009D8000A128A118312031320082E07B80021086F
:1009E8000318210A2F07B900343008001A3083127F
:1009F8000313A100F730A000A00B002DA10B002DC0
:100A0800052D30300A128A1115270A128A1107306B
:100A180083120313A1007C30A000A00B112DA10BA1
:100A2800112D000030300A128A1115270A128A1176
:100A3800203083120313A000A00B202D00003030BB
:100A48000A128A1115270A128A11203083120313F9
:100A5800A000A00B2D2D000038300A128A1115278E
:100A68000A128A11103083120313A000A00B3A2D2A
:100A78003D2D08300A128A1115270A128A111030E2
:100A880083120313A000A00B472D4A2D01300A1230
:100A98008A1115270A128A11043083120313A10040
:100AA800E330A000A00B562DA10B562D5B2D063070
:100AB8000A128A1115270A128A1110308312031399
:100AC800A000A00B652D682D0C300A128A1115277D
:100AD8000A128A11103083120313A000A00B722D82
:100AE800752D080083120313A901A51F7C2D7D2DE8
:100AF800842DA409A509A40A0319A50AA901A90A0C
:100B0800A71F872D882D912DA609A709A60A0319C5
:100B1800A70A0130F6007608A906AA01AB01240845
:100B280025040319982D992DD02DA801A80AA72DC1
:100B380001300310A40DA50DFF3E031D9D2D0130AE
:100B4800F6007608A807A51FAA2DAB2D9C2D01300D
:100B58000310AA0DAB0DFF3E031DAC2D250827027F
:100B6800031DB82D24082602031CBB2DBC2DC32D44
:100B78002408A6022508031CA703A7022A1401308B
:100B88000310A50CA40CFF3E031DC42D0130A802C0
:100B9800031DCF2DD02DAB2D29080319D42DD52D0C
:100BA800DA2DAA09AB09AA0A0319AB0A2B08A50072
:100BB8002A08A4000800F60183120313A31FE52DD9
:100BC800E62DED2DA209A309A20A0319A30AF6012D
:100BD800F60AA11FF02DF12DF62DA009A109A00AF2
:100BE8000319A10A200821040319FB2DFC2D2B2E23
:100BF800F501F50A0A2E01300310A00DA10DFF3EE4
:100C0800031D002E0130F4007408F507A11F0D2EF6
:100C18000E2EFF2D21082302031D142E2008220268
:100C2800031C172E182E1E2E2008A2022108031CB2
:100C3800A303A30201300310A10CA00CFF3E031D67
:100C48001F2E0130F502031D2A2E2B2E0E2E76089C
:100C580003192F2E302E352EA209A309A20A031933
:100C6800A30A2308A1002208A0000800F6006A2EA3
:100C7800831603130F138F120F12831603130F1308
:100C88008F120F16831603130F138F160F12831666
:100C980003130F138F160F16831603130F178F12D4
:100CA8000F12831603130F178F120F1683160313D1
:100CB8000F178F160F12831603130F178F160F16A1
:100CC800831603130F178F160F128C2E7608F40055
:100CD800F5017508003A0319722E642E7408003A5B
:100CE80003193C2E013A0319412E033A0319462EE3
:100CF800013A03194B2E073A0319502E013A0319EA
:100D0800552E033A03195A2E013A03195F2E642E01
:100D1800080006308A000408840A82070034413437
:100D28006D346234693465346E34743465343A34FD
:100D380020345334753465346C346F343A340034A9
:100D480049346E3463346C3469346E3461346334DA
:100D580069346F346E343A342034003441346434A6
:100D680065346C3461346E34743465343A34203408
:100D78000034483475346D34653464346134643413
:100D88003A34203400344134743472346134733466
:100D98003A3420340034203463346D34003406305F
:100DA8000A128A113A260A128A1183120313880139
:100DB8008316031388018312031385018316031313
:100DC8008501831603178801831203138601FF30F8
:100DD800831603138600831603178901FF308316D1
:100DE80003139500811303309600F401F501F60111
:100DF80025300A128A11B7270A128A118B170B1786
:100E0800831603138C15831203138C110A128A118B
:100E1800FA240A128A110A128A11D5270A128A118B
:100E28000800F6008312031305100730F5007D3023
:100E3800F400F40B1D2FF50B1D2F831203138514DB
:100E48000730F5007D30F400F40B282FF50B282F20
:100E580076088312031388000730F5007D30F4000C
:100E6800F40B342FF50B342F83120313851007303E
:100E7800F5007D30F400F40B3F2FF50B3F2F0800F1
:100E8800F401F50183120313201C4B2F4C2F522F12
:100E98002208F4070318F50A2308F50701300310A0
:100EA800A20DA30DFF3E031D532F01300310A10C0B
:100EB800A00CFF3E031D5A2F20082104031D652F97
:100EC800662F462F7508A1007408A0000800831239
:100ED8000313A100A001832F2008210784000A1210
:100EE8008A118D260A128A110A128A11ED270A120E
:100EF8008A110130F600760883120313A007200830
:100F0800210784000A128A118D260A128A11003AD2
:100F1800031D8F2F902F702F080083120313A20038
:100F28002203031D982F992FA52F20087F3EA1008B
:100F38002108A30023080A128A1115270A128A1108
:100F4800B62F02302206031DAA2FAB2FB62F20087A
:100F5800BF3EA1002108A30023080A128A11152701
:100F68000A128A11080083120313A00083160313C0
:100F7800871283120313201DC22FC32FC92F76088F
:100F88008316031394008715CF2F740876048316ED
:100F98000313940087118312031320087504940027
:100FA800080000300A128A1115270A128A11013026
:100FB8000A128A1115270A128A110630831203139E
:100FC800A1002F30A000A00BE72FA10BE72FEC2FDB
:100FD8000800F500831203130514750888008514AA
:100FE8000D30F400F40BF62F83120313851008005C
:101FC400F0007008831203139300080083160313B0
:101FD400141CED2FEE2FE82F080064008001840A02
:101FE4000406031900340406F02F0A128A15E827A0
:0C1FF4000A128A15831203131308080058
:04400E00D4E0FFFFFC
:00000001FF
