:020000040000FA
:060000000A128A110C280F
:10000800FE00030EF0000A08F1000A168A11AC2E51
:100018000A128A110F2883136030FD000730FE0092
:10002800F530FF00563084000A168A11D2260A12CB
:100038008A114330840056300A168A119526FA012F
:10004800FB0183010A128A154D2F83120313BA008C
:10005800F32B0430B7003708A80002300A128A11BF
:10006800ED260A128A11033083120313B7003708EA
:10007800A80001300A128A1115260800F50101307E
:100088000A128A15C2200A128A1129300A168A1100
:1000980086270A128A11023083120313B700370821
:1000A800F50002300A128A15C2200A128A1102309B
:1000B8000A168A119D260A128A11831203135208FE
:1000C8000A128A1523240A128A1183120313B7000D
:1000D8003708D0005008840083130008B700840A4A
:1000E8000008B80037083804031D7C282030802811
:1000F800500884000008303E0A168A119D260A120C
:100108008A11831203135008023E840083130008E7
:10011800303E0A168A119D260A128A118312031389
:100128005008043E840083130008303E0A168A11E2
:100138009D260A128A11DF300A168A119D260A1294
:100148008A1143300A168A119D260A128A110A302A
:1001580083120313B7003708F50002300A128A1514
:10016800C2200A128A1102300A168A119D260A1222
:100178008A118312031351080A128A1523240A12BA
:100188008A1183120313B7003708D000500884007F
:1001980083130008B700840A0008B8003708380439
:1001A800031DD8282030DC28500884000008303E81
:1001B8000A168A119D260A128A11831203135008FF
:1001C800023E840083130008B700840A0008B800C0
:1001D80037083804031DFD28500884000008B700BC
:1001E800840A0008B80037083804031DFD282030A9
:1001F80002295008023E84000008303E0A168A117F
:100208009D260A128A11831203135008043E8400A3
:1002180083130008303E0A168A119D260A128A1195
:10022800DF300A168A119D260A128A1143300A16EF
:100238008A119D260800F50101300A128A15C2208C
:100248000A128A1162300A168A1186270A128A113E
:10025800053083120313B7003708F50002300A127D
:100268008A15C2200A128A11053083120313B700B7
:100278003708F50002300A128A15C2200A128A11BC
:10028800283083120313580203184F2988300A169E
:100298008A11862708005B305802031C5C299630B7
:1002A800580203185C297C300A168A118627080030
:1002B800B5305802031C08003A300A168A118627FE
:1002C8000800F50101300A128A15C2200A128A11A3
:1002D80093300A168A1186270A128A11043083126B
:1002E8000313B7003708F50002300A128A15C22036
:1002F8000A128A1103300A168A119D260A128A11D7
:1003080020300A168A119D260A128A1120300A16F0
:100318008A119D260A128A1135300A168A119D26DD
:100328000A128A1125300A168A119D260800F5013D
:1003380001300A128A15C2200A128A11A7300A1639
:100348008A1186270A128A1100300A168A119D26F8
:100358000A128A1155300A168A1186270A128A113A
:10036800023083120313B7003708F50002300A126F
:100378008A15C2200A128A116430831203135702A5
:100388000318092A0A30A0000030A1005708B70056
:10039800B8013708A2003808A3000A128A15982164
:1003A8000A128A11831203132008B9003908BF0002
:1003B8000A30F2000030F3005708B700B8013708D8
:1003C800F4003808F5000A128A154D210A128A111C
:1003D800720883120313B9003908BC003F08031DD3
:1003E800F7292030F9293F08303E0A168A119D2640
:1003F8000A128A11831203133C08303E0A168A1126
:100408009D260A128A11B1300A2AA2300A168A11C8
:1004180086270A128A11073083120313B700370898
:10042800F50002300A128A15C2200A128A117C309D
:100438000A168A119D260A128A110B308312031399
:10044800B7003708F50002300A128A15C2200A12CE
:100458008A1164308312031356020318792A0A306A
:10046800A0000030A1005608B700B8013708A20064
:100478003808A3000A128A1598210A128A118312D1
:1004880003132008B9003908C0000A30F200003010
:10049800F3005608B700B8013708F4003808F5002B
:1004A8000A128A154D210A128A117208831203133F
:1004B800B9003908BD004008031D642A2030662AA7
:1004C8004008303E0A168A119D260A128A118312A4
:1004D80003133D08303E0A168A119D260A128A1116
:1004E800B1300A168A1186270800A2300A168A1126
:1004F80086270800F50101300A128A15C2200A125F
:100508008A116F300A168A1186270A128A11F50194
:10051800F50A02300A128A15C2200A128A118312B9
:1005280003135308303E0A168A119D260A128A11AF
:10053800083083120313B7003708F50002300A1297
:100548008A15C2200A128A11831203134D08303EFD
:100558000A168A119D260A128A11AB300A168A11C8
:1005680086270A128A11831203134C08303E0A1692
:100578008A119D260800F50102300A128A15C22048
:100588000A128A1104300A168A119D260A128A1143
:10059800831203135308303E0A168A119D26080059
:1005A800F50102300A128A15C2200A128A11203077
:1005B8000A168A119D260A128A110730831203131C
:1005C800B7003708F50002300A128A15C2200A124D
:1005D8008A1104300A168A119D260A128A1183127A
:1005E80003134D08303E0A168A119D26080007306D
:1005F800B7003708F50002300A128A15C2200A121D
:100608008A1120300A168A119D260A128A110A3088
:1006180083120313B7003708F50002300A128A154F
:10062800C2200A128A1104300A168A119D260A125B
:100638008A11831203134C08303E0A168A119D262C
:1006480008000A30B7003708F50002300A128A1588
:10065800C2200A128A1120300A168A119D260A120F
:100668008A110F3083120313B7003708F5000230E0
:100678000A128A15C2200A128A1101300A168A1132
:100688009D260800F50101300A128A15C2200A12B7
:100698008A1148300A168A1186270A128A110A1600
:1006A8008A1177260A128A11303083120313AD009B
:1006B8000030AE000A168A1185260A128A118312A2
:1006C80003135308B700B8013708AD003808AE0067
:1006D8000A168A1185260A128A110A168A117E2696
:1006E8000A128A11213083120313B8007530B7003B
:1006F800B70B7C2BB80B7C2B812B0A168A1177261B
:100708000A128A11303083120313AD000030AE0094
:100718000A168A1185260A128A11831203134D08B4
:10072800B700B8013708AD003808AE000A168A11BC
:1007380085260A128A110A168A117E260A128A1139
:10074800213083120313B8007530B700B70BAA2BFA
:10075800B80BAA2BAF2B0A168A1177260A128A1110
:10076800303083120313AD000030AE000A168A1130
:1007780085260A128A11831203134C08B700B801A0
:100788003708AD003808AE000A168A1185260A1205
:100798008A110A168A117E260A128A11A330831238
:1007A8000313B8005430B700B70BD82BB80BD82BAD
:1007B80000000A168A11F42683120313D5010800D3
:1007C8000930B7003708F50001300A128A15C2202F
:1007D8000A128A119C300A168A11862708003A08DC
:1007E800B700B8013808003A0319FB2BE42B370887
:1007F800003A03192D28013A03194228033A03192C
:100808001F29013A03196529073A03199B29013A57
:1008180003197E2A033A0319BF2A013A0319D42A75
:100828000F3A0319FB2A013A0319252B033A031936
:10083800462BE42B08000A168A1177260A128A1119
:10084800D03083120313AD000030AE000A168A11AF
:1008580085260A128A11003083120313AD00AE00F8
:100868000A168A1185260A128A110A168A117E2604
:100878000A128A110A168A1177260A128A11D130A9
:1008880083120313AD000030AE000A168A118526C4
:100898000A128A110030F200F3000A168A11D427CE
:1008A8000A128A1172080A168A110A270A128A116C
:1008B80083120313AF002F08D4000A168A117E266C
:1008C8000A128A110A168A1177260A128A11D0305A
:1008D80083120313AD000030AE000A168A11852674
:1008E8000A128A11013083120313AD000030AE00E2
:1008F8000A168A1185260A128A110A168A117E2674
:100908000A128A110A168A1177260A128A11D13018
:1009180083120313AD000030AE000A168A11852633
:100928000A128A110030F200F3000A168A11D4273D
:100938000A128A1172080A168A110A270A128A11DB
:1009480083120313AF002F08DF000A168A117E26D0
:100958000A128A110A168A1177260A128A11D030C9
:1009680083120313AD000030AE000A168A118526E3
:100978000A128A11023083120313AD000030AE0050
:100988000A168A1185260A128A110A168A117E26E3
:100998000A128A110A168A1177260A128A11D13088
:1009A80083120313AD000030AE000A168A118526A3
:1009B8000A128A110030F200F3000A168A11D427AD
:1009C8000A128A1172080A168A110A270A128A114B
:1009D80083120313AF002F08DE000A168A117E2641
:1009E8000A128A110A168A1177260A128A11D03039
:1009F80083120313AD000030AE000A168A11852653
:100A08000A128A11033083120313AD000030AE00BE
:100A18000A168A1185260A128A110A168A117E2652
:100A28000A128A110A168A1177260A128A11D130F7
:100A380083120313AD000030AE000A168A11852612
:100A48000A128A110030F200F3000A168A11D4271C
:100A58000A128A1172080A168A110A270A128A11BA
:100A680083120313AF002F08DD000A168A117E26B1
:100A78000A128A110A168A1177260A128A11D030A8
:100A880083120313AD000030AE000A168A118526C2
:100A98000A128A11043083120313AD000030AE002D
:100AA8000A168A1185260A128A110A168A117E26C2
:100AB8000A128A110A168A1177260A128A11D13067
:100AC80083120313AD000030AE000A168A11852682
:100AD8000A128A110030F200F3000A168A11D4278C
:100AE8000A128A1172080A168A110A270A128A112A
:100AF80083120313AF002F08DC000A168A117E2622
:100B08000A128A110A168A1177260A128A11D03017
:100B180083120313AD000030AE000A168A11852631
:100B28000A128A11053083120313AD000030AE009B
:100B38000A168A1185260A128A110A168A117E2631
:100B48000A128A110A168A1177260A128A11D130D6
:100B580083120313AD000030AE000A168A118526F1
:100B68000A128A110030F200F3000A168A11D427FB
:100B78000A128A1172080A168A110A270A128A1199
:100B880083120313AF002F08DB000A168A117E2692
:100B98000A128A110A168A1177260A128A11D03087
:100BA80083120313AD000030AE000A168A118526A1
:100BB8000A128A11063083120313AD000030AE000A
:100BC8000A168A1185260A128A110A168A117E26A1
:100BD8000A128A110A168A1177260A128A11D13046
:100BE80083120313AD000030AE000A168A11852661
:100BF8000A128A110030F200F3000A168A11D4276B
:100C08000A128A1172080A168A110A270A128A1108
:100C180083120313AF002F08DA000A168A117E2602
:100C2800080083120313AC000A30F2000030F3000E
:100C38005C08A900AA012908F4002A08F5000A128C
:100C48008A154D210A128A11720883120313AB0008
:100C58002B08AD000A30A0000030A1005C08A900F4
:100C6800AA012908A2002A08A3000A128A159821B5
:100C78000A128A11831203132008AB002B08AE0056
:100C88000A30F2000030F3005B08A900AA01290825
:100C9800F4002A08F5000A128A154D210A128A1151
:100CA800720883120313AB002B08AF000A30A000B0
:100CB8000030A1005B08A900AA012908A2002A089F
:100CC800A3000A128A1598210A128A1183120313A3
:100CD8002008AB002B08B0000A30F2000030F30007
:100CE8005A08A900AA012908F4002A08F5000A12DE
:100CF8008A154D210A128A11720883120313AB0058
:100D08002B08B1000A30A0000030A1005A08A90041
:100D1800AA012908A2002A08A3000A128A15982104
:100D28000A128A11831203132008AB002B08B200A1
:100D38002808A9002908F5002C080A128A15C220DB
:100D48000A128A11831203132E08303E0A168A11DA
:100D58009D260A128A11831203132D08303E0A16A3
:100D68008A119D260A128A112F300A168A119D2689
:100D78000A128A11831203133008303E0A168A11A8
:100D88009D260A128A11831203132F08303E0A1671
:100D98008A119D260A128A112F300A168A119D2659
:100DA8000A128A11AE300A168A1186270A128A1187
:100DB800831203133208303E0A168A119D260A123E
:100DC8008A11831203133108303E0A168A119D26B0
:100DD800080083120313AC000A30F2000030F3005D
:100DE8005408A900AA012908F4002A08F5000A12E3
:100DF8008A154D210A128A11720883120313AB0057
:100E08002B08AD000A30A0000030A1005408A9004A
:100E1800AA012908A2002A08A3000A128A15982103
:100E28000A128A11831203132008AB002B08AE00A4
:100E38000A30F2000030F3005F08A900AA0129086F
:100E4800F4002A08F5000A128A154D210A128A119F
:100E5800720883120313AB002B08AF000A30A000FE
:100E68000030A1005F08A900AA012908A2002A08E9
:100E7800A3000A128A1598210A128A1183120313F1
:100E88002008AB002B08B0000A30F2000030F30055
:100E98005E08A900AA012908F4002A08F5000A1228
:100EA8008A154D210A128A11720883120313AB00A6
:100EB8002B08B1000A30A0000030A1005E08A9008C
:100EC800AA012908A2002A08A3000A128A15982153
:100ED8000A128A11831203132008AB002B08B200F0
:100EE8002808A9002908F5002C080A128A15C2202A
:100EF8000A128A11831203133208303E0A168A1125
:100F08009D260A128A11831203133108303E0A16ED
:100F18008A119D260A128A113A300A168A119D26CC
:100F28000A128A11831203133008303E0A168A11F6
:100F38009D260A128A11831203132F08303E0A16BF
:100F48008A119D260A128A113A300A168A119D269C
:100F58000A128A11831203132E08303E0A168A11C8
:100F68009D260A128A11831203132D08303E0A1691
:100F78008A119D26080028308312031394008316D3
:100F880003139101831203132608AA002708AB0054
:100F98002808AC002908AD0002300310AA0DAB0DDB
:100FA800AC0DAD0DFF3E031DD12F2D08F5002C080B
:100FB800F4002B08F3002A08F2000030F9003D3055
:100FC800F8000930F7000030F6000A128A15F321FC
:100FD8007208FF3E831603139300940187150716C2
:100FE8000800663466340434053414340334063493
:060FF8000534103415342D
:1010000008308A000408840A8207003404340A3451
:101010000A341134113411340E34003404340A34D7
:101020000A340E340E341F341F340E3402340434A8
:1010300000340E3401340F3411340F3400340834CA
:101040000C340A3409340A340C34083400340834BB
:101050000C340E340F340E340C34083441346D34F7
:101060006234693465346E34743465343A3420340F
:101070005334753465346C346F343A340034453449
:101080004D3445345234473445344E344334493476
:101090004134213420342034003449344E3449342E
:1010A0004334493441344E3444344F342E342E3496
:1010B0002E34003473343A3420347C3420344634B3
:1010C000723465346E34743465343A3400344934DF
:1010D0006E3463346C3469346E346134633469342F
:1010E0006F346E343A34003454346F346D346134B8
:1010F000723420346434613474346F3473343A3469
:101100000034503465346C346934673472346F346D
:101110002134203420342034003445347334743482
:10112000613462346C34653420342034203400342B
:10113000483475346D3465346434613464343A341D
:1011400000344534523452344F34523400342D3448
:101150002D342D342D340034413474347234003441
:1011600078342034003432343034003463346D3415
:101170000034831603131419B92811081F390319F1
:101180000800B928F800DD287508803EF6007608CA
:10119000F90079080A128A15EE2008007508C03E89
:1011A000F6007608F90079080A128A15EE20080080
:1011B00080300A128A15EE2008007808F600F70140
:1011C0007708003A0319E528D8287608013A031968
:1011D000C428033A0319CE28D8280800F400831243
:1011E000031305100730F3007D30F200F20BF628F0
:1011F000F30BF6288312031385140730F3007D30B8
:10120000F200F20B0129F30B012974088312031376
:1012100088000730F3007D30F200F20B0D29F30B4C
:101220000D298312031385100730F3007D30F2007F
:10123000F20B1829F30B18290800F9000A30831261
:101240000313A0000030A1007908A800A901280814
:10125000A2002908A3000A128A1598210A128A15E9
:10126000831203132008AA0004300310AA0DFF3EC6
:10127000031D35290A30F2000030F3007908AB0075
:10128000AC012B08F4002C08F5000A128A154D2138
:101290007208831203132A070800F801F51F572963
:1012A000F409F509F40A0319F50AF801F80AF31F1D
:1012B0005E29F209F309F20A0319F30A72087304AA
:1012C00003198B29F701F70AF31B72290130031068
:1012D000F20DF30DFF3E031D67290130F60076087D
:1012E000F707642973087502031D782972087402D0
:1012F000031C80297208F4027308031CF503F5022D
:1013000001300310F30CF20CFF3E031D8129013064
:10131000F702031D7229780803199329F409F509C6
:10132000F40A0319F50A7508F3007408F2000800BE
:1013300083120313A501A11FA429A009A109A00AD2
:101340000319A10AA501A50AA31FAF29A209A30990
:10135000A20A0319A30A0130F8007808A506A6011D
:10136000A701200821040319E629A401A40AA11B4E
:10137000C52901300310A00DA10DFF3E031DBA29A0
:101380000130F8007808A407B72901300310A60D32
:10139000A70DFF3E031DC62921082302031DD229E4
:1013A00020082202031CDB292008A2022108031CBA
:1013B000A303A302261401300310A10CA00CFF3ECE
:1013C000031DDC290130A402031DC52925080319CA
:1013D000EE29A609A709A60A0319A70A2708A1004A
:1013E0002608A0000800003083120313A400003078
:1013F000A3000030A2000030A1007508740473043B
:10140000720403194A2AA501A50AF51B152A013001
:10141000A0000310F20DF30DF40DF50DA00B092A39
:101420000130A0002008A507052A0130A000031004
:10143000A10DA20DA30DA40DA00B172A750879020A
:10144000031D2C2A74087802031D2C2A73087702C6
:10145000031D2C2A72087602031C3D2A7208F6022C
:101460007308031C730FF7027408031C740FF8024F
:101470007508031C750FF902211401300310F50CD7
:10148000F40CF30CF20CFF3E031D3E2A0130A502C2
:10149000031D152A2408F5002308F4002208F30090
:1014A0002108F20008001A30F600F830F500F50BBC
:1014B000572AF60B572A000030300A128A15EE2000
:1014C0000A128A150730F6007D30F500F50B662A02
:1014D000F60B662A30300A128A15EE200A128A1597
:1014E0002130F500F50B722A30300A128A15EE20F1
:1014F0000A128A152130F500F50B7C2A38300A12C1
:101500008A15EE200A128A151130F500F50B862A8D
:10151000000008300A128A15EE200A128A151130CE
:10152000F500F50B912A000001300A128A15EE2011
:101530000A128A150430F600E430F500F50B9E2AF5
:10154000F60B9E2A000006300A128A15EE200A12B7
:101550008A151130F500F50BAB2A00000C300A1289
:101560008A15EE200A128A151130F500F50BB62AFD
:10157000000008007B03031D172B7A08031D172B9F
:1015800083120313861C002B172B0130F7007708FA
:10159000D30704305302031C132BD301D30A132B9C
:1015A0000130F7007708CD0709304D02031C132BDB
:1015B000CD01CD0A132B0130F7007708CC07093095
:1015C0004C02031C132BCC01CC0A132B0A168A11D4
:1015D000F4260A128A150430F8003D30F700F70BA4
:1015E000EF2AF80BEF2AF42A0130F700770883126C
:1015F0000313D50706305502031C132BD501132BFB
:101600005508F700F8017808003A0319082BE62A74
:101610007708063A0319C52A013A0319D02A0F3A66
:101620000319DB2AE62AFB01FA01FA0A8B157A0371
:10163000031D080083120313861C08000430F80001
:101640003D30F700F70B222BF80B222B272BFA014A
:101650000800F400831203139F131F175E2B592BEE
:101660009F12412B9F12442B9F12472B9F124A2BF4
:101670009F124D2B9F12512B9F12552B9F165A2BA9
:101680009F161F124E2B9F161F12522B9F161F12B2
:10169000562B9F161F165B2B9F161F169F11572B3D
:1016A0009F161F169F155C2B9F161F169F151F1543
:1016B000982B9F121F129F111F11982B7408F20074
:1016C000F3017308003A0319662B592B7208003A8C
:1016D00003192F2B013A0319302B033A0319322B2C
:1016E000013A0319342B073A0319362B013A03192F
:1016F000382B033A03193A2B013A03193C2B0F3AC2
:1017000003193E2B013A0319402B033A0319432BCB
:10171000013A0319462B073A0319492B013A0319D9
:101720004C2B033A0319502B013A0319542B592B14
:10173000831603139F139F121F12831203131F1488
:101740000C139F149F1C0800A22B0A168A117726DF
:101750000A128A15313083120313AD000030AE0037
:101760000A168A1185260A128A150030F200F30043
:101770000A168A11D4270A128A15720883120313D3
:10178000AF002F08D7000A168A117E260A128A1582
:10179000213083120313B0007530AF00AF0BCE2B96
:1017A000B00BCE2BD32B0A168A1177260A128A1574
:1017B000313083120313AD000030AE000A168A11D7
:1017C00085260A128A150030F200F3000A168A11E3
:1017D000D4270A128A15720883120313AF002F0848
:1017E000D6000A168A117E260A128A152130831223
:1017F0000313B0007530AF00AF0BFC2BB00BFC2B0C
:10180000012C0A168A1177260A128A1531308312A2
:101810000313AD000030AE000A168A1185260A12A5
:101820008A150030F200F3000A168A11D4270A1232
:101830008A15720883120313AF002F08CE000A1610
:101840008A117E26080083120313B600303084000C
:101850000630FF0083138001840AFF0B2A2C6430BA
:10186000A0000030A1003608A800A9012808A200A5
:101870002908A3000A128A1598210A128A158312D0
:1018800003132108B1002008B0003008A800280880
:10189000AF000A30A0000030A1002F08A800A90165
:1018A0002808F2002908F3009C30F400FF30F5000E
:1018B0000A168A1165270A128A158312031336083D
:1018C0007207A20073080318730AA3000A128A158C
:1018D00098210A128A15831203132108B3002008E5
:1018E000B2003208A8002808AE002F08A800A901FD
:1018F0002808F2002908F3009C30F400FF30F500BE
:101900000A168A1165270A128A15831203133608EC
:101910007207AA0073080318730AAB002E08AC0004
:10192000AD012C08F2002D08F300F630F400FF3072
:10193000F5000A168A1165277208831203132A0715
:10194000B40073080318730A2B07B5003030080081
:101950008316031386010030F5000F30F400423087
:10196000F3004030F2000A128A1544250A128A1543
:101970000630831603138600831603178901063089
:101980008316031395008113063096008B158B1771
:101990008801831203138501831603138501073021
:1019A000890070308316031788000A128A155322A3
:1019B0000A128A15113083120313B1003108F500A1
:1019C00000300A168A11A8270A128A1521308312BC
:1019D0000313B1003108F50001300A168A11A82757
:1019E0000A128A15093083120313B1003108F50079
:1019F00002300A168A11A8270A128A1501308312AA
:101A00000313B1003108F50003300A168A11A82724
:101A10000A128A15193083120313B1003108F50038
:101A200004300A168A11A8270A128A150A168A1182
:101A3000F4260A128A158030F2002530F3000A16C7
:101A40008A11DF260A128A15003083120313A900B7
:101A50000130A8008630A700A030A6000A128A1123
:101A6000BF270A128A150A128A159C260A128A159D
:101A7000213083120313B2007530B100B10B3E2D3B
:101A8000B20B3E2D432D0800802D703083160313BA
:101A90008F040800831603130F088F3960388F00F6
:101AA0000800831603130F088F3950388F00080081
:101AB000831603130F088F3940388F0008008316F0
:101AC00003130F088F3930388F0008008316031373
:101AD0000F088F3920388F000800831603130F0872
:101AE0008F3910388F0008008F30831603138F054D
:101AF0000800831603130F088F3960388F00080021
:101B00007508003A0319D52D792D73087D3A03190C
:101B10008A2D792D7208003A0319742D792D7308D6
:101B2000E83A0319942D792D7208483A03196D2D5E
:101B3000792D7308D03A03199E2D792D7208903AA9
:101B40000319662D792D7308A13A0319A82D792D53
:101B50007208203A03195F2D792D7308423A031950
:101B6000B22D792D7208403A0319582D792D73083A
:101B7000843A0319BC2D792D7208803A0319512D2E
:101B8000792D7308093A0319C62D792D7208003A88
:101B900003194A2D792D7308123A0319D02D792D86
:101BA0007208003A0319452D792D7408003A03197B
:101BB000852D013A03198F2D023A0319992D043A04
:101BC0000319A32D083A0319AD2D113A0319B72DA6
:101BD000233A0319C12D473A0319CB2D792D08005B
:101BE0007B03031D872E831203134F08031D872ECB
:101BF000061D682E812E0630592EF50102300A127C
:101C00008A15C2200A128A1501300A168A119D26E9
:101C10000A128A15213083120313A1007530A00027
:101C2000A00B102EA10B102E152E0730572E0730AB
:101C3000A0002008F50002300A128A15C2200A12FC
:101C40008A1501300A168A119D260A128A1521303A
:101C500083120313A1007530A000A00B2D2EA10B41
:101C60002D2E322E0830572E0A30A0002008F50005
:101C700002300A128A15C2200A128A1501300A1689
:101C80008A119D260A128A15213083120313A1009E
:101C90007530A000A00B4A2EA10B4A2E4F2E093002
:101CA000572E0A168A11F4260A128A150A30831250
:101CB0000313A0002008D500812E043083120313E3
:101CC000A1003D30A000A00B632EA10B632E812E3E
:101CD0005508A000A1012108003A0319702E5D2EBD
:101CE0002008053A0319FB2D033A0319FD2D013A8B
:101CF0000319172E0F3A0319342E013A0319512EE6
:101D00005D2EFB0183120313CF01CF0A8B158312C3
:101D100003134F03031D0800061D0800043083123F
:101D20000313A1003D30A000A00B942EA10B942E14
:101D300083120313CF0108000A168A1177260A12AC
:101D40008A15D03083120313AD000030AE000A169E
:101D50008A1185260A128A15003083120313AD00FA
:101D6000AE000A168A1185260A128A1583120313F9
:101D700054080A128A151D210A128A1583120313A8
:101D8000AF00B0012F08AD003008AE000A168A116E
:101D900085260A128A15831203135F080A128A1510
:101DA0001D210A128A1583120313AF00B0012F08F8
:101DB000AD003008AE000A168A1185260A128A156F
:101DC000831203135E080A128A151D210A128A154E
:101DD00083120313AF00B0012F08AD003008AE002E
:101DE0000A168A1185260A128A15831203135D08C2
:101DF0000A128A151D210A128A1583120313AF00D5
:101E0000B0012F08AD003008AE000A168A118526F1
:101E10000A128A15831203135C080A128A151D21FF
:101E20000A128A1583120313AF00B0012F08AD0008
:101E30003008AE000A168A1185260A128A15831206
:101E400003135B080A128A151D210A128A158312D0
:101E50000313AF00B0012F08AD003008AE000A1622
:101E60008A1185260A128A15831203135A080A1248
:101E70008A151D210A128A1583120313AF00B001BF
:101E80002F08AD003008AE000A168A1185260A1206
:101E90008A150A168A117E2608000A128A15A824B5
:101EA0000A128A15043083120313C2003D30C100A8
:101EB000C10B582FC20B582F0A128A111F240A1265
:101EC0008A15113083120313C2003930C100C10BCF
:101ED000672FC20B672F6C2F0A168A1120270A1250
:101EE0008A15113083120313C2003930C100C10BAF
:101EF000772FC20B772F7C2F0A168A1137270A12E9
:101F00008A15113083120313C2003930C100C10B8E
:101F1000872FC20B872F8C2F0A168A114E270A1281
:101F20008A15113083120313C2003930C100C10B6E
:101F3000972FC20B972F9C2F0A128A15A5230A12DE
:101F40008A158312031355080A128A1129200A12CE
:101F50008A150A128A15BA220A128A150A128A15D5
:101F6000F0250A128A157D300A168A118D260A126A
:101F70008A15831203135E080A168A118D260A1227
:101F80008A15831203135F080A168A118D260A1216
:101F90008A158312031354080A168A118D260A1211
:101FA0008A158312031352080A168A118D260A1203
:101FB0008A158312031351080A168A118D260A12F4
:101FC0008A158312031358080A168A118D260A12DD
:101FD0008A1505300A168A118D260A128A1583126F
:101FE000031357080A168A118D260A128A158312BE
:101FF000031356080A168A118D260A128A15522FC3
:102CEE000A128A15B92083160313111408000A124A
:102CFE008A15B92083160313111508000A128A15B6
:102D0E00B920831203132D0893000800F2007208F5
:102D1E008312031399000C1A0800922E640080018E
:102D2E00840A0406031900340406962EF300831257
:102D3E00031305147308880085140D30F200F20B8E
:102D4E00A62E83120313851008000B188B1DB62EAA
:102D5E000B107B08031DB62EFB01FB0A8B117108AD
:102D6E008A00700E8300FE0E7E0E0900F500F4013F
:102D7E00751CC52E7208F3007308F4070310F20DCC
:102D8E000310F50C7508031DBF2E740808007E088D
:102D9E008A007F088200CE260A168A118000840AD5
:102DAE0004087D0603190034FF0A0319FE0AD22E09
:102DBE008316031318121815831603178715673019
:102DCE008316031399009A0183120313981718138D
:102DDE001816831603139816080000300A128A1567
:102DEE00EE200A168A1101300A128A15EE200A16F2
:102DFE008A110630F6003030F500F50B042FF60B75
:102E0E00042F00000800F9000F307905F6000A3093
:102E1E00F7007708F2007908F80004300310F80C78
:102E2E00FF3E031D152F78080A168A11BD26760758
:102E3E00080005300A128A1529230A168A118312F0
:102E4E0003130C131E08F5007508D2000430F600AB
:102E5E003D30F500F50B312FF60B312F362F0800D4
:102E6E0006300A128A1529230A168A1183120313B1
:102E7E000C131E08F5007508D1000430F6003D3025
:102E8E00F500F50B482FF60B482F4D2F0800073095
:102E9E000A128A1529230A168A11831203130C1398
:102EAE001E08F5007508D8000430F6003D30F50018
:102EBE00F50B5F2FF60B5F2F642F0800F601F7015D
:102ECE00721C6F2F7408F6070318F70A7508F707B8
:102EDE0001300310F40DF50DFF3E031D702F013070
:102EEE000310F30CF20CFF3E031D772F72087304D0
:102EFE00031D672F7708F3007608F2000800F6002E
:102F0E00F401F5017408760784000A128A15002070
:102F1E000A168A11003A031908007408760784000D
:102F2E000A128A1500200A168A110A168A119D267F
:102F3E000A168A110130F4070318F50A0030F50756
:102F4E00892FF7000730F6007608F7057708F600A8
:102F5E0002300310F60DFF3E031DB02F0310760D49
:102F6E0040380A128A15EE200A168A11F8017808DE
:102F7E00750784000A128A1500200A168A110A168D
:102F8E008A119D260A168A110130F6007608F80776
:102F9E000830780203180800BE2F0A128A15B920CD
:102FAE000A168A118316031391150A128A15B9206F
:102FBE000A168A11831203131308F400F50174081C
:102FCE00F6007508F7000A128A15B9200A168A113A
:102FDE0072037304031DF72F831603139112FA2F36
:102FEE0083160313911611167708F3007608F20074
:022FFE000800C9
:04400E00D4E0FFFFFC
:00000001FF
