:020000040000FA
:060000000A128A110C280F
:10000800FE00030EF0000A08F1000A168A11212EDC
:100018000A128A110F2883136F30FD001630FE0074
:100028000830FF00663084000A168A114726DA0174
:10003800DB01DC01DD01DE01DF01E001E101E201BC
:10004800E301E401E501FA01FB0183010A168A11C3
:100058001B2F83120313BA00C42A0430B7003708D1
:10006800A80002300A128A152E270A128A110330B4
:1000780083120313B7003708A80001300A128A1147
:10008800EB260A128A110F3083120313B7003708C0
:10009800F50002300A128A1597200800F501013090
:1000A8000A128A1597200A128A1164300A168A11D0
:1000B800A1260A128A11053083120313B7003708E4
:1000C800F50002300A128A1597200A128A110230A6
:1000D8000A168A1111260A128A1183120313630859
:1000E8000A128A1534230A128A1183120313B700DD
:1000F8003708E1006108840083130008B700840A08
:100108000008B80037083804031D8C2820309028D0
:10011800610884000008303E0A168A1111260A1266
:100128008A11831203136108023E840083130008B6
:10013800303E0A168A1111260A128A1183120313F5
:100148006108043E840083130008303E0A168A11B1
:1001580011260A128A11DF300A168A1111260A128C
:100168008A1143300A168A1111260800F501013058
:100178000A128A1597200A128A1129300A168A113A
:10018800A1260A128A11053083120313B700370813
:10019800F50002300A128A1597200A128A110230D5
:1001A8000A168A1111260A128A1183120313620889
:1001B8000A128A1534230A128A1183120313B7000C
:1001C8003708E1006108840083130008B700840A37
:1001D8000008B80037083804031DF4282030F82830
:1001E800610884000008303E0A168A1111260A1296
:1001F8008A11831203136108023E840083130008E6
:10020800B700840A0008B80037083804031D192904
:10021800610884000008B700840A0008B80037089D
:100228003804031D192920301E296108023E840064
:100238000008303E0A168A1111260A128A11831202
:1002480003136108043E840083130008303E0A1635
:100258008A1111260A128A11DF300A168A1111260C
:100268000A128A1143300A168A1111260800F5016C
:1002780001300A128A1597200A128A116E300A165E
:100288008A11A1260A128A11043083120313B700B7
:100298003708F50002300A128A1597200A128A11C7
:1002A80003300A168A1111260A128A1120300A16FA
:1002B8008A1111260A128A118B300A168A11A12670
:1002C8000A128A1125300A168A1111260800F5012A
:1002D80001300A128A1597200A128A1181300A16EB
:1002E8008A11A1260A128A1100300A168A111126CB
:1002F8000A128A114A300A168A11A1260A128A118C
:10030800023083120313B7003708F50002300A12CF
:100318008A1597200A128A118E300A168A11A12688
:100328000A128A116D300A168A1111260A128A11C8
:10033800073083120313B7003708F50002300A129A
:100348008A1597200A128A117C300A168A111126FA
:100358000A128A110B3083120313B7003708F5000D
:1003680002300A128A1597200A128A1190300A164A
:100378008A11A1260A128A116D300A168A111126CD
:100388000800F50101300A128A1597200A128A110D
:1003980057300A168A11A1260A128A11F501F50AA0
:1003A80002300A128A1597200A128A11831203133F
:1003B8006808303E0A168A1111260A128A117D3001
:1003C8000A168A11A1260A128A1108308312031309
:1003D800B7003708F50002300A128A1597200A126A
:1003E8008A11831203136708303E0A168A111126F0
:1003F8000A128A1185300A168A11A1260A128A1150
:10040800831203136608303E0A168A111126080063
:10041800F50102300A128A1597200A128A1104304F
:100428000A168A1111260A128A1183120313680800
:10043800303E0A168A1111260800F50102300A1208
:100448008A1597200A128A1120300A168A11112655
:100458000A128A11073083120313B7003708F50010
:1004680002300A128A1597200A128A1104300A16D5
:100478008A1111260A128A11831203136708303E63
:100488000A168A11112608000730B7003708F50048
:1004980002300A128A1597200A128A1120300A1689
:1004A8008A1111260A128A110A3083120313B7001F
:1004B8003708F50002300A128A1597200A128A11A5
:1004C80004300A168A1111260A128A11831203139C
:1004D8006608303E0A168A11112608000A30B7004D
:1004E8003708F50002300A128A1597200A128A1175
:1004F80020300A168A1111260A128A110F30831227
:100508000313B7003708F50002300A128A1597203E
:100518000A128A1101300A168A1111260800F501FB
:1005280001300A128A1597200A128A113A300A16DF
:100538008A11A1260A128A11063083120313B90000
:100548001330B800AD30B700B70BA82AB80BA82AEB
:10055800B90BA82A0A168A11542683120313E50137
:1005680008000930B7003708F50001300A128A156B
:1005780097200A128A1177300A168A11A1260800D4
:100588003A08B700B8013808003A0319CC2AB52A46
:100598003708003A03193128013A03195228033A57
:1005A8000319BA28013A03193B29073A03196B2999
:1005B800013A0319C529033A03190C2A013A031908
:1005C800212A0F3A0319482A013A0319722A033AD1
:1005D8000319932AB52A08008312031331088039B6
:1005E800B6003608BE003108B6003607B70037082F
:1005F800C000B01B401440080319102B400A031D0B
:100608000D2B0030B1000030B0000030AF000030DA
:10061800AE00B017B101182B0030B1000030B000A7
:100628000030AF000030AE0035088039B60036081B
:10063800BF003F083E06031D3E173508B6003607C3
:10064800B7003708BF00B41B3F143F0803193A2B03
:100658003F0A031D372B0030B5000030B4000030CE
:10066800B3000030B200B417B501422B0030B5001A
:100678000030B4000030B3000030B20040083F0240
:100688000318882B3E1F4C2B8030B6003608BE0658
:100698004008B6003608C1003F08B6003608C0005A
:1006A8004108B6003608BF002E08B6003608C1005B
:1006B8003208B6003608AE004108B6003608B20067
:1006C8002F08B6003608C1003308B6003608AF0058
:1006D8004108B6003608B3003008B6003608C10035
:1006E8003408B6003608B0004108B6003608B40031
:1006F8003108B6003608C1003508B6003608B10022
:100708004108B6003608B500C1013F08B600B70178
:100718003708B90040083602B800031CB903390885
:10072800803AFF0080307F02031D9C2B1A3038026C
:10073800031CD52B83120313310830042F042E0415
:100748000319A82B0130A92B0030B6003608C100C8
:100758000030B1000030B0000030AF000030AE0013
:100768003F08B6003608C000DB2B411CC42B4108EB
:10077800B6000310360C0138B7003708C100C62B85
:100788000310C10C2E18C1170130B600310DB10C81
:10079800B00CAF0CAE0CB60BCA2B0130B600360845
:1007A800C007831203133F084002031CB92B3E1BEA
:1007B8001C2C4008031DE92B0030B1000030B000AC
:1007C8000030AF000030AE0008003208AE07330832
:1007D80003110318013E031DAF0734080311031862
:1007E800013E031DB007350803110318013E031D20
:1007F800B107311CBE2C411C0A2C4108B60003105D
:10080800360C0138B7003708C1000C2C0310C10C96
:100818002E18C1170130B600310DB10CB00CAF0C59
:10082800AE0CB60B102C0130B6003608C007BE2C33
:100838003108803AFF003508803A7F02031D2E2CCC
:1008480034083002031D2E2C33082F02031D2E2CD2
:1008580032082E020318862CFF30B600FF30B7008E
:10086800FF30B800FF30B9003208BA003308BB00C7
:100878003408BC003508BD002E08BA022F08031C36
:100888002F0F472C482CBB023008031C300F4D2C6F
:100898004E2CBC023108031C310F532C542CBD02C2
:1008A8003A08B6073B0803183B0F5B2C5C2CB707CC
:1008B8003C0803183C0F612C622CB8073D0803184C
:1008C8003D0AB9073908B1003808B0003708AF0049
:1008D8003608AE008030B6003608BE06C109C10A27
:1008E8004108031D942C0130AE0700300318013075
:1008F800AF07003003180130B0070030031801308B
:10090800B107942C3208AE023308031C330FAF0230
:100918003408031C340FB0023508031C350FB1022C
:10092800310830042F042E04031DBC2C4108031D7C
:10093800BC2C0030B1000030B0000030AF000030F7
:10094800AE0008000130B6000310AE0DAF0DB00DBB
:10095800B10DB60BA82CC11B2E14411CB52C0314C9
:10096800B62C0310C10D40080319BC2C0130C0027D
:10097800B01FA62CBF01C11FC92C41087F3903191C
:100988002E18C72CC92CBF01BF0A3F080319FC2C1D
:100998000130AE07003003180130AF0700300318EC
:1009A8000130B007003003180130B107311CFC2CAE
:1009B8002E08B6002F08B7003008B8003108B90073
:1009C8000130BA00390DB90CB80CB70CB60CBA0B1B
:1009D800E62C3908B1003808B0003708AF003608EF
:1009E800AE00400A0319FC2C0130B6003608C007D7
:1009F800400A031D4008031D0C2D0030B1000030D3
:100A0800B0000030AF000030AE0040080319BE014E
:100A1800401C102DB017142D7F30B6003608B005D5
:100A28004008B6000310360CB7003708B100BE1FE7
:100A38000800B11708000A168A11E9250A128A1156
:100A4800D030F2000030F3000A168A11F7250A1296
:100A58008A110030F200F3000A168A11F7250A12EB
:100A68008A110A168A11F0250A128A110A168A11A1
:100A7800E9250A128A11D130F2000030F3000A1673
:100A88008A11F7250A128A110030F200F3000A16BB
:100A98008A11EF260A128A1172080A168A116A2622
:100AA8000A128A1183120313A0002008E4000A1610
:100AB8008A11F0250A128A110A168A11E9250A12E2
:100AC8008A11D030F2000030F3000A168A11F72597
:100AD8000A128A110130F2000030F3000A168A1156
:100AE800F7250A128A110A168A11F0250A128A11A4
:100AF8000A168A11E9250A128A11D130F20000304B
:100B0800F3000A168A11F7250A128A110030F2003A
:100B1800F3000A168A11EF260A128A1172080A16B9
:100B28008A116A260A128A1183120313A000200868
:100B3800EE000A168A11F0250A128A110A168A117D
:100B4800E9250A128A11D030F2000030F3000A16A3
:100B58008A11F7250A128A110230F2000030F300D8
:100B68000A168A11F7250A128A110A168A11F0251F
:100B78000A128A110A168A11E9250A128A11D13035
:100B8800F2000030F3000A168A11F7250A128A11BA
:100B98000030F200F3000A168A11EF260A128A11B1
:100BA80072080A168A116A260A128A118312031316
:100BB800A0002008ED000A168A11F0250A128A11F1
:100BC8000A168A11E9250A128A11D030F20000307B
:100BD800F3000A168A11F7250A128A110330F20067
:100BE8000030F3000A168A11F7250A128A110A162C
:100BF8008A11F0250A128A110A168A11E9250A12A1
:100C08008A11D130F2000030F3000A168A11F72554
:100C18000A128A110030F200F3000A168A11EF2630
:100C28000A128A1172080A168A116A260A128A1189
:100C380083120313A0002008EC000A168A11F0257D
:100C48000A128A110A168A11E9250A128A11D03065
:100C5800F2000030F3000A168A11F7250A128A11E9
:100C68000430F2000030F3000A168A11F7250A1240
:100C78008A110A168A11F0250A128A110A168A118F
:100C8800E9250A128A11D130F2000030F3000A1661
:100C98008A11F7250A128A110030F200F3000A16A9
:100CA8008A11EF260A128A1172080A168A116A2610
:100CB8000A128A1183120313A0002008EB000A16F7
:100CC8008A11F0250A128A110A168A11E9250A12D0
:100CD8008A11D030F2000030F3000A168A11F72585
:100CE8000A128A110530F2000030F3000A168A1140
:100CF800F7250A128A110A168A11F0250A128A1192
:100D08000A168A11E9250A128A11D130F200003038
:100D1800F3000A168A11F7250A128A110030F20028
:100D2800F3000A168A11EF260A128A1172080A16A7
:100D38008A116A260A128A1183120313A000200856
:100D4800EA000A168A11F0250A128A110A168A116F
:100D5800E9250A128A11D030F2000030F3000A1691
:100D68008A11F7250A128A110630F2000030F300C2
:100D78000A168A11F7250A128A110A168A11F0250D
:100D88000A128A110A168A11E9250A128A11D13023
:100D9800F2000030F3000A168A11F7250A128A11A8
:100DA8000030F200F3000A168A11EF260A128A119F
:100DB80072080A168A116A260A128A118312031304
:100DC800A0002008E9000A168A11F02508008312FD
:100DD8000313AC000A30F2000030F3006B08A900DE
:100DE800AA012908F4002A08F5000A168A11B5276D
:100DF8000A128A11720883120313AB002B08AD0084
:100E08000A30A0000030A1006B08A900AA01290837
:100E1800A2002A08A3000A128A15C3200A128A11FE
:100E2800831203132008AB002B08AE000A30F2002F
:100E38000030F3006A08A900AA012908F4002A086A
:100E4800F5000A168A11B5270A128A117208831248
:100E58000313AB002B08AF000A30A0000030A1003C
:100E68006A08A900AA012908A2002A08A3000A12F0
:100E78008A15C3200A128A11831203132008AB00B3
:100E88002B08B0000A30F2000030F3006908A9000E
:100E9800AA012908F4002A08F5000A168A11B527BC
:100EA8000A128A11720883120313AB002B08B100CF
:100EB8000A30A0000030A1006908A900AA01290889
:100EC800A2002A08A3000A128A15C3200A128A114E
:100ED800831203132008AB002B08B2002808A900CE
:100EE8002908F5002C080A128A1597200A128A1177
:100EF800831203132E08303E0A168A1111260A128D
:100F08008A11831203132D08303E0A168A111126FE
:100F18000A128A112F300A168A1111260A128A110A
:100F2800831203133008303E0A168A1111260A125A
:100F38008A11831203132F08303E0A168A111126CC
:100F48000A128A112F300A168A1111260A128A11DA
:100F580088300A168A11A1260A128A1183120313ED
:100F68003208303E0A168A1111260A128A11831293
:100F780003133108303E0A168A1111260800F701BA
:100F8800F801720873040319FA2FF901F90AF31B1F
:100F9800D92F01300310F20DF30DFF3E031DCE2FA4
:100FA8000130F6007608F907CB2F01300310F70D52
:100FB800F80DFF3E031DDA2F73087502031DE62F97
:100FC80072087402031CEF2F7208F4027308031CE2
:100FD800F503F502771401300310F30CF20CFF3E11
:100FE800031DF02F0130F902031DD92F7808F300F3
:060FF8007708F20008007A
:1010000008308A000408840A8207003404340A3451
:101010000A341134113411340E34003404340A34D7
:101020000A340E340E341F341F340E3402340434A8
:1010300000340E3401340F3411340F3400340834CA
:101040000C340A3409340A340C34083400340834BB
:101050000C340E340F340E340C34083454346534EC
:101060006D3470342E342034643465346C34203460
:101070005334753465346C346F343A340034563438
:1010800061346D346F346E346F34733420345034C3
:101090006534723472346F347334213400347334F1
:1010A0003A3420347C3420344634723465346E341F
:1010B000743465343A34003454346F346D346134EC
:1010C000723420346434613474346F3473343A3499
:1010D000003441346D346234693465346E347434B0
:1010E00065343A340034483475346D3465346434CE
:1010F000613464343A3400344534523452344F3419
:10110000523400346D3469346E34003441347434F4
:1011100072340034783420340034323430340034C3
:101120003834303400343334003434340034F8008C
:10113000B2287508803EF6007608F90079080A168C
:101140008A114C2708007508C03EF6007608F900A1
:1011500079080A168A114C27080080300A168A116D
:101160004C2708007808F600F7017708003A0319C1
:10117000BA28AD287608013A03199928033A0319C9
:10118000A328AD28080083120313A501A11FCF28AF
:10119000A009A109A00A0319A10AA501A50AA31F74
:1011A000DA28A209A309A20A0319A30A0130F80048
:1011B0007808A506A601A701200821040319112912
:1011C000A401A40AA11BF02801300310A00DA10D59
:1011D000FF3E031DE5280130F8007808A407E22847
:1011E00001300310A60DA70DFF3E031DF1282108B5
:1011F0002302031DFD2820082202031C06292008C3
:10120000A2022108031CA303A30226140130031029
:10121000A10CA00CFF3E031D07290130A402031DF1
:10122000F028250803191929A609A709A60A0319F0
:10123000A70A2708A1002608A00008000030831292
:101240000313A4000030A3000030A2000030A1006E
:10125000750874047304720403197529A501A50A9D
:10126000F51B40290130A0000310F20DF30DF40D21
:10127000F50DA00B34290130A0002008A507302966
:101280000130A0000310A10DA20DA30DA40DA00B11
:10129000422975087902031D572974087802031D35
:1012A000572973087702031D572972087602031C19
:1012B00068297208F6027308031C730FF70274089A
:1012C000031C740FF8027508031C750FF902211432
:1012D00001300310F50CF40CF30CF20CFF3E031D6F
:1012E00069290130A502031D40292408F5002308BF
:1012F000F4002208F3002108F20008003430F60060
:10130000F130F500F50B8229F60B82298729303060
:101310000A168A114C270A128A150D30F600FB3086
:10132000F500F50B9129F60B9129962930300A1614
:101330008A114C270A128A154230F500F50B9E29B6
:10134000000030300A168A114C270A128A154230E2
:10135000F500F50BA929000038300A168A114C2730
:101360000A128A152330F500F50BB42908300A1645
:101370008A114C270A128A152330F500F50BBE2975
:1013800001300A168A114C270A128A150830F60015
:10139000C930F500F50BCA29F60BCA29CF2906304A
:1013A0000A168A114C270A128A152330F500F50B0C
:1013B000D7290C300A168A114C270A128A152330B5
:1013C000F500F50BE1290800031083120313440D07
:1013D000450DC6004608CC004C08031DF829003016
:1013E000C5000030C4000030C3000030C200080057
:1013F0004208C6004308C7004408C8004508C900A1
:101400001F300310C90CC80CC70CC60CFF3E031DCF
:10141000012A4608CA004A08CB00C417FF30C2059B
:10142000FF30C305FF30C4050030C5059630CC023F
:10143000CC1F2F2A4C08803A973E031CEF2901301D
:101440000310C50CC40CC30CC20CFF3E031D202AA4
:101450000130C6004608CC070319422A1F2A203053
:101460004C020318EF294C080319422A0130C60028
:101470000310C20DC30DC40DC50DC60B382A0130B3
:10148000CC02332A4B0803190800C209C309C40956
:10149000C509C20A0319C30A0319C40A0319C50AF4
:1014A00008007B03031DAE2A7A08031DAE2A8312AF
:1014B0000313861C972AAE2A0130F7007708E80745
:1014C0000A306802031CAA2AE801E80AAA2A0130A5
:1014D000F7007708E70709306702031CAA2AE7012B
:1014E000E70AAA2A0130F7007708E6070930660202
:1014F000031CAA2AE601E60AAA2A0A168A11542619
:101500000A128A151A30F800F830F700F70B862A0D
:10151000F80B862A00000130F700770883120313C6
:10152000E50706306502031CAA2AE501AA2A650818
:10153000F700F8017808003A03199F2A7D2A7708F6
:10154000063A03195C2A013A0319672A0F3A03196C
:10155000722A7D2AFB01FA01FA0A8B157A03031D10
:10156000080083120313861C08001A30F800F830B4
:10157000F700F70BB92AF80BB92A0000FA010800A6
:101580000030F5007A30F4001230F3000030F20041
:101590000A128A155E240A128A150630831603136E
:1015A00086008316031789010630831603139500FE
:1015B0008113063096008B158B1788010710871052
:1015C0000A128A157E210A128A151130831203131A
:1015D000AE002E08F50000300A168A11C3260A1242
:1015E0008A15213083120313AE002E08F500013056
:1015F0000A168A11C3260A128A15093083120313A8
:10160000AE002E08F50002300A168A11C3260A120F
:101610008A15013083120313AE002E08F500033043
:101620000A168A11C3260A128A1519308312031367
:10163000AE002E08F50004300A168A11C3260A12DD
:101640008A150A168A1154260A128A150030831246
:101650000313A9000130A8008630A700A030A6001F
:101660000A168A117F27080083120313B600303050
:1016700084000630FF0083138001840AFF0B3B2B9C
:101680006430A0000030A1003608A800A901280895
:10169000A2002908A3000A128A15C3200A128A157B
:1016A000831203132108B1002008B0003008A800FD
:1016B0002808AF000A30A0000030A1002F08A800C1
:1016C000A9012808F2002908F3009C30F400FF303B
:1016D000F5000A168A1180260A128A15831203134E
:1016E00036087207A20073080318730AA3000A12CF
:1016F0008A15C3200A128A15831203132108B30026
:101700002008B2003208A8002808AE002F08A80060
:10171000A9012808F2002908F3009C30F400FF30EA
:10172000F5000A168A1180260A128A1583120313FD
:1017300036087207AA0073080318730AAB002E0854
:10174000AC00AD012C08F2002D08F300F630F400D7
:10175000FF30F5000A168A118026720883120313DF
:101760002A07B40073080318730A2B07B50030303A
:10177000080083120313A8002808031DA31FD02B01
:101780002009AA002109AB002209AC002309AD0001
:10179000AA0A0319AB0A0319AC0A0319AD0AD82B1C
:1017A0002308AD002208AC002108AB002008AA00E5
:1017B0002308220421042004031DE72B0030A3008A
:1017C0000030A2000030A1000030A00008009630D8
:1017D000A4002408A900FE302D050319182C01309F
:1017E000A4002408A90701300310AD0CAC0CAB0C0D
:1017F000AA0CFF3E031DF42BEB2B0130A4002408A0
:10180000A9070130AA07003003180130AB070030E8
:1018100003180130AC07003003180130AD07013068
:101820000310AD0CAC0CAB0CAA0CFF3E031D102C2E
:10183000FF302D0503192C2CFD2B02302902031C2F
:101840002E2C0130A9020130A4000310AA0DAB0D0B
:10185000AC0DAD0DA40B252CAC1F1D2C2918382C5C
:10186000FF30AA05FF30AB057F30AC05FF30AD057A
:101870000310A90C2908A400A501A601A70118308E
:101880000310A40DA50DA60DA70DFF3E031D402CB2
:101890002408AA042508AB042608AC042708AD04D4
:1018A0002808031DA31F552CAD172D08A3002C08D5
:1018B000A2002B08A1002A08A00008009A2C703072
:1018C000831603138F040800831603130F088F3940
:1018D00060388F000800831603130F088F395038C3
:1018E0008F000800831603130F088F3940388F00CC
:1018F0000800831603130F088F3930388F00080053
:10190000831603130F088F3920388F0008008316C1
:1019100003130F088F3910388F0008008F3083169B
:1019200003138F050800831603130F088F396038DF
:101930008F0008007508003A0319EF2C932C7308E8
:101940007D3A0319A42C932C7208003A03198E2CAB
:10195000932C7308E83A0319AE2C932C7208483A7A
:101960000319872C932C7308D03A0319B82C932CA5
:101970007208903A0319802C932C7308A13A03192A
:10198000C22C932C7208203A0319792C932C7308DB
:10199000423A0319CC2C932C7208403A0319722C4A
:1019A000932C7308843A0319D62C932C7208803A2E
:1019B00003196B2C932C7308093A0319E02C932C10
:1019C0007208003A0319642C932C7308123A031915
:1019D000EA2C932C7208003A03195F2C932C74089C
:1019E000003A03199F2C013A0319A92C023A031952
:1019F000B32C043A0319BD2C083A0319C72C113A29
:101A00000319D12C233A0319DB2C473A0319E52C8F
:101A1000932C08000A168A11E9250A128A1500304B
:101A2000F200F3000A168A11F7250A128A15063009
:101A3000F2000030F3000A168A11F7250A128A15FF
:101A40000A168A11E9250A128A150130F2000030BF
:101A5000F3000A168A11F7250A128A150030F200DF
:101A6000F3000A168A11EF260A128A1572088312E9
:101A70000313CF004F08D6000030F200F3000A161F
:101A80008A11EF260A128A15730883120313D800ED
:101A90007208D7000030F200F3000A168A11EF2610
:101AA0000A128A150A168A11F0250A128A1582303E
:101AB00083120313D000DD30CF00CF0B5D2DD00B90
:101AC0005D2D831203135708D000CF014F08D700B4
:101AD0005008D80056085707F40058080318580A49
:101AE000F5003230F2000030F3000A128A11C327E9
:101AF0000A128A15720883120313CF007308D000EC
:101B0000D101D2015208A3005108A2005008A1003F
:101B10004F08A00000300A128A15B9230A128A154C
:101B2000831203132308B5002208B4002108B30070
:101B30002008B200C330B1008830B0009330AF004D
:101B40003330AE000A128A11F0220A128A1583126B
:101B500003133108C5003008C4002F08C3002E0845
:101B6000C2000A128A15E421831203134308D50028
:101B70004208D4005508CE005408CD0008000A16CB
:101B80008A11E9250A128A150030F200F3000A16BC
:101B90008A11F7250A128A150730F2000030F30087
:101BA0000A168A11F7250A128A150A168A11E925DA
:101BB0000A128A150130F2000030F3000A168A1169
:101BC000F7250A128A150030F200F3000A168A116E
:101BD000EF260A128A15720883120313CF004F08EA
:101BE000D6000030F200F3000A168A11EF260A121E
:101BF0008A15730883120313D8007208D7000030C7
:101C0000F200F3000A168A11EF260A128A150A1644
:101C10008A11F0250A128A15823083120313D0002C
:101C2000DD30CF00CF0B122ED00B122E83120313F8
:101C30005708D000CF014F08D7005008D8005608E9
:101C40005707F40058080318580AF5003230F2001C
:101C50000030F3000A128A11C3270A128A1572088B
:101C600083120313CF007308D000D101D2015208B0
:101C7000A3005108A2005008A1004F08A0000030A6
:101C80000A128A15B9230A128A158312031323082C
:101C9000B5002208B4002108B3002008B200C33008
:101CA000B1008830B0009330AF003330AE000A127C
:101CB0008A11F0220A128A15831203133108C50013
:101CC0003008C4002F08C3002E08C2000A128A156B
:101CD000E421831203134308D5004208D4005508B9
:101CE000CE005408CD0008007B03031D182F83127B
:101CF00003136008031D182F061DF92E122F06303E
:101D0000E92EF50102300A128A1597200A128A1567
:101D100001300A168A1111260A128A15023083121E
:101D20000313A2000430A100B930A000A00B962E2E
:101D3000A10B962EA20B962E9D2E0730E72E073074
:101D4000A0002008F50002300A128A1597200A1216
:101D50008A1501300A168A1111260A128A150230D4
:101D600083120313A2000430A100B930A000A00B1D
:101D7000B72EA10BB72EA20BB72EBE2E0830E72E22
:101D80000A30A0002008F50002300A128A159720B8
:101D90000A128A1501300A168A1111260A128A15AA
:101DA000023083120313A2000430A100B930A00056
:101DB000A00BD82EA10BD82EA20BD82EDF2E0930C7
:101DC000E72E0A168A1154260A128A150A3083123F
:101DD0000313A0002008E500122F1A30831203130A
:101DE000A100F730A000A00BF32EA10BF32EF82ECC
:101DF000122F6508A000A1012108003A0319012F44
:101E0000ED2E2008053A03197F2E033A0319812E7F
:101E1000013A03199F2E0F3A0319C02E013A0319F4
:101E2000E12EED2EFB0183120313E001E00A8B1576
:101E3000831203136003031D0800061D08001A30F7
:101E400083120313A100F730A000A00B252FA10BD4
:101E5000252F2A2F83120313E00108008312031396
:101E6000AC000A30F2000030F3006408A900AA01B7
:101E70002908F4002A08F5000A168A11B5270A1263
:101E80008A15720883120313AB002B08AD000A30C9
:101E9000A0000030A1006408A900AA012908A2003E
:101EA0002A08A3000A128A15C3200A128A1583126F
:101EB00003132008AB002B08AE000A30F2000030FC
:101EC000F3006E08A900AA012908F4002A08F50009
:101ED0000A168A11B5270A128A157208831203138B
:101EE000AB002B08AF000A30A0000030A1006E0844
:101EF000A900AA012908A2002A08A3000A128A152B
:101F0000C3200A128A15831203132008AB002B0882
:101F1000B0000A30F2000030F3006D08A900AA01F9
:101F20002908F4002A08F5000A168A11B5270A12B2
:101F30008A15720883120313AB002B08B1000A3014
:101F4000A0000030A1006D08A900AA012908A20084
:101F50002A08A3000A128A15C3200A128A158312BE
:101F600003132008AB002B08B2002808A900290899
:101F7000F5002C080A128A1597200A128A15831276
:101F800003133208303E0A168A1111260A128A15E6
:101F9000831203133108303E0A168A1111260A12E1
:101FA0008A153A300A168A1111260A128A158312E6
:101FB00003133008303E0A168A1111260A128A15B8
:101FC000831203132F08303E0A168A1111260A12B3
:101FD0008A153A300A168A1111260A128A158312B6
:101FE00003132E08303E0A168A1111260A128A158A
:101FF000831203132D08303E0A168A111126080099
:102BD2000A168A11FF2583160313111408000A1618
:102BE2008A11FF2583160313111508000A168A118C
:102BF200FF25720883120313930008008316031340
:102C02001419FF2D11081F3903190800FF2D013473
:102C120001340534143403340634053410341534C5
:102C2200F3008312031307147308880087141A3001
:102C3200F200F20B1A2E0000831203138710080011
:102C42000B188B1D2B2E0B107B08031D2B2EFB014B
:102C5200FB0A8B1171088A00700E8300FE0E7E0E35
:102C62000900F500F401751C3A2E7208F30073088E
:102C7200F4070310F20D0310F50C7508031D342E32
:102C8200740808007E088A007F08820043260A161C
:102C92008A118000840A04087D0603190034FF0AA1
:102CA2000319FE0A472E00300A168A114C270A160B
:102CB2008A1101300A168A114C270A168A110B3022
:102CC200F6006230F500F50B642EF60B642E000060
:102CD2000800F9000F307905F6000A30F70077088E
:102CE200F2007908F80004300310F80CFF3E031DCF
:102CF200752E78080A168A11322676070800F60120
:102D0200F701721C8A2E7408F6070318F70A750871
:102D1200F70701300310F40DF50DFF3E031D8B2E56
:102D220001300310F30CF20CFF3E031D922E7208C9
:102D32007304031D822E7708F3007608F200080060
:102D4200F600F401F5017408760784000A128A1568
:102D520000200A168A11003A03190800740876073F
:102D620084000A128A1500200A168A110A168A118C
:102D720011260A168A110130F4070318F50A0030E9
:102D8200F507A42EF7000730F6007608F705770856
:102D9200F60002300310F60DFF3E031DCB2E03108A
:102DA200760D40380A168A114C270A168A11F80144
:102DB2007808750784000A128A1500200A168A11FB
:102DC2000A168A1111260A168A110130F6007608AF
:102DD200F8070830780203180800D92E0A168A115B
:102DE200FF250A168A118316031391150A168A11F2
:102DF200FF250A168A11831203131308F400F50142
:102E02007408F6007508F7000A168A11FF250A16DB
:102E12008A1172037304031D122F83160313911276
:102E2200152F83160313911611167708F3007608EF
:102E3200F20008000A128A15C0220A168A110A1222
:102E42008A111F250A168A110A128A150A250A16DC
:102E52008A11831203134D08D9005908E3000A129C
:102E62008A15BF250A168A11831203134D08D90049
:102E72005908E20065080A128A112D200A168A11E1
:102E82000A128A1551220A168A110A128A15742602
:102E92000A168A11202FF4008312031307100D3033
:102EA200F300FB30F200F20B542FF30B542F592F87
:102EB2008312031387140D30F300FB30F200F20B80
:102EC200602FF30B602F652F7408831203138800A1
:102ED2000D30F300FB30F200F20B6D2FF30B6D2F70
:102EE200722F8312031387100D30F300FB30F200B0
:102EF200F20B792FF30B792F7E2F080028308312E3
:102F020003139400831603139101831203132608FB
:102F1200AA002708AB002808AC002908AD0002303F
:102F22000310AA0DAB0DAC0DAD0DFF3E031D912F8D
:102F32002D08F5002C08F4002B08F3002A08F200F3
:102F42000030F9007A30F8001230F7000030F60055
:102F52000A128A151E217208FF3E8316031393007C
:102F62009401871507160800F801F51FBF2FF40911
:102F7200F509F40A0319F50AF801F80AF31FC62F36
:102F8200F209F309F20A0319F30A72087304031926
:102F9200F32FF701F70AF31BDA2F01300310F20DBA
:102FA200F30DFF3E031DCF2F0130F6007608F70721
:102FB200CC2F73087502031DE02F72087402031CE4
:102FC200E82F7208F4027308031CF503F5020130BE
:102FD2000310F30CF20CFF3E031DE92F0130F70240
:102FE200031DDA2F78080319FB2FF409F509F40AF7
:0E2FF2000319F50A7508F3007408F2000800D0
:04400E00D4E0FFFFFC
:00000001FF
