:020000040000FA
:060000000A128A110C280F
:10000800FE00030EF0000A08F1000A128A15502CAF
:100018000A128A110F280A128A1524240A128A1130
:10002800C7000A128A1525240A128A11C8000A1262
:100038008A1526240A128A11C9000A128A15272449
:100048000A128A11CA000A128A1528240A128A1169
:10005800CB000A128A152924CC00BC01BD01BE01BF
:10006800BF01C001C101C201C301C401C501C6016C
:10007800FA01FB0183010A128A15CB2C0A128A1590
:100088002A240A128A11D030F2000030F3000A1232
:100098008A1538240A128A110030F200F3000A1275
:1000A8008A1538240A128A110A128A1531240A126A
:1000B8008A110A128A152A240A128A11D130F200EA
:1000C8000030F3000A128A1538240A128A11003007
:1000D800F200F3000A128A151C250A128A11720806
:1000E8000A128A11EA270A128A1183120313A0003E
:1000F8002008C5000A128A1531240A128A110A1228
:100108008A152A240A128A11D030F2000030F3002E
:100118000A128A1538240A128A110130F2000030B6
:10012800F3000A128A1538240A128A110A128A154B
:1001380031240A128A110A128A152A240A128A11EB
:10014800D130F2000030F3000A128A1538240A125E
:100158008A110030F200F3000A128A151C250A12CF
:100168008A1172080A128A11EA270A128A1183125E
:100178000313A0002008CC000A128A1531240A12A1
:100188008A110A128A152A240A128A11D030F2001A
:100198000030F3000A128A1538240A128A11023034
:1001A800F2000030F3000A128A1538240A128A1164
:1001B8000A128A1531240A128A110A128A152A2467
:1001C8000A128A11D130F2000030F3000A128A159F
:1001D80038240A128A110030F200F3000A128A1534
:1001E8001C250A128A1172080A128A11EA270A12B1
:1001F8008A1183120313A0002008CB000A128A1563
:1002080031240A128A110A128A152A240A128A111A
:10021800D030F2000030F3000A128A1538240A128E
:100228008A110330F2000030F3000A128A153824CC
:100238000A128A110A128A1531240A128A110A121C
:100248008A152A240A128A11D130F2000030F300EC
:100258000A128A1538240A128A110030F200F300B3
:100268000A128A151C250A128A1172080A128A11A2
:10027800EA270A128A1183120313A0002008CA0071
:100288000A128A1531240A128A110A128A152A2496
:100298000A128A11D030F2000030F3000A128A15CF
:1002A80038240A128A110430F2000030F3000A12CE
:1002B8008A1538240A128A110A128A1531240A1258
:1002C8008A110A128A152A240A128A11D130F200D8
:1002D8000030F3000A128A1538240A128A110030F5
:1002E800F200F3000A128A151C250A128A117208F4
:1002F8000A128A11EA270A128A1183120313A0002C
:100308002008C9000A128A1531240A128A110A1211
:100318008A152A240A128A11D030F2000030F3001C
:100328000A128A1538240A128A110530F2000030A0
:10033800F3000A128A1538240A128A110A128A1539
:1003480031240A128A110A128A152A240A128A11D9
:10035800D130F2000030F3000A128A1538240A124C
:100368008A110030F200F3000A128A151C250A12BD
:100378008A1172080A128A11EA270A128A1183124C
:100388000313A0002008C8000A128A1531240A1293
:100398008A110A128A152A240A128A11D030F20008
:1003A8000030F3000A128A1538240A128A1106301E
:1003B800F2000030F3000A128A1538240A128A1152
:1003C8000A128A1531240A128A110A128A152A2455
:1003D8000A128A11D130F2000030F3000A128A158D
:1003E80038240A128A110030F200F3000A128A1522
:1003F8001C250A128A1172080A128A11EA270A129F
:100408008A1183120313A0002008C7000A128A1554
:100418003124080083120313B900992B0430B70064
:100428003708A80002300A128A118E240A128A118B
:10043800033083120313B7003708A80001300A12EB
:100448008A11B6230A128A110F3083120313B700D8
:100458003708F50002300A128A1548250800F50108
:1004680001300A128A1548250A128A114C300A12DC
:100478008A15A9240A128A118312031344088039A1
:10048800B7003708BA000530B7003708F500023062
:100498000A128A1548250A128A1102300A128A1588
:1004A80040240A128A11831203133A0803195E2A98
:1004B8002D305F2A20300A128A1540240A128A1128
:1004C8008312031344087F390A128A110C260A1270
:1004D8008A1183120313B7003708C3004308023E8A
:1004E8008400831300080A128A159D270A128A11AC
:1004F8000A128A1540240A128A1183120313430828
:10050800043E8400831300080A128A159D270A12E4
:100518008A110A128A1540240A128A11DF300A1237
:100528008A1540240A128A1143300A128A15402477
:100538000800F50101300A128A1548250A128A11A5
:1005480021300A128A15A9240A128A110630831248
:100558000313B7003708F50002300A128A15482538
:100568000A128A1173300A128A15A9240A128A11EA
:10057800DF300A128A1540240A128A1143300A12FF
:100588008A1540240800F50101300A128A15482509
:100598000A128A1156300A128A15A9240A128A11D7
:1005A800043083120313B7003708F50002300A122B
:1005B8008A1548250A128A1103300A128A1540241E
:1005C8000A128A1120300A128A1540240A128A1146
:1005D80076300A128A15A9240A128A1125300A12BD
:1005E8008A1540240800F50101300A128A154825A9
:1005F8000A128A116F300A128A15A9240A128A115E
:1006080000300A128A1540240A128A1132300A125E
:100618008A15A9240A128A11023083120313B7001B
:100628003708F50002300A128A1548250A128A117D
:1006380079300A128A15A9240A128A116D300A1211
:100648008A1540240A128A11073083120313B7004F
:100658003708F50002300A128A1548250A128A114D
:100668007C300A128A1540240A128A110B30831230
:100678000313B7003708F50002300A128A15482517
:100688000A128A117B300A128A15A9240A128A11C1
:100698006D300A128A1540240800F50101300A124B
:1006A8008A1548250A128A113F300A128A15A92488
:1006B8000A128A11F50102300A128A1548250A120F
:1006C8008A1101300A128A1540240A128A11F5018A
:1006D800F50A02300A128A1548250A128A1165306D
:1006E8000A128A15A9240A128A11083083120313E0
:1006F800B7003708F50002300A128A1548250A1291
:100708008A116B300A128A15A92408000930B7002B
:100718003708F50001300A128A1548250A128A118D
:100728005F300A128A15A92408003908B700B801F1
:100738003808003A0319A12B8A2B3708003A031905
:10074800122A013A0319332A033A03199D2A013A56
:100758000319C72A073A0319F72A013A0319512B33
:100768008A2B080083120313AC000A30F200003011
:10077800F3004908A900AA012908F4002A08F5008D
:100788000A128A1597260A128A117208831203130D
:10079800AB002B08AD000A30A0000030A1004908CA
:1007A800A900AA012908A2002A08A3000A128A158A
:1007B800E2260A128A11831203132008AB002B08C1
:1007C800AE000A30F2000030F3004808A900AA0180
:1007D8002908F4002A08F5000A128A1597260A1231
:1007E8008A11720883120313AB002B08AF000A307A
:1007F800A0000030A1004808A900AA012908A20009
:100808002A08A3000A128A15E2260A128A118312FC
:1008180003132008AB002B08B0000A30F2000030A8
:10082800F3004708A900AA012908F4002A08F500DE
:100838000A128A1597260A128A117208831203135C
:10084800AB002B08B1000A30A0000030A100470817
:10085800A900AA012908A2002A08A3000A128A15D9
:10086800E2260A128A11831203132008AB002B0810
:10087800B2002808A9002908F5002C080A128A15D0
:1008880048250A128A11831203132E08303E0A12D1
:100898008A1540240A128A11831203132D08303E48
:1008A8000A128A1540240A128A112F300A128A1550
:1008B80040240A128A11831203133008303E0A12A8
:1008C8008A1540240A128A11831203132F08303E16
:1008D8000A128A1540240A128A112F300A128A1520
:1008E80040240A128A1173300A128A15A9240A129E
:1008F8008A11831203133208303E0A128A154024E3
:100908000A128A11831203133108303E0A128A151B
:100918004024080083120313AC000A30F2000030B0
:10092800F3004508A900AA012908F4002A08F500DF
:100938000A128A1597260A128A117208831203135B
:10094800AB002B08AD000A30A0000030A10045081C
:10095800A900AA012908A2002A08A3000A128A15D8
:10096800E2260A128A11831203132008AB002B080F
:10097800AE000A30F2000030F3004C08A900AA01CA
:100988002908F4002A08F5000A128A1597260A127F
:100998008A11720883120313AB002B08AF000A30C8
:1009A800A0000030A1004C08A900AA012908A20053
:1009B8002A08A3000A128A15E2260A128A1183124B
:1009C80003132008AB002B08B0000A30F2000030F7
:1009D800F3004B08A900AA012908F4002A08F50029
:1009E8000A128A1597260A128A11720883120313AB
:1009F800AB002B08B1000A30A0000030A1004B0862
:100A0800A900AA012908A2002A08A3000A128A1527
:100A1800E2260A128A11831203132008AB002B085E
:100A2800B2002808A9002908F5002C080A128A151E
:100A380048250A128A11831203133208303E0A121B
:100A48008A1540240A128A11831203133108303E92
:100A58000A128A1540240A128A113A300A128A1593
:100A680040240A128A11831203133008303E0A12F6
:100A78008A1540240A128A11831203132F08303E64
:100A88000A128A1540240A128A113A300A128A1563
:100A980040240A128A11831203132E08303E0A12C8
:100AA8008A1540240A128A11831203132D08303E36
:100AB8000A128A15402408009C2D703083160313EF
:100AC8008F040800831603130F088F3960388F00CE
:100AD8000800831603130F088F3950388F00080059
:100AE800831603130F088F3940388F0008008316C8
:100AF80003130F088F3930388F000800831603134B
:100B08000F088F3920388F000800831603130F0849
:100B18008F3910388F0008008F30831603138F0524
:100B28000800831603130F088F3960388F000800F8
:100B38007508003A0319F12D952D73087D3A0319AC
:100B4800A62D952D7208003A0319902D952D73083E
:100B5800E83A0319B02D952D7208483A0319892DE2
:100B6800952D7308D03A0319BA2D952D7208903A2D
:100B78000319822D952D7308A13A0319C42D952DBB
:100B88007208203A03197B2D952D7308423A0319F0
:100B9800CE2D952D7208403A0319742D952D7308A2
:100BA800843A0319D82D952D7208803A03196D2DB2
:100BB800952D7308093A0319E22D952D7208003A0C
:100BC8000319662D952D7308123A0319EC2D952DEE
:100BD8007208003A0319612D952D7408003A03191B
:100BE800A12D013A0319AB2D023A0319B52D043A88
:100BF8000319BF2D083A0319C92D113A0319D32D2A
:100C0800233A0319DD2D473A0319E72D952D0800DE
:100C180083120313B6002F3084000630FF008313BD
:100C28008001840AFF0B132E6430A0000030A1005D
:100C38003608A800A9012808A2002908A3000A125A
:100C48008A15E2260A128A11831203132108B000BA
:100C58002008AF002F08A8002808B5000A30A00017
:100C68000030A1003508A800A9012808F2002908C9
:100C7800F3009C30F400FF30F5000A128A1588242E
:100C88000A128A118312031336087207A200730826
:100C98000318730AA3000A128A15E2260A128A1197
:100CA800831203132108B2002008B1003108A800FC
:100CB8002808AE003508A800A9012808F20029086C
:100CC800F3009C30F400FF30F5000A128A158824DE
:100CD8000A128A118312031336087207AA007308CE
:100CE8000318730AAB002E08AC00AD012C08F20003
:100CF8002D08F300F630F400FF30F5000A128A15CB
:100D080088247208831203132A07B3007308031890
:100D1800730A2B07B4002F3008003430F600F13086
:100D2800F500F50B952EF60B952E9A2E30300A12FB
:100D38008A1574250A128A110D30F600FB30F50069
:100D4800F50BA42EF60BA42EA92E30300A128A1504
:100D580074250A128A114230F500F50BB12E0000F5
:100D680030300A128A1574250A128A114230F500A9
:100D7800F50BBC2E000038300A128A1574250A12A9
:100D88008A112330F500F50BC72E08300A128A1590
:100D980074250A128A112330F500F50BD12E013083
:100DA8000A128A1574250A128A110830F600C93009
:100DB800F500F50BDD2EF60BDD2EE22E06300A12BD
:100DC8008A1574250A128A112330F500F50BEA2ECC
:100DD8000C300A128A1574250A128A112330F5007C
:100DE800F50BF42E0800831603131419F72E1108B7
:100DF8001F3903190800F72E07308A000408840AEF
:100E08008207003404340A340A341134113411349A
:100E18000E34003404340A340A340E340E341F34C9
:100E28001F340E340234043400340E3401340F34C9
:100E380011340F34003408340C340E340F340E34AB
:100E48000C340834543465346D3470342E34203402
:100E5800643465346C3420345334753465346C34FC
:100E68006F343A34003473343A3420347C342034C8
:100E78004634723465346E34743465343A3400342C
:100E880054346F346D3461347234203464346134D2
:100E980074346F3473343A34003441346D3462340A
:100EA800693465346E34743465343A340034483403
:100EB80075346D3465346434613464343A340034E0
:100EC8004534523452344F3452340034313430348F
:100ED8006D3469346E340034353478343534003444
:100EE8004134743472340034323430340034383499
:100EF8003034003433340034343400340030F500F6
:100F08007A30F4001230F3000030F2000A128A112D
:100F180060250A128A110630831603138600831689
:100F280003178901063083160313950081130630D1
:100F380096008B158B178801071087100A128A11E3
:100F480091260A128A11113083120313AE002E085B
:100F5800F50000300A128A15F0240A128A11193095
:100F680083120313AE002E08F50001300A128A1509
:100F7800F0240A128A11093083120313AE002E08D6
:100F8800F50002300A128A15F0240A128A1101307B
:100F980083120313AE002E08F50003300A128A15D7
:100FA800F0240A128A110A128A1572240A128A1166
:100FB800003083120313A9000130A8008630A7006F
:100FC800A030A6000A128A15A7250800F9000F30DC
:100FD8007905F6000A30F7007708F2007908F8007A
:100FE80004300310F80CFF3E031DF52F78080A1291
:080FF8008A1561247607080048
:101848001434033406340534103415340A128A115A
:10185800F72683160313111408000A128A11F726B3
:1018680083160313111508000A128A11F726720845
:101878008312031393000800F30083120313071461
:101888007308880087141A30F200F20B492C000004
:1018980083120313871008000B188B1D5A2C0B108A
:1018A8007B08031D5A2CFB01FB0A8B1171088A0067
:1018B800700E8300FE0E7E0E0900F500F401751C03
:1018C800692C7208F3007308F4070310F20D031073
:1018D800F50C7508031D632C7408080000300A1203
:1018E8008A1574250A128A1501300A128A15742578
:1018F8000A128A150B30F6006230F500F50B822CBF
:10190800F60B822C00000800F601F701721C922CDD
:101918007408F6070318F70A7508F707013003106B
:10192800F40DF50DFF3E031D932C01300310F30C4D
:10193800F20CFF3E031D9A2C72087304031D8A2CB7
:101948007708F3007608F2000800F600F401F501C4
:101958007408760784000A128A1100270A128A1569
:10196800003A031908007408760784000A128A11DD
:1019780000270A128A150A128A1540240A128A15A3
:101988000130F4070318F50A0030F507AC2C0A12E9
:101998008A1182270A128A150A128A1142200A120B
:1019A8008A150A128A1550260A128A1583120313F9
:1019B800BB003B08C40046080A128A110E220A120C
:1019C8008A150A128A15DD250A128A150A128A153D
:1019D80015260A128A15D02CF7000730F60076086B
:1019E800F7057708F60002300310F60DFF3E031DD9
:1019F800F82C0310760D40380A128A1574250A123D
:101A08008A15F8017808750784000A128A110027D8
:101A18000A128A150A128A1540240A128A150130F8
:101A2800F6007608F8070830780203180800062D33
:101A38000A128A11F7260A128A15831603139115BA
:101A48000A128A11F7260A128A1583120313130839
:101A5800F400F5017408F6007508F7000A128A11F7
:101A6800F7260A128A1572037304031D3F2D831685
:101A780003139112422D831603139116111677083A
:101A8800F3007608F2000800F800632D7508803E20
:101A9800F6007608F90079080A128A1574250800F4
:101AA8007508C03EF6007608F90079080A128A150A
:101AB8007425080080300A128A15742508007808F1
:101AC800F600F7017708003A03196B2D5E2D7608AA
:101AD800013A03194A2D033A0319542D5E2D0800C3
:101AE800F4008312031307100D30F300FB30F200EB
:101AF800F20B7C2DF30B7C2D812D8312031387149D
:101B08000D30F300FB30F200F20B882DF30B882D1B
:101B18008D2D74088312031388000D30F300FB30F9
:101B2800F200F20B952DF30B952D9A2D83120313CA
:101B380087100D30F300FB30F200F20BA12DF30BF0
:101B4800A12DA62D080028308312031394008316B4
:101B580003139101831203132608AA002708AB0078
:101B68002808AC002908AD0002300310AA0DAB0DFF
:101B7800AC0DAD0DFF3E031DB92D2D08F5002C0849
:101B8800F4002B08F3002A08F2000030F9007A303C
:101B9800F8001230F7000030F6000A128A153D27C7
:101BA8007208FF3E831603139300940187150716E6
:101BB80008007B03031D032E7A08031D032E8312DE
:101BC80003138618032E0A128A1572240A128A151C
:101BD8001A30F800F830F700F70BF02DF80BF02D5D
:101BE80000000130F700770883120313C607063098
:101BF80046020318C601FB01FA01FA0A8B157A039B
:101C0800031D080083120313861C08001A30F8000D
:101C1800F830F700F70B0E2EF80B0E2E0000FA0125
:101C280008007B03031D3C2E83120313420803198B
:101C380006193C2E0A128A1572240A128A151A30BD
:101C4800F800F830F700F70B272EF80B272E0000C6
:101C5800013083120313C602FB304602031C382EE0
:101C68000530F7007708C600FB01C201C20A8B15D0
:101C7800831203134203031D0800061D08001A30CF
:101C8800F800F830F700F70B472EF80B472E000046
:101C980083120313C20108000A128A152A240A12A1
:101CA8008A15D030F2000030F3000A128A15382461
:101CB8000A128A151130F2000030F3000A128A1550
:101CC80038240A128A150A128A1531240A128A152A
:101CD8000A128A152A240A128A15D130F200003015
:101CE800F3000A128A1538240A128A150030F20005
:101CF800F3000A128A151C250A128A157208F800C0
:101D0800780883120313A1000030F200F3000A12CE
:101D18008A151C250A128A150A128A15312483127B
:101D2800031321080800F801F51FA12EF409F5098D
:101D3800F40A0319F50AF801F80AF31FA82EF209A4
:101D4800F309F20A0319F30A720873040319D52E6A
:101D5800F701F70AF31BBC2E01300310F20DF30D47
:101D6800FF3E031DB12E0130F6007608F707AE2EB0
:101D780073087502031DC22E72087402031CCA2E52
:101D88007208F4027308031CF503F502013003100E
:101D9800F30CF20CFF3E031DCB2E0130F702031D9E
:101DA800BC2E78080319DD2EF409F509F40A031985
:101DB800F50A7508F3007408F2000800831203138B
:101DC800A501A11FEE2EA009A109A00A0319A10AC5
:101DD800A501A50AA31FF92EA209A309A20A03199E
:101DE800A30A0130F8007808A506A601A701200873
:101DF80021040319302FA401A40AA11B0F2F0130BD
:101E08000310A00DA10DFF3E031D042F0130F800A3
:101E18007808A407012F01300310A60DA70DFF3E77
:101E2800031D102F21082302031D1C2F2008220246
:101E3800031C252F2008A2022108031CA303A302C8
:101E4800261401300310A10CA00CFF3E031D262F01
:101E58000130A402031D0F2F25080319382FA609E6
:101E6800A709A60A0319A70A2708A1002608A0009F
:101E78000800003083120313A4000030A3000030D0
:101E8800A2000030A10075087404730472040319D9
:101E9800942FA501A50AF51B5F2F0130A0000310A0
:101EA800F20DF30DF40DF50DA00B532F0130A0002A
:101EB8002008A5074F2F0130A0000310A10DA20D87
:101EC800A30DA40DA00B612F75087902031D762FB1
:101ED80074087802031D762F73087702031D762F86
:101EE80072087602031C872F7208F6027308031C17
:101EF800730FF7027408031C740FF8027508031CAB
:101F0800750FF902211401300310F50CF40CF30CD1
:101F1800F20CFF3E031D882F0130A502031D5F2F21
:101F28002408F5002308F4002208F3002108F20031
:101F38000800F400C42F3030C02F3130C02F3230A9
:101F4800C02F3330C02F3430C02F3530C02F36303B
:101F5800C02F3730C02F3830C02F3930C02F413014
:101F6800C02F4230C02F4330C02F4430C02F4530DF
:101F7800C02F4630C02FD630F2007208F500FE2F71
:101F88007408F200F3017308003A0319CC2FBF2F2D
:101F98007208003A03199F2F013A0319A12F033A37
:101FA8000319A32F013A0319A52F073A0319A72FDD
:101FB800013A0319A92F033A0319AB2F013A031960
:101FC800AD2F0F3A0319AF2F013A0319B12F033A76
:101FD8000319B32F013A0319B52F073A0319B72F7D
:101FE800013A0319B92F033A0319BB2F013A031910
:081FF800BD2FBF2F7508080082
:04400E00D4E0FFFFFC
:00000001FF
