:020000040000FA
:060000000A128A110C280F
:10000800FE00030EF0000A08F1000A128A151B28E8
:100018000A128A110F2883135F30FD000730FE0093
:10002800F230FF00553084000A128A1541200A1266
:100038008A114330840055300A128A11F826FA01D1
:10004800FB0183010A128A15662D83120313BA0075
:100058002C2B0430B7003708A80002300A128A1186
:1000680026260A128A11033083120313B7003708B1
:10007800A80001300A128A114E250800F501013046
:100088000A128A156F210A128A1129300A128A1552
:10009800F5200A128A11023083120313B7003708B9
:1000A800F50002300A128A156F210A128A110230ED
:1000B8000A128A150C200A128A1183120313510896
:1000C8000A128A1552240A128A1183120313B700DE
:1000D8003708CF004F08840083130008B700840A4C
:1000E8000008B80037083804031D7C282030802811
:1000F8004F0884000008303E0A128A150C200A12A4
:100108008A11831203134F08023E840083130008E8
:10011800303E0A128A150C200A128A118312031320
:100128004F08043E840083130008303E0A128A15E3
:100138000C200A128A11DF300A128A150C200A12C2
:100148008A1143300A128A150C200A128A110A30C1
:1001580083120313B7003708F50002300A128A1514
:100168006F210A128A1102300A128A150C200A120B
:100178008A118312031350080A128A1552240A128C
:100188008A1183120313B7003708CF004F08840081
:1001980083130008B700840A0008B8003708380439
:1001A800031DD8282030DC284F0884000008303E82
:1001B8000A128A150C200A128A11831203134F0897
:1001C800023E840083130008B700840A0008B800C0
:1001D80037083804031DFD284F0884000008B700BD
:1001E800840A0008B80037083804031DFD282030A9
:1001F80002294F08023E84000008303E0A128A1580
:100208000C200A128A11831203134F08043E84003B
:1002180083130008303E0A128A150C200A128A112C
:10022800DF300A128A150C200A128A1143300A128A
:100238008A150C200800F50101300A128A156F2171
:100248000A128A1165300A128A15F5200A128A11D3
:10025800053083120313B7003708F50002300A127D
:100268008A156F210A128A11053083120313B70009
:100278003708F50002300A128A156F210A128A110E
:10028800283083120313570203184F298B300A12A0
:100298008A15F52008005B305702031C5C2996304C
:1002A800570203185C297F300A128A15F5200800C6
:1002B800B5305702031C08004A300A128A15F52087
:1002C8000800F50101300A128A156F210A128A11F5
:1002D80096300A128A15F5200A128A110430831200
:1002E8000313B7003708F50002300A128A156F2188
:1002F8000A128A1103300A128A150C200A128A116E
:1003080020300A128A150C200A128A1120300A128B
:100318008A150C200A128A1135300A128A150C2007
:100328000A128A1125300A128A150C200800F501D4
:1003380001300A128A156F210A128A11AA300A128C
:100348008A15F5200A128A1100300A128A150C2023
:100358000A128A1158300A128A15F5200A128A11CF
:10036800023083120313B7003708F50002300A126F
:100378008A156F210A128A11A5300A128A15F520EA
:100388000A128A11073083120313B7003708F500E1
:1003980002300A128A156F210A128A117C300A1259
:1003A8008A150C200A128A110B3083120313B70026
:1003B8003708F50002300A128A156F210A128A11CD
:1003C800A5300A128A15F5200800F50101300A1235
:1003D8008A156F210A128A1172300A128A15F520BD
:1003E8000A128A11F501F50A02300A128A156F21DC
:1003F8000A128A11831203135208303E0A128A1510
:100408000C200A128A11083083120313B700370828
:10041800F50002300A128A156F210A128A11831216
:1004280003134D08303E0A128A150C200A128A114D
:10043800AE300A128A15F5200A128A1183120313A4
:100448004C08303E0A128A150C200800F5010230CB
:100458000A128A156F210A128A1104300A128A15A3
:100468000C200A128A11831203135208303E0A1212
:100478008A150C200800F50102300A128A156F212E
:100488000A128A1120300A128A150C200A128A11BF
:10049800073083120313B7003708F50002300A1239
:1004A8008A156F210A128A1104300A128A150C2043
:1004B8000A128A11831203134D08303E0A128A1554
:1004C8000C2008000730B7003708F50002300A1280
:1004D8008A156F210A128A1120300A128A150C20F7
:1004E8000A128A110A3083120313B7003708F5007D
:1004F80002300A128A156F210A128A1104300A1270
:100508008A150C200A128A11831203134C08303EF4
:100518000A128A150C2008000A30B7003708F500BF
:1005280002300A128A156F210A128A1120300A1223
:100538008A150C200A128A110F3083120313B70090
:100548003708F50002300A128A156F210A128A113B
:1005580001300A128A150C200800F50101300A1230
:100568008A156F210A128A113A300A128A15F52063
:100578000A128A110A168A11E2270A128A113030E1
:1005880083120313AD000030AE000A168A11F0275B
:100598000A128A11693083120313AD000030AE00CD
:1005A8000A168A11F0270A128A11831203134D08BA
:1005B800B700B8013708AD003808AE000A168A112E
:1005C800F0270A128A11831203134C08B700B801E6
:1005D8003708AD003808AE000A168A11F0270A124B
:1005E8008A11831203135208B700B8013708AD0007
:1005F8003808AE000A168A11F0270A128A110A165C
:100608008A11E9270A128A11033083120313B900E9
:100618008A30B8005530B700B70B102BB80B102B29
:10062800B90B102B0A128A15632083120313D40105
:1006380008000930B7003708F50001300A128A159A
:100648006F210A128A119F300A128A15F5200800B4
:100658003A08B700B8013808003A0319342B1D2BA3
:100668003708003A03192D28013A03194228033A9A
:1006780003191F29013A03196529073A03199B2908
:10068800013A0319E929033A03192A2A013A0319F5
:100698003F2A0F3A0319662A013A0319902A033AA6
:1006A8000319B12A1D2B08000A168A11E2270A121B
:1006B8008A11D03083120313AD000030AE000A1641
:1006C8008A11F0270A128A11003083120313AD0031
:1006D800AE000A168A11F0270A128A110A168A1120
:1006E800E9270A128A110A168A11E2270A128A11C0
:1006F800D13083120313AD000030AE000A168A1100
:10070800F0270A128A110030F200F3000A128A1543
:1007180043210A128A1172080A128A1579200A12CC
:100728008A1183120313AF002F08D3000A168A1107
:10073800E9270A128A110A168A11E2270A128A116F
:10074800D03083120313AD000030AE000A168A11B0
:10075800F0270A128A11013083120313AD0000300A
:10076800AE000A168A11F0270A128A110A168A118F
:10077800E9270A128A110A168A11E2270A128A112F
:10078800D13083120313AD000030AE000A168A116F
:10079800F0270A128A110030F200F3000A128A15B3
:1007A80043210A128A1172080A128A1579200A123C
:1007B8008A1183120313AF002F08DE000A168A116C
:1007C800E9270A128A110A168A11E2270A128A11DF
:1007D800D03083120313AD000030AE000A168A1120
:1007E800F0270A128A11023083120313AD00003079
:1007F800AE000A168A11F0270A128A110A168A11FF
:10080800E9270A128A110A168A11E2270A128A119E
:10081800D13083120313AD000030AE000A168A11DE
:10082800F0270A128A110030F200F3000A128A1522
:1008380043210A128A1172080A128A1579200A12AB
:100848008A1183120313AF002F08DD000A168A11DC
:10085800E9270A128A110A168A11E2270A128A114E
:10086800D03083120313AD000030AE000A168A118F
:10087800F0270A128A11033083120313AD000030E7
:10088800AE000A168A11F0270A128A110A168A116E
:10089800E9270A128A110A168A11E2270A128A110E
:1008A800D13083120313AD000030AE000A168A114E
:1008B800F0270A128A110030F200F3000A128A1592
:1008C80043210A128A1172080A128A1579200A121B
:1008D8008A1183120313AF002F08DC000A168A114D
:1008E800E9270A128A110A168A11E2270A128A11BE
:1008F800D03083120313AD000030AE000A168A11FF
:10090800F0270A128A11043083120313AD00003055
:10091800AE000A168A11F0270A128A110A168A11DD
:10092800E9270A128A110A168A11E2270A128A117D
:10093800D13083120313AD000030AE000A168A11BD
:10094800F0270A128A110030F200F3000A128A1501
:1009580043210A128A1172080A128A1579200A128A
:100968008A1183120313AF002F08DB000A168A11BD
:10097800E9270A128A110A168A11E2270A128A112D
:10098800D03083120313AD000030AE000A168A116E
:10099800F0270A128A11053083120313AD000030C4
:1009A800AE000A168A11F0270A128A110A168A114D
:1009B800E9270A128A110A168A11E2270A128A11ED
:1009C800D13083120313AD000030AE000A168A112D
:1009D800F0270A128A110030F200F3000A128A1571
:1009E80043210A128A1172080A128A1579200A12FA
:1009F8008A1183120313AF002F08DA000A168A112E
:100A0800E9270A128A110A168A11E2270A128A119C
:100A1800D03083120313AD000030AE000A168A11DD
:100A2800F0270A128A11063083120313AD00003032
:100A3800AE000A168A11F0270A128A110A168A11BC
:100A4800E9270A128A110A168A11E2270A128A115C
:100A5800D13083120313AD000030AE000A168A119C
:100A6800F0270A128A110030F200F3000A128A15E0
:100A780043210A128A1172080A128A1579200A1269
:100A88008A1183120313AF002F08D9000A168A119E
:100A9800E927080083120313AC000A30F200003083
:100AA800F3005B08A900AA012908F4002A08F50048
:100AB8000A128A15FA210A128A117208831203137C
:100AC800AB002B08AD000A30A0000030A1005B0885
:100AD800A900AA012908A2002A08A3000A128A1557
:100AE80045220A128A11831203132008AB002B082F
:100AF800AE000A30F2000030F3005A08A900AA013B
:100B08002908F4002A08F5000A128A15FA210A129F
:100B18008A11720883120313AB002B08AF000A3046
:100B2800A0000030A1005A08A900AA012908A200C3
:100B38002A08A3000A128A1545220A128A1183126A
:100B480003132008AB002B08B0000A30F200003075
:100B5800F3005908A900AA012908F4002A08F50099
:100B68000A128A15FA210A128A11720883120313CB
:100B7800AB002B08B1000A30A0000030A1005908D2
:100B8800A900AA012908A2002A08A3000A128A15A6
:100B980045220A128A11831203132008AB002B087E
:100BA800B2002808A9002908F5002C080A128A159D
:100BB8006F210A128A11831203132E08303E0A127B
:100BC8008A150C200A128A11831203132D08303E4D
:100BD8000A128A150C200A128A112F300A128A1555
:100BE8000C200A128A11831203133008303E0A12AD
:100BF8008A150C200A128A11831203132F08303E1B
:100C08000A128A150C200A128A112F300A128A1524
:100C18000C200A128A11B1300A128A15F5200A121C
:100C28008A11831203133208303E0A128A150C20E7
:100C38000A128A11831203133108303E0A128A15E8
:100C48000C20080083120313AC000A30F2000030B5
:100C5800F3005308A900AA012908F4002A08F5009E
:100C68000A128A15FA210A128A11720883120313CA
:100C7800AB002B08AD000A30A0000030A1005308DB
:100C8800A900AA012908A2002A08A3000A128A15A5
:100C980045220A128A11831203132008AB002B087D
:100CA800AE000A30F2000030F3005E08A900AA0185
:100CB8002908F4002A08F5000A128A15FA210A12EE
:100CC8008A11720883120313AB002B08AF000A3095
:100CD800A0000030A1005E08A900AA012908A2000E
:100CE8002A08A3000A128A1545220A128A118312B9
:100CF80003132008AB002B08B0000A30F2000030C4
:100D0800F3005D08A900AA012908F4002A08F500E3
:100D18000A128A15FA210A128A1172088312031319
:100D2800AB002B08B1000A30A0000030A1005D081C
:100D3800A900AA012908A2002A08A3000A128A15F4
:100D480045220A128A11831203132008AB002B08CC
:100D5800B2002808A9002908F5002C080A128A15EB
:100D68006F210A128A11831203133208303E0A12C5
:100D78008A150C200A128A11831203133108303E97
:100D88000A128A150C200A128A113A300A128A1598
:100D98000C200A128A11831203133008303E0A12FB
:100DA8008A150C200A128A11831203132F08303E69
:100DB8000A128A150C200A128A113A300A128A1568
:100DC8000C200A128A11831203132E08303E0A12CD
:100DD8008A150C200A128A11831203132D08303E3B
:100DE8000A128A150C20080064008001840A04068F
:100DF800031900340406F92E07308A000408840A0F
:100E08008207003404340A340A341134113411349A
:100E18000E34003404340A340A340E340E341F34C9
:100E28001F340E340234043400340E3401340F34C9
:100E380011340F34003408340C340A3409340A34B9
:100E48000C340834003408340C340E340F340E34A7
:100E58000C34083441346D346234693465346E348A
:100E6800743465343A3420345334753465346C340E
:100E78006F343A340034563461346D346F346E3420
:100E88006F347334203450346534723472346F34B0
:100E980073342134003445344D34453452344734A6
:100EA80045344E34433449344134213420342034D9
:100EB800003473343A3420347C3420344634723469
:100EC80065346E34743465343A34003449346E34DD
:100ED80063346C3469346E346134633469346F3428
:100EE8006E343A34003454346F346D3461347234AF
:100EF80020346434613474346F3473343A340034D5
:100F0800503465346C346934673472346F34213446
:100F1800203420342034003445347334743461343C
:100F280062346C346534203420342034003448343E
:100F380075346D3465346434613464343A3400345F
:100F48004534523452344F34523400342D342D3415
:100F58002D342D34003441347434723400347834F0
:100F68002034003432343034003463346D34003487
:100F780028308312031394008316031391018312FC
:100F880003132608AA002708AB002808AC00290884
:100F9800AD0002300310AA0DAB0DAC0DAD0DFF3E38
:100FA800031DCE2F2D08F5002C08F4002B08F300A4
:100FB8002A08F2000030F9003D30F8000930F70047
:100FC8000030F6000A128A15A0227208FF3E831626
:100FD80003139300940187150716080066346634D6
:100FE8000434053414340334063405341034153409
:10100600831603131419032811081F39031908003E
:101016000328F3008312031305147308880085144C
:101026000D30F200F20B1528831203138510080009
:101036000B188B1D25280B107B08031D2528FB018B
:10104600FB0A8B1171088A00700E8300FE0E7E0E5D
:101056000900F500F401751C34287208F3007308C2
:10106600F4070310F20D0310F50C7508031D2E2866
:10107600740808007E088A007F0882003D200A1254
:101086008A158000840A04087D0603190034FF0AC5
:101096000319FE0A4128831603131812181583161E
:1010A6000317871567308316031399009A01831275
:1010B60003139817181318168316031398160800A7
:1010C60000300A128A159B210A128A1501300A126B
:1010D6008A159B210A128A150630F6003030F50073
:1010E600F50B7328F60B732800000800F9000F3083
:1010F6007905F6000A30F7007708F2007908F8005B
:1011060004300310F80CFF3E031D842878080A12E9
:101116008A152C207607080005300A128A15D62370
:101126000A128A15831203130C131E08F50075089C
:10113600D1000D30F600FB30F500F50BA028F60BBC
:10114600A028A528080006300A128A15D6230A12F6
:101156008A15831203130C131E08F5007508D000B8
:101166000D30F600FB30F500F50BB728F60BB72867
:10117600BC28080007300A128A15D6230A128A15D7
:10118600831203130C131E08F5007508D7000D30E3
:10119600F600FB30F500F50BCE28F60BCE28D3284B
:1011A6000800F601F701721CDE287408F60703181A
:1011B600F70A7508F70701300310F40DF50DFF3E29
:1011C600031DDF2801300310F30CF20CFF3E031D54
:1011D600E62872087304031DD6287708F3007608FC
:1011E600F2000800F600F401F501740876078400A1
:1011F6000A128A1100270A128A15003A03190800F2
:101206007408760784000A128A1100270A128A15C2
:101216000A128A150C200A128A150130F4070318DF
:10122600F50A0030F507F828F7000730F6007608CB
:10123600F7057708F60002300310F60DFF3E031D92
:101246001F290310760D40380A128A159B210A12AF
:101256008A15F8017808750784000A128A11002792
:101266000A128A150A128A150C200A128A150130EA
:10127600F6007608F80708307802031808002D29CA
:101286000A128A1503200A128A158316031391156A
:101296000A128A1503200A128A15831203131308E9
:1012A600F400F5017408F6007508F7000A128A15AD
:1012B60003200A128A1572037304031D6629831616
:1012C60003139112692983160313911611167708D1
:1012D600F3007608F2000800F8008A297508803EB7
:1012E600F6007608F90079080A128A159B2108008B
:1012F6007508C03EF6007608F90079080A128A15C4
:101306009B21080080300A128A159B210800780864
:10131600F600F7017708003A03199229852976081D
:10132600013A03197129033A03197B298529080013
:10133600F4008312031305100730F3007D30F2002A
:10134600F20BA329F30BA329831203138514073089
:10135600F3007D30F200F20BAE29F30BAE297408D0
:101366008312031388000730F3007D30F200F20B7E
:10137600BA29F30BBA298312031385100730F30039
:101386007D30F200F20BC529F30BC5290800F900E0
:101396000A3083120313A0000030A1007908A800C8
:1013A600A9012808A2002908A3000A128A154522C5
:1013B6000A128A15831203132008AA0004300310A8
:1013C600AA0DFF3E031DE2290A30F2000030F300A9
:1013D6007908AB00AC012B08F4002C08F5000A12C2
:1013E6008A15FA217208831203132A070800F801E6
:1013F600F51F042AF409F509F40A0319F50AF80198
:10140600F80AF31F0B2AF209F309F20A0319F30A81
:10141600720873040319382AF701F70AF31B1F2A07
:1014260001300310F20DF30DFF3E031D142A0130A7
:10143600F6007608F707112A73087502031D252A98
:1014460072087402031C2D2A7208F4027308031C26
:10145600F503F50201300310F30CF20CFF3E031DF9
:101466002E2A0130F702031D1F2A78080319402A85
:10147600F409F509F40A0319F50A7508F300740866
:10148600F200080083120313A501A11F512AA00927
:10149600A109A00A0319A10AA501A50AA31F5C2A8E
:1014A600A209A309A20A0319A30A0130F8007808C1
:1014B600A506A601A701200821040319932AA40161
:1014C600A40AA11B722A01300310A00DA10DFF3E34
:1014D600031D672A0130F8007808A407642A013042
:1014E6000310A60DA70DFF3E031D732A2108230234
:1014F600031D7F2A20082202031C882A2008A20234
:101506002108031CA303A302261401300310A10C17
:10151600A00CFF3E031D892A0130A402031D722A76
:10152600250803199B2AA609A709A60A0319A70ACB
:101536002708A1002608A000080000308312031324
:10154600A4000030A3000030A2000030A1007508FE
:101556007404730472040319F72AA501A50AF51B7E
:10156600C22A0130A0000310F20DF30DF40DF50DA3
:10157600A00BB62A0130A0002008A507B22A013028
:10158600A0000310A10DA20DA30DA40DA00BC42A4B
:1015960075087902031DD92A74087802031DD92A11
:1015A60073087702031DD92A72087602031CEA2AF9
:1015B6007208F6027308031C730FF7027408031C03
:1015C600740FF8027508031C750FF9022114013017
:1015D6000310F50CF40CF30CF20CFF3E031DEB2A82
:1015E6000130A502031DC22A2408F5002308F400D1
:1015F6002208F3002108F20008001A30F600F8303D
:10160600F500F50B042BF60B042B000030300A1204
:101616008A159B210A128A150730F6007D30F500DF
:10162600F50B132BF60B132B30300A128A159B2160
:101636000A128A152130F500F50B1F2B30300A12DD
:101646008A159B210A128A152130F500F50B292BE4
:1016560038300A128A159B210A128A151130F500B4
:10166600F50B332B000008300A128A159B210A124B
:101676008A151130F500F50B3E2B000001300A12D9
:101686008A159B210A128A150430F600E430F5000B
:10169600F50B4B2BF60B4B2B000006300A128A1566
:1016A6009B210A128A151130F500F50B582B000004
:1016B6000C300A128A159B210A128A151130F50080
:1016C600F50B632B000008007B03031DC42B7A086F
:1016D600031DC42B83120313861CAD2BC42B0130B0
:1016E600F7007708D20704305202031CC02BD20140
:1016F600D20AC02B0130F7007708CD0709304D021A
:10170600031CC02BCD01CD0AC02B0130F700770892
:10171600CC0709304C02031CC02BCC01CC0AC02BD1
:101726000A128A1563200A128A150D30F800FB305A
:10173600F700F70B9C2BF80B9C2BA12B0130F70025
:10174600770883120313D40706305402031CC02BF8
:10175600D401C02B5408F700F8017808003A0319A1
:10176600B52B932B7708063A0319722B013A031906
:101776007D2B0F3A0319882B932BFB01FA01FA0AEA
:101786008B157A03031D080083120313861C0800B9
:101796000D30F800FB30F700F70BCF2BF80BCF2BF3
:1017A600D42BFA010800F400831203139F131F17AA
:1017B6000B2C062C9F12EE2B9F12F12B9F12F42B53
:1017C6009F12F72B9F12FA2B9F12FE2B9F12022CB1
:1017D6009F16072C9F161F12FB2B9F161F12FF2BFF
:1017E6009F161F12032C9F161F16082C9F161F16D6
:1017F6009F11042C9F161F169F15092C9F161F1646
:101806009F151F15452C9F121F129F111F11452C46
:101816007408F200F3017308003A0319132C062C1E
:101826007208003A0319DC2B013A0319DD2B033A3F
:101836000319DF2B013A0319E12B073A0319E32BAE
:10184600013A0319E52B033A0319E72B013A031969
:10185600E92B0F3A0319EB2B013A0319ED2B033A47
:101866000319F02B013A0319F32B073A0319F62B48
:10187600013A0319F92B033A0319FD2B013A03190F
:10188600012C062C831603139F139F121F1283121B
:1018960003131F140C139F149F1C08004F2C831254
:1018A6000313B600303084000630FF008313800136
:1018B600840AFF0B592C6430A0000030A1003608C2
:1018C600A800A9012808A2002908A3000A128A155F
:1018D60045220A128A15831203132108B100200833
:1018E600B0003008A8002808AF000A30A000003079
:1018F600A1002F08A800A9012808F2002908F30072
:101906009C30F400FF30F5000A128A15D4200A1222
:101916008A158312031336087207A2007308031888
:10192600730AA3000A128A1545220A128A1583121F
:1019360003132108B3002008B2003208A8002808C3
:10194600AE002F08A800A9012808F2002908F30014
:101956009C30F400FF30F5000A128A15D4200A12D2
:101966008A158312031336087207AA007308031830
:10197600730AAB002E08AC00AD012C08F2002D084E
:10198600F300F630F400FF30F5000A128A15D42071
:101996007208831203132A07B40073080318730A24
:1019A6002B07B5003030080083160313860100307C
:1019B600F5003D30F4000930F3000030F2000A1261
:1019C6008A15A3260A128A15063083160313860083
:1019D60083160317890106308316031395008113B6
:1019E600063096008B158B17880183120313850129
:1019F6008316031385010730890070308316031799
:101A060088000A128A1500230A128A1511308312D9
:101A16000313B1003108F50000300A128A151721A8
:101A26000A128A15213083120313B1003108F5001A
:101A360001300A128A1517210A128A1509308312F3
:101A46000313B1003108F50002300A128A15172176
:101A56000A128A15013083120313B1003108F5000A
:101A660003300A128A1517210A128A1519308312B1
:101A76000313B1003108F50004300A128A15172144
:101A86000A128A150A128A1563200A128A158030EC
:101A9600F2002530F3000A128A154E200A128A1522
:101AA600003083120313A9000130A8008630A70076
:101AB600A030A6000A128A11BC270A128A150A1239
:101AC6008A154F2708000A128A15D7240A128A1582
:101AD6007D300A168A11F8270A128A150D308312EC
:101AE6000313C200FB30C100C10B772DC20B772D4B
:101AF6000A128A1158230A128A15831203135D08E3
:101B06000A168A11F8270A128A154130831203131E
:101B1600C200ED30C100C10B8E2DC20B8E2D932D50
:101B2600831203135E080A168A11F8270A128A1509
:101B3600413083120313C200ED30C100C10BA12D49
:101B4600C20BA12DA62D8312031353080A168A1160
:101B5600F8270A128A150A128A158F200A128A1580
:101B66008312031351080A168A11F8270A128A15D6
:101B76000A128A15A6200A128A1583120313500820
:101B86000A168A11F8270A128A150A128A15BD2022
:101B96000A128A158312031357080A168A11F827A0
:101BA6000A128A158312031354080A128A1129206D
:101BB6000A128A150A128A1567230A128A150A1248
:101BC6008A15FA250A128A1505300A168A11F82787
:101BD6000A128A1566300A168A11F8270A128A1519
:101BE60066300A168A11F8270A128A156B2D7B03AE
:101BF600031D8E2E831203134E08031D8E2E061D03
:101C06006F2E882E0630602EF50102300A128A15D4
:101C16006F210A128A1501300A128A150C200A123F
:101C26008A15823083120313A100DD30A000A00BB9
:101C36001A2EA10B1A2E07305E2E0730A0002008A0
:101C4600F50002300A128A156F210A128A15013030
:101C56000A128A150C200A128A158230831203137F
:101C6600A100DD30A000A00B362EA10B362E0830C9
:101C76005E2E0A30A0002008F50002300A128A15EE
:101C86006F210A128A1501300A128A150C200A12CF
:101C96008A15823083120313A100DD30A000A00B49
:101CA600522EA10B522E09305E2E0A128A1563207F
:101CB6000A128A150A3083120313A0002008D400E2
:101CC600882E0D3083120313A100FB30A000A00B59
:101CD6006A2EA10B6A2E882E5408A000A1012108A5
:101CE600003A0319772E642E2008053A0319052EAB
:101CF600033A0319072E013A0319202E0F3A031946
:101D06003C2E013A0319582E642EFB01831203134D
:101D1600CE01CE0A8B15831203134E03031D080052
:101D2600061D08000D3083120313A100FB30A0002E
:101D3600A00B9B2EA10B9B2E83120313CE01080032
:101D4600DF2E7030831603138F04080083160313E7
:101D56000F088F3960388F000800831603130F08A9
:101D66008F3950388F000800831603130F088F39F8
:101D760040388F000800831603130F088F39303858
:101D86008F000800831603130F088F3920388F0041
:101D96000800831603130F088F3910388F000800C8
:101DA6008F30831603138F050800831603130F085D
:101DB6008F3960388F0008007508003A0319342FF0
:101DC600D82E73087D3A0319E92ED82E7208003AE8
:101DD6000319D32ED82E7308E83A0319F32ED82EFA
:101DE6007208483A0319CC2ED82E7308D03A031934
:101DF600FD2ED82E7208903A0319C52ED82E7308D8
:101E0600A13A0319072FD82E7208203A0319BE2EBD
:101E1600D82E7308423A0319112FD82E7208403A69
:101E26000319B72ED82E7308843A03191B2FD82E00
:101E36007208803A0319B02ED82E7308093A03198E
:101E4600252FD82E7208003A0319A92ED82E73080A
:101E5600123A03192F2FD82E7208003A0319A42E0E
:101E6600D82E7408003A0319E42E013A0319EE2E0F
:101E7600023A0319F82E043A0319022F083A0319F5
:101E86000C2F113A0319162F233A0319202F473A1C
:101E960003192A2FD82E08000A168A11E2270A12D9
:101EA6008A15D03083120313AD000030AE000A1637
:101EB6008A11F0270A128A15003083120313AD0027
:101EC600AE000A168A11F0270A128A158312031326
:101ED60053080A128A15CA210A128A158312031395
:101EE600AF00B0012F08AD003008AE000A168A1107
:101EF600F0270A128A15831203135E080A128A153E
:101F0600CA210A128A1583120313AF00B0012F08E3
:101F1600AD003008AE000A168A11F0270A128A159B
:101F2600831203135D080A128A15CA210A128A153A
:101F360083120313AF00B0012F08AD003008AE00C6
:101F46000A168A11F0270A128A15831203135C08EF
:101F56000A128A15CA210A128A1583120313AF00C0
:101F6600B0012F08AD003008AE000A168A11F0271E
:101F76000A128A15831203135B080A128A15CA21EC
:101F86000A128A1583120313AF00B0012F08AD00A1
:101F96003008AE000A168A11F0270A128A15831233
:101FA60003135A080A128A15CA210A128A158312BD
:101FB6000313AF00B0012F08AD003008AE000A16BB
:101FC6008A11F0270A128A158312031359080A1276
:101FD6008A15CA210A128A1583120313AF00B001AB
:101FE6002F08AD003008AE000A168A11F0270A1233
:0A1FF6008A150A168A11E92708006F
:102FC4000A128A15032083160313111408000A1227
:102FD4008A15032083160313111508000A128A1593
:102FE4000320831203132D0893000800F2007208D3
:0C2FF4008312031399000C1A0800FD2F33
:04400E00D4E0FFFFFC
:00000001FF
