:020000040000FA
:060000000A128A110C280F
:10000800FE00030EF0000A08F1000A168A11DE2F1E
:100018000A128A110F2883135F30FD000830FE0092
:10002800BC30FF00553084000A128A15CA200A1213
:100038008A114330840055300A168A11BE27FA0106
:10004800FB0183010A128A15662D83120313BA0075
:10005800212B0430B7003708A80002300A128A1191
:10006800FA260A128A11033083120313B7003708DD
:10007800A80001300A128A1122260800F501013071
:100088000A128A15F8210A128A1129300A128A15C9
:100098007E210A128A11023083120313B70037082F
:1000A800F50002300A128A15F8210A128A11023064
:1000B8000A168A11CF270A128A11831203135108CC
:1000C8000A128A15E1240A128A1183120313B7004F
:1000D8003708CF004F08840083130008B700840A4C
:1000E8000008B80037083804031D7C282030802811
:1000F8004F0884000008303E0A168A11CF270A12DA
:100108008A11831203134F08023E840083130008E8
:10011800303E0A168A11CF270A128A118312031356
:100128004F08043E840083130008303E0A168A11E3
:10013800CF270A128A11DF300A168A11CF270A122E
:100148008A1143300A168A11CF270A128A110A30F7
:1001580083120313B7003708F50002300A128A1514
:10016800F8210A128A1102300A168A11CF270A12B8
:100178008A118312031350080A128A15E1240A12FD
:100188008A1183120313B7003708CF004F08840081
:1001980083130008B700840A0008B8003708380439
:1001A800031DD8282030DC284F0884000008303E82
:1001B8000A168A11CF270A128A11831203134F08CD
:1001C800023E840083130008B700840A0008B800C0
:1001D80037083804031DFD284F0884000008B700BD
:1001E800840A0008B80037083804031DFD282030A9
:1001F80002294F08023E84000008303E0A168A1180
:10020800CF270A128A11831203134F08043E840071
:1002180083130008303E0A168A11CF270A128A1162
:10022800DF300A168A11CF270A128A1143300A16BC
:100238008A11CF270800F50101300A128A15F82122
:100248000A128A1162300A128A157E210A128A114C
:10025800053083120313B7003708F50002300A127D
:100268008A15F8210A128A11053083120313B70080
:100278003708F50002300A128A15F8210A128A1185
:10028800283083120313570203184F2988300A12A3
:100298008A157E2108005B305702031C5C299630C2
:1002A800570203185C297C300A128A157E2108003F
:1002B800B5305702031C08003A300A128A157E210D
:1002C8000800F50101300A128A15F8210A128A116C
:1002D80093300A128A157E210A128A110430831279
:1002E8000313B7003708F50002300A128A15F821FF
:1002F8000A128A1103300A168A11CF270A128A11A4
:1003080020300A168A11CF270A128A1120300A16BD
:100318008A11CF270A128A1135300A168A11CF2777
:100328000A128A1125300A168A11CF270800F5010A
:1003380001300A128A15F8210A128A11A7300A1206
:100348008A157E210A128A1100300A168A11CF27CF
:100358000A128A1155300A128A157E210A128A1148
:10036800023083120313B7003708F50002300A126F
:100378008A15F8210A128A11A2300A128A157E21DA
:100388000A128A11073083120313B7003708F500E1
:1003980002300A128A15F8210A128A117C300A16CC
:1003A8008A11CF270A128A110B3083120313B70060
:1003B8003708F50002300A128A15F8210A128A1144
:1003C800A2300A128A157E210800F50101300A12AE
:1003D8008A15F8210A128A116F300A128A157E21AD
:1003E8000A128A11F501F50A02300A128A15F82153
:1003F8000A128A11831203135208303E0A168A1110
:10040800CF270A128A11083083120313B70037085E
:10041800F50002300A128A15F8210A128A1183128D
:1004280003134D08303E0A168A11CF270A128A1183
:10043800AB300A128A157E210A128A11831203131D
:100448004C08303E0A168A11CF270800F501023001
:100458000A128A15F8210A128A1104300A168A111A
:10046800CF270A128A11831203135208303E0A1644
:100478008A11CF270800F50102300A128A15F821DF
:100488000A128A1120300A168A11CF270A128A11F5
:10049800073083120313B7003708F50002300A1239
:1004A8008A15F8210A128A1104300A168A11CF27F0
:1004B8000A128A11831203134D08303E0A168A1154
:1004C800CF2708000730B7003708F50002300A12B6
:1004D8008A15F8210A128A1120300A168A11CF27A4
:1004E8000A128A110A3083120313B7003708F5007D
:1004F80002300A128A15F8210A128A1104300A16E3
:100508008A11CF270A128A11831203134C08303E2E
:100518000A168A11CF2708000A30B7003708F500F5
:1005280002300A128A15F8210A128A1120300A1696
:100538008A11CF270A128A110F3083120313B700CA
:100548003708F50002300A128A15F8210A128A11B2
:1005580001300A168A11CF270800F50101300A1266
:100568008A15F8210A128A1148300A128A157E2142
:100578000A128A110A168A11A0270A128A11303023
:1005880083120313AD000030AE000A168A11AE279D
:100598000A128A11831203135208B700B8013708E8
:1005A800AD003808AE000A168A11AE270A128A1161
:1005B800831203134D08B700B8013708AD00380897
:1005C800AE000A168A11AE270A128A118312031383
:1005D8004C08B700B8013708AD003808AE000A1655
:1005E8008A11AE270A128A110A168A11A7270A1237
:1005F8008A11033083120313B9008A30B8005530CA
:10060800B700B70B052BB80B052BB90B052B0A1236
:100618008A15EC2083120313D40108000930B700AF
:100628003708F50001300A128A15F8210A128A11D2
:100638009C300A128A157E2108003A08B700B801D2
:100648003808003A0319292B122B3708003A0319E6
:100658002D28013A03194228033A03191F29013AA0
:1006680003196529073A03199B29013A0319E9294E
:10067800033A03192A2A013A03193F2A0F3A0319A0
:10068800662A013A0319902A033A0319B12A122B50
:1006980008000A168A11A0270A128A11D03083127C
:1006A8000313AD000030AE000A168A11AE270A12F5
:1006B8008A11003083120313AD00AE000A168A11A6
:1006C800AE270A128A110A168A11A7270A128A1156
:1006D8000A168A11A0270A128A11D130831203132D
:1006E800AD000030AE000A168A11AE270A128A1130
:1006F8000030F200F3000A128A15CC210A128A117E
:1007080072080A128A1502210A128A118312031327
:10071800AF002F08D3000A168A11A7270A128A11D8
:100728000A168A11A0270A128A11D03083120313DD
:10073800AD000030AE000A168A11AE270A128A11DF
:10074800013083120313AD000030AE000A168A117F
:10075800AE270A128A110A168A11A7270A128A11C5
:100768000A168A11A0270A128A11D130831203139C
:10077800AD000030AE000A168A11AE270A128A119F
:100788000030F200F3000A128A15CC210A128A11ED
:1007980072080A128A1502210A128A118312031397
:1007A800AF002F08DE000A168A11A7270A128A113D
:1007B8000A168A11A0270A128A11D030831203134D
:1007C800AD000030AE000A168A11AE270A128A114F
:1007D800023083120313AD000030AE000A168A11EE
:1007E800AE270A128A110A168A11A7270A128A1135
:1007F8000A168A11A0270A128A11D130831203130C
:10080800AD000030AE000A168A11AE270A128A110E
:100818000030F200F3000A128A15CC210A128A115C
:1008280072080A128A1502210A128A118312031306
:10083800AF002F08DD000A168A11A7270A128A11AD
:100848000A168A11A0270A128A11D03083120313BC
:10085800AD000030AE000A168A11AE270A128A11BE
:10086800033083120313AD000030AE000A168A115C
:10087800AE270A128A110A168A11A7270A128A11A4
:100888000A168A11A0270A128A11D130831203137B
:10089800AD000030AE000A168A11AE270A128A117E
:1008A8000030F200F3000A128A15CC210A128A11CC
:1008B80072080A128A1502210A128A118312031376
:1008C800AF002F08DC000A168A11A7270A128A111E
:1008D8000A168A11A0270A128A11D030831203132C
:1008E800AD000030AE000A168A11AE270A128A112E
:1008F800043083120313AD000030AE000A168A11CB
:10090800AE270A128A110A168A11A7270A128A1113
:100918000A168A11A0270A128A11D13083120313EA
:10092800AD000030AE000A168A11AE270A128A11ED
:100938000030F200F3000A128A15CC210A128A113B
:1009480072080A128A1502210A128A1183120313E5
:10095800AF002F08DB000A168A11A7270A128A118E
:100968000A168A11A0270A128A11D030831203139B
:10097800AD000030AE000A168A11AE270A128A119D
:10098800053083120313AD000030AE000A168A1139
:10099800AE270A128A110A168A11A7270A128A1183
:1009A8000A168A11A0270A128A11D130831203135A
:1009B800AD000030AE000A168A11AE270A128A115D
:1009C8000030F200F3000A128A15CC210A128A11AB
:1009D80072080A128A1502210A128A118312031355
:1009E800AF002F08DA000A168A11A7270A128A11FF
:1009F8000A168A11A0270A128A11D030831203130B
:100A0800AD000030AE000A168A11AE270A128A110C
:100A1800063083120313AD000030AE000A168A11A7
:100A2800AE270A128A110A168A11A7270A128A11F2
:100A38000A168A11A0270A128A11D13083120313C9
:100A4800AD000030AE000A168A11AE270A128A11CC
:100A58000030F200F3000A128A15CC210A128A111A
:100A680072080A128A1502210A128A1183120313C4
:100A7800AF002F08D9000A168A11A7270800831685
:100A8800031386010030F5003D30F4000930F3000F
:100A98000030F2000A128A15A3260A128A110630BB
:100AA80083160313860083160317890106308316FD
:100AB800031395008113063096008B158B17880158
:100AC80083120313850183160313850107308900F8
:100AD80070308316031788000A128A158F230A12AA
:100AE8008A11113083120313B1003108F500003068
:100AF8000A128A15A0210A128A11213083120313BF
:100B0800B1003108F50001300A128A15A0210A1235
:100B18008A11093083120313B1003108F50002303D
:100B28000A128A15A0210A128A11013083120313AE
:100B3800B1003108F50003300A128A15A0210A1203
:100B48008A11193083120313B1003108F5000430FB
:100B58000A128A15A0210A128A110A128A15EC2093
:100B68000A128A118030F2002530F3000A128A1521
:100B7800D7200A128A11003083120313A90001300A
:100B8800A8008630A700A030A6000A128A155322B2
:100B98000A128A110A128A154F270A128A11063078
:100BA80083120313B3001330B200AD30B100B10BA0
:100BB800DB2DB20BDB2DB30BDB2D0A168A11A02718
:100BC8000A128A11303083120313AD000030AE00D0
:100BD8000A168A11AE270A128A11023083120313E9
:100BE800AD000030AE000A168A11AE270A128A112B
:100BF800033083120313AD000030AE000A168A11C9
:100C0800AE270A128A11083083120313AD00003090
:100C1800AE000A168A11AE270A128A110A168A111C
:100C2800A7270A128A110D3083120313B200FB3072
:100C3800B100B10B1D2EB20B1D2E08008312031339
:100C4800AC000A30F2000030F3005B08A900AA01EA
:100C58002908F4002A08F5000A128A1589220A12BE
:100C68008A11720883120313AB002B08AD000A30F7
:100C7800A0000030A1005B08A900AA012908A20071
:100C88002A08A3000A128A15D4220A128A1183128A
:100C980003132008AB002B08AE000A30F200003026
:100CA800F3005A08A900AA012908F4002A08F50047
:100CB8000A128A1589220A128A11720883120313EA
:100CC800AB002B08AF000A30A0000030A1005A0882
:100CD800A900AA012908A2002A08A3000A128A1555
:100CE800D4220A128A11831203132008AB002B089E
:100CF800B0000A30F2000030F3005908A900AA0138
:100D08002908F4002A08F5000A128A1589220A120D
:100D18008A11720883120313AB002B08B1000A3042
:100D2800A0000030A1005908A900AA012908A200C2
:100D38002A08A3000A128A15D4220A128A118312D9
:100D480003132008AB002B08B2002808A9002908C3
:100D5800F5002C080A128A15F8210A128A11831242
:100D680003132E08303E0A168A11CF270A128A1159
:100D7800831203132D08303E0A168A11CF270A1250
:100D88008A112F300A168A11CF270A128A11831264
:100D980003133008303E0A168A11CF270A128A1127
:100DA800831203132F08303E0A168A11CF270A121E
:100DB8008A112F300A168A11CF270A128A11AE30EB
:100DC8000A128A157E210A128A1183120313320825
:100DD800303E0A168A11CF270A128A11831203138A
:100DE8003108303E0A168A11CF27080083120313F0
:100DF800AC000A30F2000030F3005308A900AA0141
:100E08002908F4002A08F5000A128A1589220A120C
:100E18008A11720883120313AB002B08AD000A3045
:100E2800A0000030A1005308A900AA012908A200C7
:100E38002A08A3000A128A15D4220A128A118312D8
:100E480003132008AB002B08AE000A30F200003074
:100E5800F3005E08A900AA012908F4002A08F50091
:100E68000A128A1589220A128A1172088312031338
:100E7800AB002B08AF000A30A0000030A1005E08CC
:100E8800A900AA012908A2002A08A3000A128A15A3
:100E9800D4220A128A11831203132008AB002B08EC
:100EA800B0000A30F2000030F3005D08A900AA0182
:100EB8002908F4002A08F5000A128A1589220A125C
:100EC8008A11720883120313AB002B08B1000A3091
:100ED800A0000030A1005D08A900AA012908A2000D
:100EE8002A08A3000A128A15D4220A128A11831228
:100EF80003132008AB002B08B2002808A900290812
:100F0800F5002C080A128A15F8210A128A11831290
:100F180003133208303E0A168A11CF270A128A11A3
:100F2800831203133108303E0A168A11CF270A129A
:100F38008A113A300A168A11CF270A128A118312A7
:100F480003133008303E0A168A11CF270A128A1175
:100F5800831203132F08303E0A168A11CF270A126C
:100F68008A113A300A168A11CF270A128A11831277
:100F780003132E08303E0A168A11CF270A128A1147
:100F8800831203132D08303E0A168A11CF27080052
:100F9800F9000A3083120313A0000030A100790879
:100FA800A800A9012808A2002908A3000A128A1586
:100FB800D4220A128A11831203132008AA000430CB
:100FC8000310AA0DFF3E031DE42F0A30F200003083
:100FD800F3007908AB00AC012B08F4002C08F500ED
:100FE8000A128A1589227208831203132A07080035
:1010000008308A000408840A8207003404340A3451
:101010000A341134113411340E34003404340A34D7
:101020000A340E340E341F341F340E3402340434A8
:1010300000340E3401340F3411340F3400340834CA
:101040000C340A3409340A340C34083400340834BB
:101050000C340E340F340E340C34083441346D34F7
:101060006234693465346E34743465343A3420340F
:101070005334753465346C346F343A340034453449
:101080004D3445345234473445344E344334493476
:101090004134213420342034003449344E3449342E
:1010A0004334493441344E3444344F342E342E3496
:1010B0002E34003473343A3420347C3420344634B3
:1010C000723465346E34743465343A3400344934DF
:1010D0006E3463346C3469346E346134633469342F
:1010E0006F346E343A34003454346F346D346134B8
:1010F000723420346434613474346F3473343A3469
:101100000034503465346C346934673472346F346D
:101110002134203420342034003445347334743482
:10112000613462346C34653420342034203400342B
:10113000483475346D3465346434613464343A341D
:1011400000344534523452344F34523400342D3448
:101150002D342D342D340034413474347234003441
:1011600078342034003432343034003463346D3415
:02117000003449
:1011780066346634043405341434033406340534D0
:10118800103415347E088A007F088200C6200A12AF
:101198008A158000840A04087D0603190034FF0AB2
:1011A8000319FE0ACA288316031318121815831682
:1011B8000317871567308316031399009A01831262
:1011C8000313981718131816831603139816080094
:1011D80000300A128A1524220A128A1501300A12CE
:1011E8008A1524220A128A150630F6003030F500D6
:1011F800F50BFC28F60BFC2800000800F9000F305E
:101208007905F6000A30F7007708F2007908F80047
:1012180004300310F80CFF3E031D0D2978080A1648
:101228008A11EF277607080005300A128A15652407
:101238000A128A15831203130C131E08F500750889
:10124800D1000D30F600FB30F500F50B2929F60B1F
:1012580029292E29080006300A128A1565240A123F
:101268008A15831203130C131E08F5007508D000A5
:101278000D30F600FB30F500F50B4029F60B402940
:101288004529080007300A128A1565240A128A15AA
:10129800831203130C131E08F5007508D7000D30D0
:1012A800F600FB30F500F50B5729F60B57295C299A
:1012B8000800F601F701721C67297408F60703187D
:1012C800F70A7508F70701300310F40DF50DFF3E16
:1012D800031D682901300310F30CF20CFF3E031DB7
:1012E8006F2972087304031D5F297708F3007608D5
:1012F800F2000800F600F401F5017408760784008E
:101308000A128A1500200A128A15003A03190800E1
:101318007408760784000A128A1500200A128A15B2
:101328000A168A11CF270A128A150130F407031802
:10133800F50A0030F5078129F7000730F60076082E
:10134800F7057708F60002300310F60DFF3E031D7F
:10135800A8290310760D40380A128A1524220A1289
:101368008A15F8017808750784000A128A15002082
:101378000A128A150A168A11CF270A128A1501300D
:10138800F6007608F8070830780203180800B6292E
:101398000A168A11C6270A128A158316031391158D
:1013A8000A168A11C6270A128A158312031313080C
:1013B800F400F5017408F6007508F7000A168A119A
:1013C800C6270A128A1572037304031DEF298316B0
:1013D80003139112F2298316031391161116770835
:1013E800F3007608F2000800F800132A7508803E1A
:1013F800F6007608F90079080A128A1524220800EE
:101408007508C03EF6007608F90079080A128A15B0
:101418002422080080300A128A152422080078083D
:10142800F600F7017708003A03191B2A0E2A7608F6
:10143800013A0319FA29033A0319042A0E2A080063
:10144800F4008312031305100730F3007D30F20017
:10145800F20B2C2AF30B2C2A831203138514073062
:10146800F3007D30F200F20B372AF30B372A7408A9
:101478008312031388000730F3007D30F200F20B6B
:10148800432AF30B432A8312031385100730F30012
:101498007D30F200F20B4E2AF30B4E2A080028305A
:1014A8008312031394008316031391018312031309
:1014B8002608AA002708AB002808AC002908AD00B8
:1014C80002300310AA0DAB0DAC0DAD0DFF3E031D90
:1014D800652A2D08F5002C08F4002B08F3002A08CB
:1014E800F2000030F9003D30F8000930F700003014
:1014F800F6000A128A152F237208FF3E831603137B
:1015080093009401871507160800F801F51F932A20
:10151800F409F509F40A0319F50AF801F80AF31FA2
:101528009A2AF209F309F20A0319F30A72087304F2
:101538000319C72AF701F70AF31BAE2A0130031073
:10154800F20DF30DFF3E031DA32A0130F6007608C5
:10155800F707A02A73087502031DB42A72087402DB
:10156800031CBC2A7208F4027308031CF503F50275
:1015780001300310F30CF20CFF3E031DBD2A0130AD
:10158800F702031DAE2A78080319CF2AF409F509D2
:10159800F40A0319F50A7508F3007408F200080044
:1015A80083120313A501A11FE02AA009A109A00A1B
:1015B8000319A10AA501A50AA31FEB2AA209A309D9
:1015C800A20A0319A30A0130F8007808A506A601A3
:1015D800A701200821040319222BA401A40AA11B96
:1015E800012B01300310A00DA10DFF3E031DF62AAB
:1015F8000130F8007808A407F32A01300310A60D7B
:10160800A70DFF3E031D022B21082302031D0E2BED
:1016180020082202031C172B2008A2022108031C01
:10162800A303A302261401300310A10CA00CFF3E53
:10163800031D182B0130A402031D012B25080319D3
:101648002A2BA609A709A60A0319A70A2708A10091
:101658002608A0000800003083120313A4000030FD
:10166800A3000030A2000030A100750874047304C0
:1016780072040319862BA501A50AF51B512B01300D
:10168800A0000310F20DF30DF40DF50DA00B452B82
:101698000130A0002008A507412B0130A00003104D
:1016A800A10DA20DA30DA40DA00B532B7508790253
:1016B800031D682B74087802031D682B73087702D2
:1016C800031D682B72087602031C792B7208F60238
:1016D8007308031C730FF7027408031C740FF802D5
:1016E8007508031C750FF902211401300310F50C5D
:1016F800F40CF30CF20CFF3E031D7A2B0130A5020B
:10170800031D512B2408F5002308F4002208F300D8
:101718002108F20008001A30F600F830F500F50B41
:10172800932BF60B932B000030300A128A152422D3
:101738000A128A150730F6007D30F500F50BA22B4A
:10174800F60BA22B30300A128A1524220A128A15A7
:101758002130F500F50BAE2B30300A128A15242201
:101768000A128A152130F500F50BB82B38300A1209
:101778008A1524220A128A151130F500F50BC22B9E
:10178800000008300A128A1524220A128A1511301C
:10179800F500F50BCD2B000001300A128A15242222
:1017A8000A128A150430F600E430F500F50BDA2B3E
:1017B800F60BDA2B000006300A128A1524220A12C8
:1017C8008A151130F500F50BE72B00000C300A12D2
:1017D8008A1524220A128A151130F500F50BF22B0E
:1017E800000008007B03031D532C7A08031D532CAB
:1017F80083120313861C3C2C532C0130F700770806
:10180800D20704305202031C4F2CD201D20A4F2CAB
:101818000130F7007708CD0709304D02031C4F2C23
:10182800CD01CD0A4F2C0130F7007708CC070930DD
:101838004C02031C4F2CCC01CC0A4F2C0A128A15DF
:10184800EC200A128A150D30F800FB30F700F70B70
:101858002B2CF80B2B2C302C0130F7007708831237
:101868000313D40706305402031C4F2CD4014F2C09
:101878005408F700F8017808003A0319442C222C80
:101888007708063A0319012C013A03190C2C0F3A70
:101898000319172C222CFB01FA01FA0A8B157A037B
:1018A800031D080083120313861C08000D30F8007E
:1018B800FB30F700F70B5E2CF80B5E2C632CFA015B
:1018C8000800F400831203139F131F179A2C952CFA
:1018D8009F127D2C9F12802C9F12832C9F12862C86
:1018E8009F12892C9F128D2C9F12912C9F16962C3B
:1018F8009F161F128A2C9F161F128E2C9F161F12BE
:10190800922C9F161F16972C9F161F169F11932C0B
:101918009F161F169F15982C9F161F169F151F158B
:10192800D42C9F121F129F111F11D42C7408F2007F
:10193800F3017308003A0319A22C952C7208003A97
:1019480003196B2C013A03196C2C033A03196E2CFA
:10195800013A0319702C073A0319722C013A03193A
:10196800742C033A0319762C013A0319782C0F3A90
:1019780003197A2C013A03197C2C033A03197F2C9A
:10198800013A0319822C073A0319852C013A0319E5
:10199800882C033A03198C2C013A0319902C952CA6
:1019A800831603139F139F121F12831203131F140E
:1019B8000C139F149F1C0800DE2C83120313B6001F
:1019C800303084000630FF0083138001840AFF0B47
:1019D800E82C6430A0000030A1003608A800A90156
:1019E8002808A2002908A3000A128A15D4220A127C
:1019F8008A15831203132108B1002008B0003008AB
:101A0800A8002808AF000A30A0000030A1002F0865
:101A1800A800A9012808F2002908F3009C30F40066
:101A2800FF30F5000A128A155D210A128A15831201
:101A3800031336087207A20073080318730AA30079
:101A48000A128A15D4220A128A158312031321084E
:101A5800B3002008B2003208A8002808AE002F08FA
:101A6800A800A9012808F2002908F3009C30F40016
:101A7800FF30F5000A128A155D210A128A158312B1
:101A8800031336087207AA0073080318730AAB0019
:101A98002E08AC00AD012C08F2002D08F300F6303A
:101AA800F400FF30F5000A128A155D2172088312CE
:101AB80003132A07B40073080318730A2B07B50029
:101AC800303008000A128A1143250A128A157D301F
:101AD8000A168A11B6270A128A150D3083120313C3
:101AE800C200FB30C100C10B772DC20B772D0A1243
:101AF8008A114D230A128A15831203135D080A16E8
:101B08008A11B6270A128A15413083120313C200BC
:101B1800ED30C100C10B8E2DC20B8E2D932D83127B
:101B280003135E080A168A11B6270A128A1541306D
:101B380083120313C200ED30C100C10BA12DC20BEB
:101B4800A12DA62D8312031353080A168A11B6274E
:101B58000A128A150A128A1518210A128A1583127E
:101B6800031351080A168A11B6270A128A150A128F
:101B78008A152F210A128A158312031350080A1690
:101B88008A11B6270A128A150A128A1546210A12DC
:101B98008A158312031357080A168A11B6270A12E0
:101BA8008A158312031354080A128A1129200A126B
:101BB8008A150A128A15F6230A128A150A128A1534
:101BC800FA250A128A1505300A168A11B6270A124A
:101BD8008A1566300A168A11B6270A128A156630DF
:101BE8000A168A11B6270A128A156B2D7B03031D64
:101BF8008E2E831203134E08031D8E2E061D6F2E84
:101C0800882E0630602EF50102300A128A15F82156
:101C18000A128A1501300A168A11CF270A128A1564
:101C2800823083120313A100DD30A000A00B1A2E0E
:101C3800A10B1A2E07305E2E0730A0002008F500F1
:101C480002300A128A15F8210A128A1501300A167A
:101C58008A11CF270A128A15823083120313A10032
:101C6800DD30A000A00B362EA10B362E08305E2EDC
:101C78000A30A0002008F50002300A128A15F8215F
:101C88000A128A1501300A168A11CF270A128A15F4
:101C9800823083120313A100DD30A000A00B522E66
:101CA800A10B522E09305E2E0A128A15EC200A1258
:101CB8008A150A3083120313A0002008D400882E46
:101CC8000D3083120313A100FB30A000A00B6A2E75
:101CD800A10B6A2E882E5408A000A1012108003A01
:101CE8000319772E642E2008053A0319052E033AA6
:101CF8000319072E013A0319202E0F3A03193C2E17
:101D0800013A0319582E642EFB0183120313CE01E6
:101D1800CE0A8B15831203134E03031D0800061DFC
:101D280008000D3083120313A100FB30A000A00BA4
:101D38009B2EA10B9B2E83120313CE010800DF2ECE
:101D48007030831603138F040800831603130F08DB
:101D58008F3960388F000800831603130F088F39F6
:101D680050388F000800831603130F088F39403846
:101D78008F000800831603130F088F3930388F003F
:101D88000800831603130F088F3920388F000800C6
:101D9800831603130F088F3910388F0008008F300F
:101DA800831603138F050800831603130F088F3952
:101DB80060388F0008007508003A0319342FD82EB0
:101DC80073087D3A0319E92ED82E7208003A0319D0
:101DD800D32ED82E7308E83A0319F32ED82E72089A
:101DE800483A0319CC2ED82E7308D03A0319FD2E81
:101DF800D82E7208903A0319C52ED82E7308A13A26
:101E08000319072FD82E7208203A0319BE2ED82E90
:101E18007308423A0319112FD82E7208403A031951
:101E2800B72ED82E7308843A03191B2FD82E7208A0
:101E3800803A0319B02ED82E7308093A0319252FB2
:101E4800D82E7208003A0319A92ED82E7308123A10
:101E580003192F2FD82E7208003A0319A42ED82E52
:101E68007408003A0319E42E013A0319EE2E023AD7
:101E78000319F82E043A0319022F083A03190C2FF4
:101E8800113A0319162F233A0319202F473A031939
:101E98002A2FD82E08000A168A11A0270A128A1596
:101EA800D03083120313AD000030AE000A168A1139
:101EB800AE270A128A15003083120313AD00AE0054
:101EC8000A168A11AE270A128A15831203135308B9
:101ED8000A128A11CC270A128A1583120313AF003B
:101EE800B0012F08AD003008AE000A168A11AE27DF
:101EF8000A128A15831203135E080A128A11CC2764
:101F08000A128A1583120313AF00B0012F08AD001F
:101F18003008AE000A168A11AE270A128A158312F3
:101F280003135D080A128A11CC270A128A15831234
:101F38000313AF00B0012F08AD003008AE000A1639
:101F48008A11AE270A128A15831203135C080A1233
:101F58008A11CC270A128A1583120313AF00B00125
:101F68002F08AD003008AE000A168A11AE270A12F3
:101F78008A15831203135B080A128A11CC270A12E6
:101F88008A1583120313AF00B0012F08AD00300883
:101F9800AE000A168A11AE270A128A158312031395
:101FA8005A080A128A11CC270A128A1583120313B7
:101FB800AF00B0012F08AD003008AE000A168A1134
:101FC800AE270A128A158312031359080A128A11B6
:101FD800CC270A128A1583120313AF00B0012F0809
:101FE800AD003008AE000A168A11AE270A128A150B
:081FF8000A168A11A727080050
:102F40000A168A11C62783160313111408000A16DD
:102F50008A11C62783160313111508000A168A1151
:102F6000C627831203132D0893000800F20072088D
:102F70008312031399000C1A0800BB2F6400800110
:102F8000840A0406031900340406BF2F83160313B2
:102F90001419C62F11081F3903190800C62FF30092
:102FA0008312031305147308880085140D30F20092
:102FB000F20BD82F83120313851008000B188B1DFA
:102FC000E82F0B107B08031DE82FFB01FB0A8B1178
:102FD00071088A00700E8300FE0E7E0E0900F50057
:102FE000F401751CF72F7208F3007308F40703103F
:102FF000F20D0310F50C7508031DF12F740808007D
:04400E00D4E0FFFFFC
:00000001FF
