:020000040000FA
:060000000A128A110C280F
:10000800FE00030EF2000A08F3000A128A117B2A86
:100018000A128A110F280A128A1175260A128A11E1
:10002800B7000A128A117626B800AD01AE01AF01F9
:10003800B001B101B201B301B401B501B601F601D5
:10004800F701F801F90183010A128A112B280A1213
:100058008A119B250A128A113030F4000030F5000D
:100068000A128A1119260A128A1102300A128A11F2
:10007800D5250A128A1101308312031386000A1249
:100088008A114A260A128A11623083120313A900C0
:100098006530A800A80B4E28A90B4E28831203131D
:1000A80086010A128A1132260A128A1162308312D4
:1000B8000313A9006530A800A80B6028A90B6028C5
:1000C800831203133803031D3F2836080A128A11C6
:1000D800D5250A128A11831203133408A8002808A8
:1000E800F40035080A128A1162260A128A1183124C
:1000F8000313A9002908B10002303102031C20298A
:1001080088018617F030A8002808AF00083083124D
:100118000313AA009D30A9000530A800A80B922857
:10012800A90B9228AA0B9228831203138613AA30CC
:100138008800AF0102303102031C1D29370835063B
:10014800031DBF28310303191D293308031DB628D1
:100158000A128A119E230A128A1183120313B70105
:10016800B70A1D293303031D1D290A128A111D24EC
:100178000A128A11B128AB01AC010A128A114A2667
:100188000A128A118312031336080A128A115C258F
:100198000A128A110A128A1132260A128A11831245
:1001A800031336080A128A115C250A128A110130D3
:1001B80083120313AB070318AC0A0030AC072C08F2
:1001C800803AFF0080307F02031DEC2806302B02A6
:1001D80003180829C1280A128A1119230A128A1138
:1001E8000A128A114A260A128A11623083120313EC
:1001F800A9006530A800A80BFF28A90BFF280A1240
:100208008A1132260A128A1114308312031330021B
:10021800031CEF283208031916290A128A11D32160
:100228000A128A11013083120313A8002808B7079D
:1002380088010130B1028028B701B70AB801B301BB
:100248003F2861297030831603138F040800831632
:1002580003130F088F3960388F00080083160313C3
:100268000F088F3950388F000800831603130F08C2
:100278008F3940388F000800831603130F088F3911
:1002880030388F000800831603130F088F39203881
:100298008F000800831603130F088F3910388F005A
:1002A80008008F30831603138F0508008316031385
:1002B8000F088F3960388F00080083120313230852
:1002C800003A0319B8295A2921087D3A03196D29DA
:1002D8005A292008003A031955295A292108E83AC9
:1002E800031977295A292008483A03194E295A2907
:1002F8002108D03A031981295A292008903A03196C
:1003080047295A292108A13A03198B295A29200873
:10031800203A031940295A292108423A03199529F4
:100328005A292008403A031939295A292108843AB8
:1003380003199F295A292008803A031932295A2972
:100348002108093A0319A9295A292008003A03194A
:100358002B295A292108123A0319B3295A292008A6
:10036800003A031926295A292208003A031968294C
:10037800013A03197229023A03197C29043A03192C
:100388008629083A03199029113A03199A29233A18
:100398000319A429473A0319AE295A290800AA3093
:1003A800831203138800A601A7010A128A114A269C
:1003B8000A128A118312031336080A128A115C255D
:1003C8000A128A110A128A1132260A128A11831213
:1003D800031336080A128A115C250A128A110130A1
:1003E80083120313A6070318A70A0030A7072708D4
:1003F800803AFF0080307F02031D042A063026025F
:10040800031CD929831203138801033083120313B1
:10041800A5008A30A4005530A300A30B112AA40B11
:10042800112AA50B112A993083120313880003306F
:1004380083120313A5008A30A4005530A300A30B30
:10044800232AA40B232AA50B232A8312031388012A
:10045800A33083120313A4005430A300A30B322A41
:10046800A40B322A0000AA30831203138800320832
:100478000319532A033083120313A5008A30A400FA
:100488005530A300A30B462AA40B462AA50B462ADF
:1004980001308312031385020130B2023B2A88011E
:1004A800023083120313A5004530A400A930A3002D
:1004B800A30B5C2AA40B5C2AA50B5C2A663083126A
:1004C80003138800023083120313A5004530A400EB
:1004D800A930A300A30B6E2AA40B6E2AA50B6E2AC3
:1004E8008312031388010130B102B201080083129C
:1004F80003138C1D122B1412141B842A941F8E2A8A
:100508001308F000F1017008AD007108AE00141373
:100518009413141683160313941E1419D72A8312DE
:1005280003131308F000F1017008AD007108AE0064
:100538008C11141683160313141C9E2A831203139A
:100548001308F0007008F9007808031DB02A79082C
:10055800F0007008B600C92A7803031DB82A790884
:10056800F0007008B500C92A02307806031DC92AB0
:100578007908F0007008B40036080319C92A053054
:1005880036020318C92AB801B80A0130F000700809
:10059800F807033078060319F8011430F000F00B5F
:1005A800D32A00000F2B941E141D0F2B8312031344
:1005B8001308F000F1017008AD007108AE00831651
:1005C800031314107708031DED2A83120313300850
:1005D800FB2A7703031DF42A760883120313FB2AE8
:1005E80002307706031DFC2A831203132F08930099
:1005F8000130F0007008F707033077060319F70198
:10060800831214161430F000F00B082B0000831628
:10061800031314180B2B831203138C1173088A000D
:10062800720E8300FE0E7E0E0900831203138801EA
:10063800033083120313A2008A30A1005530A000B2
:10064800A00B242BA10B242BA20B242B6630831286
:1006580003138800033083120313A2008A30A10019
:100668005530A000A00B362BA10B362BA20B362B36
:10067800831203138801033083120313A2008A3004
:10068800A1005530A000A00B472BA10B472BA20BB4
:10069800472BAA30831203138800033083120313F5
:1006A800A2008A30A1005530A000A00B592BA10B45
:1006B800592BA20B592B8312031388010330831281
:1006C8000313A2008A30A1005530A000A00B6A2BAA
:1006D800A10B6A2BA20B6A2B993083120313880093
:1006E800033083120313A2008A30A1005530A00002
:1006F800A00B7C2BA10B7C2BA20B7C2B831203134E
:100708008801033083120313A2008A30A1005530F8
:10071800A000A00B8D2BA10B8D2BA20B8D2B0130D4
:1007280083120313A0002008B2070130A00020089C
:10073800850708008312031388010330831203130B
:10074800A2008A30A1005530A000A00BA92BA10B54
:10075800A92BA20BA92B6630831203138800033040
:1007680083120313A2008A30A1005530A000A00B09
:10077800BB2BA10BBB2BA20BBB2B83120313880132
:10078800033083120313A2008A30A1005530A00061
:10079800A00BCC2BA10BCC2BA20BCC2BAA308312F9
:1007A80003138800033083120313A2008A30A100C8
:1007B8005530A000A00BDE2BA10BDE2BA20BDE2BED
:1007C800831203138801033083120313A2008A30B3
:1007D800A1005530A000A00BEF2BA10BEF2BA20B13
:1007E800EF2B663083120313880003308312031340
:1007F800A2008A30A1005530A000A00B012CA10B4B
:10080800012CA20B012C83120313880103308312DD
:100818000313A2008A30A1005530A000A00B122CAF
:10082800A10B122CA20B122C83120313B301B30ACF
:100838000800831203138801033083120313A200F4
:100848008A30A1005530A000A00B282CA10B282C21
:10085800A20B282C993083120313880003308312CB
:100868000313A2008A30A1005530A000A00B3A2C37
:10087800A10B3A2CA20B3A2C8312031388010330E4
:1008880083120313A2008A30A1005530A000A00BE8
:100898004B2CA10B4B2CA20B4B2CAA30831203130D
:1008A8008800033083120313A2008A30A100553058
:1008B800A000A00B5D2CA10B5D2CA20B5D2C83125C
:1008C80003138801033083120313A2008A30A100A6
:1008D8005530A000A00B6E2CA10B6E2CA20B6E2C19
:1008E8009930831203138800033083120313A20084
:1008F8008A30A1005530A000A00B802CA10B802CC1
:10090800A20B802C83120313880103308312031374
:10091800A2008A30A1005530A000A00B912CA10B99
:10092800912CA20B912C83120313B301080083129C
:100938000313A0009F131F17D02CCB2C9F12B32C8E
:100948009F12B62C9F12B92C9F12BC2C9F12BF2C41
:100958009F12C32C9F12C72C9F16CC2C9F161F12B8
:10096800C02C9F161F12C42C9F161F12C82C9F162E
:100978001F16CD2C9F161F169F11C92C9F161F16C8
:100988009F15CE2C9F161F169F151F150A2D9F12F7
:100998001F129F111F110A2D2008F400F501750878
:1009A800003A0319D82CCB2C7408003A0319A12C4F
:1009B800013A0319A22C033A0319A42C013A03198A
:1009C800A62C073A0319A82C013A0319AA2C033AB2
:1009D8000319AC2C013A0319AE2C0F3A0319B02CA9
:1009E800013A0319B22C033A0319B52C013A031939
:1009F800B82C073A0319BB2C013A0319BE2C033A49
:100A08000319C22C013A0319C62CCB2C83160313E5
:100A18009F139F121F12831203131F140C139F148A
:100A28009F1C0800142D83120313A000362D0A30D2
:100A3800950008000C30950008000E30950008005D
:100A48001230950008001930950008001E309500F6
:100A5800080021309500080025309500080028304E
:100A6800950008002008F400F5017508003A0319FC
:100A78003E2D1B2D7408003A03191B2D0A3A031941
:100A88001E2D143A0319212D333A0319242D773AD0
:100A98000319272D223A03192A2DFF3A03192D2D60
:100AA800113A0319302D223A0319332D1B2D080052
:100AB800F400852D023083120313A2004530A100F3
:100AC800A930A000A00B662DA10B662DA20B662DE8
:100AD8000800A33083120313A1005430A000A00B18
:100AE800732DA10B732D000008006D3083120313C2
:100AF800A1001B30A000A00B7F2DA10B7F2D842D02
:100B08000800740883120313A000A1012108003A09
:100B180003198F2D9A2D2008013A03195E2D033AE7
:100B280003196D2D013A0319792D9A2D080000300B
:100B380083120313A3000F30A2004230A1004030FB
:100B4800A0000A128A1125210A128A11831203139E
:100B58008801831603138801831203138601831601
:100B6800031386018316031789010F3083120313B9
:100B780089000F308316031389008312031385013C
:100B880083160313850160308316031788000A1241
:100B98008A11FC250A128A1105300A128A119B242F
:100BA800080083120313A300E82D1E300A128A11CD
:100BB800172508005A300A128A1117250800B43080
:100BC8000A128A11172508002308A100A201220889
:100BD800003A0319F02DFB2D2108013A0319D92DEC
:100BE800033A0319DE2D013A0319E32DFB2D080002
:100BF800831603130715C830920083120313971541
:100C0800171597101710971317131B309B001716FB
:100C180097168C109214121412158C1C152E8C1009
:100C2800112E83160313071108008030831603134F
:100C38009400740893003630831203139400013033
:100C4800831603139100871507168B170B1783124A
:100C580003138C11831603138C15080006300A122F
:100C68008A119B240A128A11831203130C131E087B
:100C7800A1002108F600043083120313A2003D30BE
:100C8800A100A10B452EA20B452E080005300A1223
:100C98008A119B240A128A11831203130C131E084B
:100CA800A1002108B000043083120313A2003D30D4
:100CB800A100A10B5D2EA20B5D2E08008312031369
:100CC800A100A001211C6C2E7408F5007508A0076E
:100CD8000310F40D0310A10C2108031D662E200833
:060CE80008000134013494
:04400E00D4E0FFFFFC
:00000001FF
