:020000040000FA
:060000000A128A11C82F4C
:100BB8005A3450343C34F6007608831203139300F9
:100BC80008000A34323428341E3414340A348316A4
:100BD8000313141CF02DF12DEB2D08000A128A11B5
:100BE800EB250A128A1183120313130808007E08E2
:100BF8008A007F0882000A128A11FB250A128A11CC
:100C08008000840A04087D0603190034FF0A0319CA
:100C1800FE0AFF2D831603131812181583160317DF
:100C2800871567308316031399009A0183120313FB
:100C38009817181318168316031398160800F90046
:100C4800831603138712791D2A2E2B2E2F2E780830
:100C580094008715332E7608780494008711790854
:100C680077048312031394000800F800692E831692
:100C780003130F138F120F12831603130F138F1200
:100C88000F16831603130F138F160F1283160313F1
:100C98000F138F160F16831603130F178F120F12C9
:100CA800831603130F178F120F16831603130F17CC
:100CB8008F160F12831603130F178F160F1683162E
:100CC80003130F178F160F128B2E7808F600F701F3
:100CD8007708003A0319712E632E7608003A031933
:100CE8003B2E013A0319402E033A0319452E013AC7
:100CF80003194A2E073A03194F2E013A0319542EA5
:100D0800033A0319592E013A03195E2E632E08007F
:100D180083120313860183160313860183160317B0
:100D2800890106300A128A1139260A128A110A1212
:100D38008A110E260A128A11F601F701F8012030ED
:100D48000A128A1123260A128A110F3083120313FA
:100D580086000D30FB00FB30FA00FA0BB12EFB0BBE
:100D6800B12EB62E7D300A128A11DF250A128A1199
:100D78000A128A11F2250A128A11FA007A08FD006D
:100D88000D30FB00FB30FA00FA0BC82EFB0BC82E07
:100D9800CD2E70080A128A11DF250A128A110A124A
:100DA8008A11F2250A128A11FA007A08FD000D301C
:100DB800FB00FB30FA00FA0BDF2EFB0BDF2EE42ED4
:100DC8000D30FB00FB30FA00FA0BE82EFB0BE82E87
:100DD800ED2E50300A128A11DF250A128A110A12E2
:100DE8008A11F2250A128A11FA007A08FD000D30DC
:100DF800FB00FB30FA00FA0BFF2EFB0BFF2E042F33
:100E08005A300A128A11DF250A128A110A128A1127
:100E1800F2250A128A11FA007A08FD000D30FB004B
:100E2800FB30FA00FA0B162FFB0B162F1B2F0D3079
:100E3800FB00FB30FA00FA0B1F2FFB0B1F2F242F90
:100E480032300A128A11DF250A128A110A128A110F
:100E5800F2250A128A11FA007A08FD000D30FB000B
:100E6800FB30FA00FA0B362FFB0B362F3B2F3C30AA
:100E78000A128A11DF250A128A110A128A11F2252A
:100E88000A128A11FA007A08FD000D30FB00FB30C7
:100E9800FA00FA0B4D2FFB0B4D2F522F0D30FB0094
:100EA800FB30FA00FA0B562FFB0B562F5B2F28301E
:100EB8000A128A11DF250A128A110A128A11F225EA
:100EC8000A128A11FA007A08FD000D30FB00FB3087
:100ED800FA00FA0B6D2FFB0B6D2F722F1E300A12C2
:100EE8008A11DF250A128A110A128A11F2250A12BA
:100EF8008A11FA007A08FD000D30FB00FB30FA0079
:100F0800FA0B842FFB0B842F892F0D30FB00FB304D
:100F1800FA00FA0B8D2FFB0B8D2F922F0A300A1235
:100F28008A11DF250A128A110A128A11F2250A1279
:100F38008A11FA007A08FD000D30FB00FB30FA0038
:100F4800FA0BA42FFB0BA42FA92F14300A128A1115
:100F5800DF250A128A110A128A11F2250A128A1149
:100F6800FA007A08FD000D30FB00FB30FA00FA0B9E
:100F7800BB2FFB0BBB2FC02F0130FA007A08F007FC
:100F8800AD2E0A128A11002883132330FD00053084
:100F9800FE00DC30FF00203084000A128A11FF2591
:100FA8000A128A110A128A11E5250A128A11F0001A
:100FB8000A128A11E6250A128A11F1000A128A1108
:100FC800E7250A128A11F2000A128A11E8250A1284
:100FD8008A11F3000A128A11E9250A128A11F4000B
:100FE8000A128A11EA250A128A11F500FC01FD018C
:080FF80083010A128A118C2EFC
:04400E00D4E0FFFFFC
:00000001FF
