:020000040000FA
:060000000A128A11C42F50
:100AB2005A345034F7007708831203139300080066
:100AC20083160313141C662D672D612D08000A344A
:100AD2003C34323428341E3414340A340A128A1153
:100AE20061250A128A1183120313130808007E0873
:100AF2008A007F0882000A128A1178250A128A1156
:100B02008000840A04087D0603190034FF0A0319D1
:100B1200FE0A7C2D83160313181218158316031769
:100B2200871567308316031399009A018312031302
:100B32009817181318168316031398160800FA004C
:100B42008316031387127A1DA72DA82DAC2D7908C1
:100B520094008715B02D77087904940087117A08DC
:100B620078048312031394000800F900E62D83161B
:100B720003130F138F120F12831603130F138F1207
:100B82000F16831603130F138F160F1283160313F8
:100B92000F138F160F16831603130F178F120F12D0
:100BA200831603130F178F120F16831603130F17D3
:100BB2008F160F12831603130F178F160F16831635
:100BC20003130F178F160F12082E7908F700F8017A
:100BD2007808003A0319EE2DE02D7708003A031940
:100BE200B82D013A0319BD2D033A0319C22D013A5A
:100BF2000319C72D073A0319CC2D013A0319D12D38
:100C0200033A0319D62D013A0319DB2DE02D080012
:100C120083120313870183160313870183120313BD
:100C220086018316031386018316031789018B1726
:100C32000B17831603138C15831203138C110630C2
:100C42000A128A11B6250A128A110A128A118B25F2
:100C52000A128A11F701F801F90120300A128A11E9
:100C6200A0250A128A11FF30831203138600831211
:100C720003138C1E3D2E3E2E442E1A08FB007B08C9
:100C8200FD007D0886007D307D06031D492E4A2E1B
:100C9200382E8C1E4D2E4E2E522E1A08FB007B082B
:100CA200F0008C1E552E562E5A2E1A08FB007B0879
:100CB200A1008C1E5D2E5E2E622E1A08FB007B08A0
:100CC200A0008C1E652E662E6A2E1A08FB007B0879
:100CD200F2008C1E6D2E6E2E722E1A08FB007B08FF
:100CE200F1008C1E752E762E7A2E1A08FB007B08D8
:100CF200F3008C1E7D2E7E2E822E1A08FB007B08AE
:100D0200F4008C1E852E862E8A2E1A08FB007B0884
:100D1200F6008C1E8D2E8E2E922E1A08FB007B085A
:100D2200F500FD01740886000D30FC00FB30FB006D
:100D3200FB0B992EFC0B992E9E2E7D300A128A11E6
:100D42005B250A128A110A128A116F250A128A1168
:100D5200FB007B0883120313A2000D30FC00FB3062
:100D6200FB00FB0BB22EFC0BB22EB72E70080A1240
:100D72008A115B250A128A110A128A116F250A1238
:100D82008A11FB007B0883120313A2000D30FC00C2
:100D9200FB30FB00FB0BCB2EFC0BCB2ED02E0D30F1
:100DA200FC00FB30FB00FB0BD42EFC0BD42ED92E07
:100DB2008312031321080A128A115B250A128A116F
:100DC2000A128A116F250A128A11FB007B0883120C
:100DD2000313A2000D30FC00FB30FB00FB0BEF2ED7
:100DE200FC0BEF2EF42E8312031320080A128A1131
:100DF2005B250A128A110A128A116F250A128A11B8
:100E0200FB007B0883120313A2000D30FC00FB30B1
:100E1200FB00FB0B0A2FFC0B0A2F0F2F0D30FC00DF
:100E2200FB30FB00FB0B132FFC0B132F182F720848
:100E32000A128A115B250A128A110A128A116F2577
:100E42000A128A11FB007B0883120313A2000D30E1
:100E5200FC00FB30FB00FB0B2C2FFC0B2C2F312F4B
:100E620071080A128A115B250A128A110A128A1162
:100E72006F250A128A11FB007B0883120313A2005A
:100E82000D30FC00FB30FB00FB0B452FFC0B452F0C
:100E92004A2F0D30FC00FB30FB00FB0B4E2FFC0BEE
:100EA2004E2F532F73080A128A115B250A128A11D8
:100EB2000A128A116F250A128A11FB007B0883121B
:100EC2000313A2000D30FC00FB30FB00FB0B672F6D
:100ED200FC0B672F6C2F74080A128A115B250A1209
:100EE2008A110A128A116F250A128A11FB007B08E5
:100EF20083120313A2000D30FC00FB30FB00FB0B3E
:100F0200802FFC0B802F852F0D30FC00FB30FB0067
:100F1200FB0B892FFC0B892F8E2F76080A128A1160
:100F22005B250A128A110A128A116F250A128A1186
:100F3200FB007B0883120313A2000D30FC00FB3080
:100F4200FB00FB0BA22FFC0BA22FA72F75080A1286
:100F52008A115B250A128A110A128A116F250A1256
:100F62008A11FB007B0883120313A2000D30FC00E0
:100F7200FB30FB00FB0BBB2FFC0BBB2FC02F382E13
:100F82000A128A1100280A128A1159250A128A1194
:100F9200A0000A128A115A250A128A11A1000A1205
:100FA2008A1168250A128A11F0000A128A1169252B
:100FB2000A128A11F1000A128A116A250A128A118A
:100FC200F2000A128A116B250A128A11F3000A1220
:100FD2008A116C250A128A11F4000A128A116D25EF
:100FE2000A128A11F5000A128A116E250A128A1152
:0E0FF200F600A201FD0183010A128A11092EE8
:04400E00D4E0FFFFFC
:00000001FF
