:020000040000FA
:060000000A128A11C42F50
:100AB6005A345034F7007708831203139300080062
:100AC60083160313141C682D692D632D08000A3440
:100AD6003C34323428341E3414340A340A128A114F
:100AE60063250A128A1183120313130808007E086D
:100AF6008A007F0882000A128A117A250A128A1150
:100B06008000840A04087D0603190034FF0A0319CD
:100B1600FE0A7E2D83160313181218158316031763
:100B2600871567308316031399009A0183120313FE
:100B36009817181318168316031398160800FA0048
:100B46008316031387127A1DA92DAA2DAE2D7908B7
:100B560094008715B22D77087904940087117A08D6
:100B660078048312031394000800F900E82D831615
:100B760003130F138F120F12831603130F138F1203
:100B86000F16831603130F138F160F1283160313F4
:100B96000F138F160F16831603130F178F120F12CC
:100BA600831603130F178F120F16831603130F17CF
:100BB6008F160F12831603130F178F160F16831631
:100BC60003130F178F160F120A2E7908F700F80174
:100BD6007808003A0319F02DE22D7708003A031938
:100BE600BA2D013A0319BF2D033A0319C42D013A50
:100BF6000319C92D073A0319CE2D013A0319D32D2E
:100C0600033A0319D82D013A0319DD2DE22D080008
:100C160083120313870183160313870183120313B9
:100C260086018316031386018316031789018B1722
:100C36000B17831603138C15831203138C110630BE
:100C46000A128A11B8250A128A110A128A118D25EA
:100C56000A128A11F701F801F90120300A128A11E5
:100C6600A2250A128A11FF3083120313860083120B
:100C760003138C1E3F2E402E442E1A08FB007B08C1
:100C8600FD007D307D06031D492E4A2E3A2E8C1E10
:100C96004D2E4E2E4A2E1A08FB007B08F0008C1EA5
:100CA600552E562E522E1A08FB007B08A1008C1ECC
:100CB6005D2E5E2E5A2E1A08FB007B08A0008C1EA5
:100CC600652E662E622E1A08FB007B08F2008C1E2B
:100CD6006D2E6E2E6A2E1A08FB007B08F1008C1E04
:100CE600752E762E722E1A08FB007B08F3008C1EDA
:100CF6007D2E7E2E7A2E1A08FB007B08F4008C1EB1
:100D0600852E862E822E1A08FB007B08F6008C1E86
:100D16008D2E8E2E8A2E1A08FB007B08F500FD010B
:100D2600740886000D30FC00FB30FB00FB0B992E8F
:100D3600FC0B992E9E2E7D300A128A115D250A1211
:100D46008A110A128A1171250A128A11FB007B0880
:100D560083120313A2000D30FC00FB30FB00FB0BDB
:100D6600B22EFC0BB22EB72E70080A128A115D2520
:100D76000A128A110A128A1171250A128A11FB00B7
:100D86007B0883120313A2000D30FC00FB30FB002E
:100D9600FB0BCB2EFC0BCB2ED02E0D30FC00FB30EC
:100DA600FB00FB0BD42EFC0BD42ED92E831203137F
:100DB60021080A128A115D250A128A110A128A115D
:100DC60071250A128A11FB007B0883120313A20005
:100DD6000D30FC00FB30FB00FB0BEF2EFC0BEF2E67
:100DE600F42E8312031320080A128A115D250A12B3
:100DF6008A110A128A1171250A128A11FB007B08D0
:100E060083120313A2000D30FC00FB30FB00FB0B2A
:100E16000A2FFC0B0A2F0F2F0D30FC00FB30FB00B6
:100E2600FB0B132FFC0B132F182F72080A128A11B3
:100E36005D250A128A110A128A1171250A128A116F
:100E4600FB007B0883120313A2000D30FC00FB306D
:100E5600FB00FB0B2C2FFC0B2C2F312F71080A12D9
:100E66008A115D250A128A110A128A1171250A123F
:100E76008A11FB007B0883120313A2000D30FC00CD
:100E8600FB30FB00FB0B452FFC0B452F4A2F0D308B
:100E9600FC00FB30FB00FB0B4E2FFC0B4E2F532FA1
:100EA60073080A128A115D250A128A110A128A111A
:100EB60071250A128A11FB007B0883120313A20014
:100EC6000D30FC00FB30FB00FB0B672FFC0B672F84
:100ED6006C2F74080A128A115D250A128A110A12E9
:100EE6008A1171250A128A11FB007B0883120313EB
:100EF600A2000D30FC00FB30FB00FB0B802FFC0B2F
:100F0600802F852F0D30FC00FB30FB00FB0B892F5B
:100F1600FC0B892F8E2F76080A128A115D250A127C
:100F26008A110A128A1171250A128A11FB007B089E
:100F360083120313A2000D30FC00FB30FB00FB0BF9
:100F4600A22FFC0BA22FA72F75080A128A115D2566
:100F56000A128A110A128A1171250A128A11FB00D5
:100F66007B0883120313A2000D30FC00FB30FB004C
:100F7600FB0BBB2FFC0BBB2FC02F3A2E0A128A117C
:100F860000280A128A115B250A128A11A0000A1289
:100F96008A115C250A128A11A1000A128A116A2591
:100FA6000A128A11F0000A128A116B250A128A1196
:100FB600F1000A128A116C250A128A11F2000A122D
:100FC6008A116D250A128A11F3000A128A116E25FA
:100FD6000A128A11F4000A128A116F250A128A115E
:100FE600F5000A128A1170250A128A11F600A2016A
:0A0FF600FD0183010A128A110B2E7F
:04400E00D4E0FFFFFC
:00000001FF
