:020000040000FA
:060000000A128A110C280F
:10000800FE00030EF1000A08F2000A128A11CD2838
:100018000A128A110F280A128A11E3210A128A1178
:10002800A0000A128A11E4210A128A11A1000A12F8
:100038008A11E5210A128A11A2000A128A11E62100
:100048000A128A11A3000A128A11E7210A128A11D8
:10005800F6000A128A11E8210A128A11F7000A1218
:100068008A11E9210A128A11F800F901FA018301BB
:100078000A128A113F288312031387018316031378
:1000880087018312031386018316031386018316DF
:10009800031789018B170B17831603138C1583120B
:1000A80003138C1106300A128A1147210A128A1189
:1000B8000A128A11B8210A128A11F3011030831228
:1000C8000313A5002508F4004030A6002608F50013
:1000D80025300A128A119A210A128A11FF308312D6
:1000E80003138600831203138C1E7B287C28802828
:1000F8001A08A5002508F9006E307906031D852821
:100108008628BF288C1E89288A2886281A08A500D0
:100118002508F7008C1E912892288E281A08A50019
:100128002508F8008C1E99289A2896281A08A500F0
:100138002508A2008C1EA128A2289E281A08A5001E
:100148002508A1008C1EA928AA28A6281A08A500F7
:100158002508A3008C1EB128B228AE281A08A500CD
:100168002508A0008C1EB928BA28B6281A08A500A8
:100178002508F600F9010D3083120313A600FB30A1
:10018800A500A50BC528A60BC52876280A128A1132
:100198000C28831203138C1DD228D32840290A1255
:1001A8008A11CD210A128A11831203138600780856
:1001B8000A128A11DD210A128A110B307A06031DF0
:1001C800E628E728ED2878080A128A11DD210A12A4
:1001D8008A1116307A06031DF228F328F9287708C1
:1001E8000A128A11DD210A128A1121307A06031DAA
:1001F800FE28FF28052976080A128A11DD210A122D
:100208008A112C307A06031D0A290B291329831217
:10021800031323080A128A11DD210A128A113730C2
:100228007A06031D18291929212983120313220884
:100238000A128A11DD210A128A1142307A06031D38
:10024800262927292F298312031321080A128A1124
:10025800DD210A128A114D307A06031D3429352909
:100268003D298312031320080A128A11DD210A127C
:100278008A11831203138C1172088A00710E83008D
:10028800FE0E7E0E0900F5007729831603130F135F
:100298008F120F12831603130F138F120F16831664
:1002A80003130F138F160F12831603130F138F16D2
:1002B8000F16831603130F178F120F1283160313CB
:1002C8000F178F120F16831603130F178F160F129F
:1002D800831603130F178F160F16831603130F17A2
:1002E8008F160F1299297508F300F4017408003A63
:1002F80003197F2971297308003A03194929013A1A
:1003080003194E29033A03195329013A03195829A5
:10031800073A03195D29013A03196229033A0319B7
:100328006729013A03196C297129080083120313FC
:10033800A40083160313871283120313241DA5290F
:10034800A629AC2975088316031394008715B229CA
:10035800730875048316031394008711831203131B
:10036800240874049400080083160313181218153F
:1003780083160317871567308316031399009A01AC
:100388008312031398171813181683160313981655
:1003980008000A128A11D6210A128A11831203133D
:1003A8001308080083160313141CDB29DC29D6293B
:1003B8000800F00070088312031393000800463405
:0C03C8003C34323428341E3414340A341F
:04400E00D4E0FFFFFC
:00000001FF
