:020000040000FA
:060000000A128A11F92F1B
:1009C0000030F3000F30F2004230F1004030F00010
:1009D0000A128A11E2250A128A1183160317880166
:1009E000FF308316031389008312031385018601E8
:1009F0008701880189010800831603138714C83012
:100A00009200831203139D151D159D141D141B3098
:100A10009B001D169D168C10921412141215112D88
:100A20008C108C18142D152D102D83160313871080
:100A30000800831603130715C830920083120313AE
:100A40009715171597101710971317131B309B0046
:100A5000171697168C10921412141215302D8C1034
:100A60008C18332D342D2F2D8316031307110800F6
:100A7000F200672D0A30831203139B008C2D0C307B
:100A8000831203139B008C2D0E30831203139B00E3
:100A90008C2D1230831203139B008C2D193083127E
:100AA00003139B008C2D1E30831203139B008C2D8F
:100AB0002130831203139B008C2D253083120313E6
:100AC0009B008C2D2830831203139B008C2D720801
:100AD000F000F1017108003A03196F2D3A2D7008EA
:100AE000003A03193A2D0A3A03193F2D143A031913
:100AF000442D333A0319492D773A03194E2D223AE2
:100B00000319532DFF3A0319582D113A03195D2D7E
:100B1000223A0319622D3A2D0800F200BC2D0A304A
:100B2000831203139500E12D0C30831203139500FB
:100B3000E12D0E30831203139500E12D1230831244
:100B400003139500E12D1930831203139500E12D55
:100B50001E30831203139500E12D213083120313FD
:100B60009500E12D2530831203139500E12D2830E7
:100B7000831203139500E12D7208F000F101710852
:100B8000003A0319C42D8F2D7008003A03198F2DD8
:100B90000A3A0319942D143A0319992D333A03197B
:100BA0009E2D773A0319A32D223A0319A82DFF3A57
:100BB0000319AD2D113A0319B22D223A0319B72D9D
:100BC0008F2D08001E2E7030831603138F048D2E78
:100BD000831603130F088F3960388F008D2E83160C
:100BE00003130F088F3950388F008D2E831603138F
:100BF0000F088F3940388F008D2E831603130F088E
:100C00008F3930388F008D2E831603130F088F39DC
:100C100020388F008D2E831603130F088F3910385C
:100C20008F008D2E8F30831603138F058D2E831624
:100C300003130F088F3960388F008D2E7308003A28
:100C40000319732E172E71087D3A0319282E172EBB
:100C50007008003A0319122E172E7108E83A03198A
:100C6000322E172E7008483A03190B2E172E7108D2
:100C7000D03A03193C2E172E7008903A0319042E0F
:100C8000172E7108A13A0319462E172E7008203A24
:100C90000319FD2D172E7108423A0319502E172EF5
:100CA0007008403A0319F62D172E7108843A03197B
:100CB0005A2E172E7008803A0319EF2D172E71083F
:100CC000093A0319642E172E7008003A0319E82D0B
:100CD000172E7108123A03196E2E172E7008003A5B
:100CE0000319E32D172E7208003A0319232E013A37
:100CF00003192D2E023A0319372E043A0319412EF7
:100D0000083A03194B2E113A0319552E233A0319A9
:100D10005F2E473A0319692E172E08000A128A110E
:100D2000E0240A128A110A128A11FC240A128A117A
:100D30000A128A1119250A128A1183120313091C37
:100D4000A22EA32E3C2FF901F90A1430F400F40B63
:100D5000A72E0000831203130918AF2EB02E3B2FCD
:100D600000300A128A1138250A128A110230F60060
:100D70004530F500A930F400F40BBC2EF50BBC2E69
:100D8000F60BBC2EC32E0A300A128A1138250A121D
:100D90008A110230F6004530F500A930F400F40B5A
:100DA000CF2EF50BCF2EF60BCF2ED62E1E300A12DD
:100DB0008A1138250A128A110230F6004530F500F2
:100DC000A930F400F40BE22EF50BE22EF60BE22E26
:100DD000E92E2D300A128A1138250A128A110230A2
:100DE000F6004530F500A930F400F40BF52EF50BB4
:100DF000F52EF60BF52EFC2E5A300A128A113825E4
:100E00000A128A110230F6004530F500A930F400CC
:100E1000F40B082FF50B082FF60B082F0F2F783047
:100E20000A128A1138250A128A110230F60045305A
:100E3000F500A930F400F40B1B2FF50B1B2FF60B5C
:100E40001B2F222F96300A128A1138250A128A1176
:100E50000230F6004530F500A930F400F40B2E2FD7
:100E6000F50B2E2FF60B2E2F352FB4300A128A11C8
:100E700038250A128A11F90183120313891C412FA4
:100E8000422F562FF801F80A1430F400F40B462FC5
:100E900000008312031389184E2F4F2F552F5A30FD
:100EA0000A128A1138250A128A11F80183120313D3
:100EB000091D5B2F5C2F9D2EF701F70A1430F400FB
:100EC000F40B602F0000831203130919682F692F98
:100ED000F42F00300A128A118D250A128A1102306D
:100EE000F6004530F500A930F400F40B752FF50B32
:100EF000752FF60B752F7C2F0A300A128A118D255B
:100F00000A128A110230F6004530F500A930F400CB
:100F1000F40B882FF50B882FF60B882F8F2F1E30A0
:100F20000A128A118D250A128A110230F600453004
:100F3000F500A930F400F40B9B2FF50B9B2FF60B5B
:100F40009B2FA22F2D300A128A118D250A128A1189
:100F50000230F6004530F500A930F400F40BAE2F56
:100F6000F50BAE2FF60BAE2FB52F5A300A128A11A1
:100F70008D250A128A110230F6004530F500A9309D
:100F8000F400F40BC12FF50BC12FF60BC12FC82FA6
:100F900078300A128A118D250A128A110230F60061
:100FA0004530F500A930F400F40BD42FF50BD42F05
:100FB000F60BD42FDB2F96300A128A118D250A12D8
:100FC0008A110230F6004530F500A930F400F40B28
:100FD000E72FF50BE72FF60BE72FEE2FB4300A12B1
:100FE0008A118D250A128A11F7019D2E0A128A1183
:100FF0000028F701F801F90183010A128A118E2EE7
:04400E00F5E0FFFFDB
:00000001FF
