:020000040000FA
:060000000A128A11E72F2D
:1003BC000934003405340034063400340A34003473
:1003CC000A34003406340034053400340934003463
:1003DC007E088A007F0882000A128A11EE210A1216
:1003EC008A118000840A04087D0603190034FF0A70
:1003FC000319FE0AF2290030FA000F30F9004230DE
:10040C00F8004030F7000A128A111F220A128A11D2
:10041C0083160317890188018316031388010F3093
:10042C0085008312031385018601870188018901E8
:10043C0008005B2A7030831603138F04CA2A8316B4
:10044C0003130F088F3960388F00CA2A83160313E1
:10045C000F088F3950388F00CA2A831603130F08E0
:10046C008F3940388F00CA2A831603130F088F392F
:10047C0030388F00CA2A831603130F088F3920389F
:10048C008F00CA2A831603130F088F3910388F0078
:10049C00CA2A8F30831603138F05CA2A83160313B7
:1004AC000F088F3960388F00CA2A7A08003A03196E
:1004BC00B02A542A78087D3A0319652A542A7708F9
:1004CC00003A03194F2A542A7808E83A03196F2A7C
:1004DC00542A7708483A0319482A542A7808D03AFB
:1004EC000319792A542A7708903A0319412A542A75
:1004FC007808A13A0319832A542A7708203A031959
:10050C003A2A542A7808423A03198D2A542A770831
:10051C00403A0319332A542A7808843A0319972A43
:10052C00542A7708803A03192C2A542A7808093A55
:10053C000319A12A542A7708003A0319252A542AA8
:10054C007808123A0319AB2A542A7708003A03198F
:10055C00202A542A7908003A0319602A013A03190F
:10056C006A2A023A0319742A043A03197E2A083AB1
:10057C000319882A113A0319922A233A03199C2A3F
:10058C00473A0319A62A542A08000A128A11012292
:10059C000A128A1183120313051CD52AD62A522B50
:1005AC00F401F40A1430FB00FB0BDA2A000083126E
:1005BC0003130518E22AE32A512B6830F7000130A7
:1005CC00F8000A128A1108260A128A110230FD005C
:1005DC004530FC00A930FB00FB0BF22AFC0BF22A85
:1005EC00FD0BF22AF92AB430F7000030F8000A1299
:1005FC008A1108260A128A110230FD004530FC00CF
:10060C00A930FB00FB0B082BFC0B082BFD0B082B5C
:10061C000F2B5A30F7000030F8000A128A11082606
:10062C000A128A110230FD004530FC00A930FB0093
:10063C00FB0B1E2BFC0B1E2BFD0B1E2B252B2D3011
:10064C00F7000030F8000A128A1108260A128A11E3
:10065C000230FD004530FC00A930FB00FB0B342BB5
:10066C00FC0B342BFD0B342B3B2B0F30F7000030E5
:10067C00F8000A128A1108260A128A110230FD00AB
:10068C004530FC00A930FB00FB0B4A2BFC0B4A2B22
:10069C00FD0B4A2B512BF40183120313851C572B92
:1006AC00582BA32BF301F30A1430FB00FB0B5C2B30
:1006BC000000831203138518642B652BA22BF00109
:1006CC00F1017108803AFF0080307F02031D702B0E
:1006DC0008307002031C732B742B752BA22B76081D
:1006EC00FB007B07283E840083130008831203134E
:1006FC0088000730FC007D30FB00FB0B832BFC0BD0
:10070C00832B0130FB007B08F60704307606031DB3
:10071C00902B912B9B2B0430FC003D30FB00FB0BF2
:10072C00952BFC0B952B9A2BF6010130F007031837
:10073C00F10A0030F107672BF30183120313051D37
:10074C00A82BA92BD02AF201F20A1430FB00FB0BC8
:10075C00AD2B0000831203130519B52BB62B242CDB
:10076C006830F7000130F8000A128A1129240A12A5
:10077C008A110230FD004530FC00A930FB00FB0B58
:10078C00C52BFC0BC52BFD0BC52BCC2BB430F700AC
:10079C000030F8000A128A1129240A128A11023038
:1007AC00FD004530FC00A930FB00FB0BDB2BFC0BE8
:1007BC00DB2BFD0BDB2BE22B5A30F7000030F80063
:1007CC000A128A1129240A128A110230FD004530BE
:1007DC00FC00A930FB00FB0BF12BFC0BF12BFD0BF0
:1007EC00F12BF82B2D30F7000030F8000A128A118B
:1007FC0029240A128A110230FD004530FC00A93070
:10080C00FB00FB0B072CFC0B072CFD0B072C0E2CF9
:10081C000F30F7000030F8000A128A1129240A124E
:10082C008A110230FD004530FC00A930FB00FB0BA7
:10083C001D2CFC0B1D2CFD0B1D2C242CF201D02A85
:10084C000A128A110028EC2DF001F1017108803A8E
:10085C00FF0080307F02031D352C19307002031C01
:10086C00382C392C3A2C072E0930831203138800AC
:10087C000D30FA00FB30F900F90B422CFA0B422C2C
:10088C00472C05308312031388000D30FA00FB301F
:10089C00F900F90B4F2CFA0B4F2C542C0630831209
:1008AC00031388000D30FA00FB30F900F90B5C2CB7
:1008BC00FA0B5C2C612C0A308312031388000D3068
:1008CC00FA00FB30F900F90B692CFA0B692C6E2C31
:1008DC000130F0070318F10A0030F1072C2CF0015D
:1008EC00F1017108803AFF0080307F02031D802CDB
:1008FC000C307002031C832C842C852C072E0930A1
:10090C008312031388000D30FA00FB30F900F90B49
:10091C008D2CFA0B8D2C922C05308312031388002E
:10092C000D30FA00FB30F900F90B9A2CFA0B9A2CCB
:10093C009F2C06308312031388000D30FA00FB3015
:10094C00F900F90BA72CFA0BA72CAC2C0A3083124C
:10095C00031388000D30FA00FB30F900F90BB42CAE
:10096C00FA0BB42CB92C0130F0070318F10A003043
:10097C00F107772CF001F1017108803AFF0080300B
:10098C007F02031DCB2C06307002031CCE2CCF2C07
:10099C00D02C072E09308312031388000D30FA0077
:1009AC00FB30F900F90BD82CFA0BD82CDD2C0530C8
:1009BC008312031388000D30FA00FB30F900F90B99
:1009CC00E52CFA0BE52CEA2C063083120313880075
:1009DC000D30FA00FB30F900F90BF22CFA0BF22C6B
:1009EC00F72C0A308312031388000D30FA00FB3009
:1009FC00F900F90BFF2CFA0BFF2C042D0130F0073A
:100A0C000318F10A0030F107C22CF001F101710852
:100A1C00803AFF0080307F02031D162D03307002D8
:100A2C00031C192D1A2D1B2D072E093083120313AD
:100A3C0088000D30FA00FB30F900F90B232DFA0B6E
:100A4C00232D282D05308312031388000D30FA0056
:100A5C00FB30F900F90B302DFA0B302D352D06300B
:100A6C008312031388000D30FA00FB30F900F90BE8
:100A7C003D2DFA0B3D2D422D0A30831203138800B5
:100A8C000D30FA00FB30F900F90B4A2DFA0B4A2D08
:100A9C004F2D0130F0070318F10A0030F1070D2D2E
:100AAC00F001F1017108803AFF0080307F02031DD4
:100ABC00612D01307002031C642D652D662D072EEF
:100ACC0009308312031388000D30FA00FB30F90053
:100ADC00F90B6E2DFA0B6E2D732D0530831203134B
:100AEC0088000D30FA00FB30F900F90B7B2DFA0B66
:100AFC007B2D802D06308312031388000D30FA00F5
:100B0C00FB30F900F90B882DFA0B882D8D2D0A304E
:100B1C008312031388000D30FA00FB30F900F90B37
:100B2C00952DFA0B952D9A2D0130F0070318F10A2B
:100B3C000030F107582DF001F1017108803AFF00E7
:100B4C0080307F02031DAC2D02307002031CAF2DD0
:100B5C00B02DB12D072E09308312031388000D30F0
:100B6C00FA00FB30F900F90BB92DFA0BB92DBE2D9B
:100B7C0005308312031388000D30FA00FB30F900A6
:100B8C00F90BC62DFA0BC62DCB2D06308312031391
:100B9C0088000D30FA00FB30F900F90BD32DFA0B5D
:100BAC00D32DD82D0A308312031388000D30FA0090
:100BBC00FB30F900F90BE02DFA0BE02DE52D01309F
:100BCC00F0070318F10A0030F107A32D7808003A5A
:100BDC000319F42D013A0319022EA12D77080F3AAF
:100BEC000319562D223A03190B2D773A0319C02CF1
:100BFC00EE3A0319752CA12D7708683A03192A2CA3
:100C0C00A12D0800CB2FF001F1017108803AFF00F3
:100C1C0080307F02031D142E19307002031C172E16
:100C2C00182E192EE62F0A308312031388000D306C
:100C3C00FA00FB30F900F90B212EFA0B212E262E8F
:100C4C0006308312031388000D30FA00FB30F900D4
:100C5C00F90B2E2EFA0B2E2E332E05308312031386
:100C6C0088000D30FA00FB30F900F90B3B2EFA0B23
:100C7C003B2E402E09308312031388000D30FA00EE
:100C8C00FB30F900F90B482EFA0B482E4D2E013093
:100C9C00F0070318F10A0030F1070B2EF001F101F7
:100CAC007108803AFF0080307F02031D5F2E0C30EC
:100CBC007002031C622E632E642EE62F0A30831200
:100CCC00031388000D30FA00FB30F900F90B6C2E81
:100CDC00FA0B6C2E712E06308312031388000D3024
:100CEC00FA00FB30F900F90B792EFA0B792E7E2ED7
:100CFC0005308312031388000D30FA00FB30F90025
:100D0C00F90B862EFA0B862E8B2E093083120313C9
:100D1C0088000D30FA00FB30F900F90B932EFA0B1A
:100D2C00932E982E0130F0070318F10A0030F107CA
:100D3C00562EF001F1017108803AFF0080307F02DD
:100D4C00031DAA2E06307002031CAD2EAE2EAF2E44
:100D5C00E62F0A308312031388000D30FA00FB30A3
:100D6C00F900F90BB72EFA0BB72EBC2E06308312F6
:100D7C00031388000D30FA00FB30F900F90BC42E78
:100D8C00FA0BC42EC92E05308312031388000D30C4
:100D9C00FA00FB30F900F90BD12EFA0BD12ED62E1E
:100DAC0009308312031388000D30FA00FB30F90070
:100DBC00F90BDE2EFA0BDE2EE32E0130F0070318B2
:100DCC00F10A0030F107A12EF001F1017108803A0F
:100DDC00FF0080307F02031DF52E03307002031CD0
:100DEC00F82EF92EFA2EE62F0A3083120313880000
:100DFC000D30FA00FB30F900F90B022FFA0B022F21
:100E0C00072F06308312031388000D30FA00FB30D5
:100E1C00F900F90B0F2FFA0B0F2F142F053083123B
:100E2C00031388000D30FA00FB30F900F90B1C2F6E
:100E3C00FA0B1C2F212F09308312031388000D305D
:100E4C00FA00FB30F900F90B292FFA0B292F2E2F62
:100E5C000130F0070318F10A0030F107EC2EF00115
:100E6C00F1017108803AFF0080307F02031D402F92
:100E7C0001307002031C432F442F452FE62F0A30FC
:100E8C008312031388000D30FA00FB30F900F90BC4
:100E9C004D2FFA0B4D2F522F06308312031388005F
:100EAC000D30FA00FB30F900F90B5A2FFA0B5A2FC0
:100EBC005F2F05308312031388000D30FA00FB30CE
:100ECC00F900F90B672FFA0B672F6C2F093083127F
:100EDC00031388000D30FA00FB30F900F90B742F66
:100EEC00FA0B742F792F0130F0070318F10A003038
:100EFC00F107372FF001F1017108803AFF008030C3
:100F0C007F02031D8B2F02307002031C8E2F8F2F3C
:100F1C00902FE62F0A308312031388000D30FA004D
:100F2C00FB30F900F90B982FFA0B982F9D2F0630F8
:100F3C008312031388000D30FA00FB30F900F90B13
:100F4C00A52FFA0BA52FAA2F0530831203138800A7
:100F5C000D30FA00FB30F900F90BB22FFA0BB22F5F
:100F6C00B72F09308312031388000D30FA00FB30C1
:100F7C00F900F90BBF2FFA0BBF2FC42F0130F0076C
:100F8C000318F10A0030F107822F7808003A031990
:100F9C00D32F013A0319E12F802F77080F3A031949
:100FAC00352F223A0319EA2E773A03199F2EEE3A7F
:100FBC000319542E802F7708683A0319092E802FB5
:100FCC00080083133030FD000130FE00DE30FF00DE
:100FDC00203084000A128A11F2210A128A11F001BF
:100FEC00F101F201F301F401F501F60183010A129A
:040FFC008A11CB2A61
:04400E00F5E0FFFFDB
:00000001FF
